{"abi":[{"type":"constructor","inputs":[{"name":"name_","type":"string","internalType":"string"},{"name":"symbol_","type":"string","internalType":"string"},{"name":"pair_","type":"address","internalType":"address"}],"stateMutability":"nonpayable"},{"type":"function","name":"allowance","inputs":[{"name":"owner","type":"address","internalType":"address"},{"name":"spender","type":"address","internalType":"address"}],"outputs":[{"name":"","type":"uint256","internalType":"uint256"}],"stateMutability":"view"},{"type":"function","name":"approve","inputs":[{"name":"spender","type":"address","internalType":"address"},{"name":"value","type":"uint256","internalType":"uint256"}],"outputs":[{"name":"","type":"bool","internalType":"bool"}],"stateMutability":"nonpayable"},{"type":"function","name":"balanceOf","inputs":[{"name":"account","type":"address","internalType":"address"}],"outputs":[{"name":"","type":"uint256","internalType":"uint256"}],"stateMutability":"view"},{"type":"function","name":"burn","inputs":[{"name":"from","type":"address","internalType":"address"},{"name":"amount","type":"uint256","internalType":"uint256"}],"outputs":[],"stateMutability":"nonpayable"},{"type":"function","name":"decimals","inputs":[],"outputs":[{"name":"","type":"uint8","internalType":"uint8"}],"stateMutability":"view"},{"type":"function","name":"mint","inputs":[{"name":"to","type":"address","internalType":"address"},{"name":"amount","type":"uint256","internalType":"uint256"}],"outputs":[],"stateMutability":"nonpayable"},{"type":"function","name":"name","inputs":[],"outputs":[{"name":"","type":"string","internalType":"string"}],"stateMutability":"view"},{"type":"function","name":"pair","inputs":[],"outputs":[{"name":"","type":"address","internalType":"address"}],"stateMutability":"view"},{"type":"function","name":"symbol","inputs":[],"outputs":[{"name":"","type":"string","internalType":"string"}],"stateMutability":"view"},{"type":"function","name":"totalSupply","inputs":[],"outputs":[{"name":"","type":"uint256","internalType":"uint256"}],"stateMutability":"view"},{"type":"function","name":"transfer","inputs":[{"name":"to","type":"address","internalType":"address"},{"name":"value","type":"uint256","internalType":"uint256"}],"outputs":[{"name":"","type":"bool","internalType":"bool"}],"stateMutability":"nonpayable"},{"type":"function","name":"transferFrom","inputs":[{"name":"from","type":"address","internalType":"address"},{"name":"to","type":"address","internalType":"address"},{"name":"value","type":"uint256","internalType":"uint256"}],"outputs":[{"name":"","type":"bool","internalType":"bool"}],"stateMutability":"nonpayable"},{"type":"event","name":"Approval","inputs":[{"name":"owner","type":"address","indexed":true,"internalType":"address"},{"name":"spender","type":"address","indexed":true,"internalType":"address"},{"name":"value","type":"uint256","indexed":false,"internalType":"uint256"}],"anonymous":false},{"type":"event","name":"Transfer","inputs":[{"name":"from","type":"address","indexed":true,"internalType":"address"},{"name":"to","type":"address","indexed":true,"internalType":"address"},{"name":"value","type":"uint256","indexed":false,"internalType":"uint256"}],"anonymous":false},{"type":"error","name":"ERC20InsufficientAllowance","inputs":[{"name":"spender","type":"address","internalType":"address"},{"name":"allowance","type":"uint256","internalType":"uint256"},{"name":"needed","type":"uint256","internalType":"uint256"}]},{"type":"error","name":"ERC20InsufficientBalance","inputs":[{"name":"sender","type":"address","internalType":"address"},{"name":"balance","type":"uint256","internalType":"uint256"},{"name":"needed","type":"uint256","internalType":"uint256"}]},{"type":"error","name":"ERC20InvalidApprover","inputs":[{"name":"approver","type":"address","internalType":"address"}]},{"type":"error","name":"ERC20InvalidReceiver","inputs":[{"name":"receiver","type":"address","internalType":"address"}]},{"type":"error","name":"ERC20InvalidSender","inputs":[{"name":"sender","type":"address","internalType":"address"}]},{"type":"error","name":"ERC20InvalidSpender","inputs":[{"name":"spender","type":"address","internalType":"address"}]},{"type":"error","name":"OnlyPair","inputs":[]}],"bytecode":{"object":"0x60a060405234801561000f575f5ffd5b5060405161167738038061167783398181016040528101906100319190610238565b8282816003908161004291906104e1565b50806004908161005291906104e1565b5050508073ffffffffffffffffffffffffffffffffffffffff1660808173ffffffffffffffffffffffffffffffffffffffff16815250505050506105b0565b5f604051905090565b5f5ffd5b5f5ffd5b5f5ffd5b5f5ffd5b5f601f19601f8301169050919050565b7f4e487b71000000000000000000000000000000000000000000000000000000005f52604160045260245ffd5b6100f0826100aa565b810181811067ffffffffffffffff8211171561010f5761010e6100ba565b5b80604052505050565b5f610121610091565b905061012d82826100e7565b919050565b5f67ffffffffffffffff82111561014c5761014b6100ba565b5b610155826100aa565b9050602081019050919050565b8281835e5f83830152505050565b5f61018261017d84610132565b610118565b90508281526020810184848401111561019e5761019d6100a6565b5b6101a9848285610162565b509392505050565b5f82601f8301126101c5576101c46100a2565b5b81516101d5848260208601610170565b91505092915050565b5f73ffffffffffffffffffffffffffffffffffffffff82169050919050565b5f610207826101de565b9050919050565b610217816101fd565b8114610221575f5ffd5b50565b5f815190506102328161020e565b92915050565b5f5f5f6060848603121561024f5761024e61009a565b5b5f84015167ffffffffffffffff81111561026c5761026b61009e565b5b610278868287016101b1565b935050602084015167ffffffffffffffff8111156102995761029861009e565b5b6102a5868287016101b1565b92505060406102b686828701610224565b9150509250925092565b5f81519050919050565b7f4e487b71000000000000000000000000000000000000000000000000000000005f52602260045260245ffd5b5f600282049050600182168061030e57607f821691505b602082108103610321576103206102ca565b5b50919050565b5f819050815f5260205f209050919050565b5f6020601f8301049050919050565b5f82821b905092915050565b5f600883026103837fffffffffffffffffffffffffffffffffffffffffffffffffffffffffffffffff82610348565b61038d8683610348565b95508019841693508086168417925050509392505050565b5f819050919050565b5f819050919050565b5f6103d16103cc6103c7846103a5565b6103ae565b6103a5565b9050919050565b5f819050919050565b6103ea836103b7565b6103fe6103f6826103d8565b848454610354565b825550505050565b5f5f905090565b610415610406565b6104208184846103e1565b505050565b5f5b828110156104465761043b5f82840161040d565b600181019050610427565b505050565b601f82111561049957828211156104985761046581610327565b61046e83610339565b61047785610339565b6020861015610484575f90505b80830161049382840382610425565b505050505b5b505050565b5f82821c905092915050565b5f6104b95f198460080261049e565b1980831691505092915050565b5f6104d183836104aa565b9150826002028217905092915050565b6104ea826102c0565b67ffffffffffffffff811115610503576105026100ba565b5b61050d82546102f7565b61051882828561044b565b5f60209050601f831160018114610549575f8415610537578287015190505b61054185826104c6565b8655506105a8565b601f19841661055786610327565b5f5b8281101561057e57848901518255600182019150602085019450602081019050610559565b8683101561059b5784890151610597601f8916826104aa565b8355505b6001600288020188555050505b505050505050565b6080516110a16105d65f395f8181610367015281816104cf015261056201526110a15ff3fe608060405234801561000f575f5ffd5b50600436106100b2575f3560e01c806370a082311161006f57806370a082311461018c57806395d89b41146101bc5780639dc29fac146101da578063a8aa1b31146101f6578063a9059cbb14610214578063dd62ed3e14610244576100b2565b806306fdde03146100b6578063095ea7b3146100d457806318160ddd1461010457806323b872dd14610122578063313ce5671461015257806340c10f1914610170575b5f5ffd5b6100be610274565b6040516100cb9190610d1a565b60405180910390f35b6100ee60048036038101906100e99190610dcb565b610304565b6040516100fb9190610e23565b60405180910390f35b61010c610326565b6040516101199190610e4b565b60405180910390f35b61013c60048036038101906101379190610e64565b61032f565b6040516101499190610e23565b60405180910390f35b61015a61035d565b6040516101679190610ecf565b60405180910390f35b61018a60048036038101906101859190610dcb565b610365565b005b6101a660048036038101906101a19190610ee8565b6103f8565b6040516101b39190610e4b565b60405180910390f35b6101c461043d565b6040516101d19190610d1a565b60405180910390f35b6101f460048036038101906101ef9190610dcb565b6104cd565b005b6101fe610560565b60405161020b9190610f22565b60405180910390f35b61022e60048036038101906102299190610dcb565b610584565b60405161023b9190610e23565b60405180910390f35b61025e60048036038101906102599190610f3b565b6105a6565b60405161026b9190610e4b565b60405180910390f35b60606003805461028390610fa6565b80601f01602080910402602001604051908101604052809291908181526020018280546102af90610fa6565b80156102fa5780601f106102d1576101008083540402835291602001916102fa565b820191905f5260205f20905b8154815290600101906020018083116102dd57829003601f168201915b5050505050905090565b5f5f61030e610628565b905061031b81858561062f565b600191505092915050565b5f600254905090565b5f5f610339610628565b9050610346858285610641565b6103518585856106d4565b60019150509392505050565b5f6012905090565b7f000000000000000000000000000000000000000000000000000000000000000073ffffffffffffffffffffffffffffffffffffffff163373ffffffffffffffffffffffffffffffffffffffff16146103ea576040517fa12db5cc00000000000000000000000000000000000000000000000000000000815260040160405180910390fd5b6103f482826107c4565b5050565b5f5f5f8373ffffffffffffffffffffffffffffffffffffffff1673ffffffffffffffffffffffffffffffffffffffff1681526020019081526020015f20549050919050565b60606004805461044c90610fa6565b80601f016020809104026020016040519081016040528092919081815260200182805461047890610fa6565b80156104c35780601f1061049a576101008083540402835291602001916104c3565b820191905f5260205f20905b8154815290600101906020018083116104a657829003601f168201915b5050505050905090565b7f000000000000000000000000000000000000000000000000000000000000000073ffffffffffffffffffffffffffffffffffffffff163373ffffffffffffffffffffffffffffffffffffffff1614610552576040517fa12db5cc00000000000000000000000000000000000000000000000000000000815260040160405180910390fd5b61055c8282610843565b5050565b7f000000000000000000000000000000000000000000000000000000000000000081565b5f5f61058e610628565b905061059b8185856106d4565b600191505092915050565b5f60015f8473ffffffffffffffffffffffffffffffffffffffff1673ffffffffffffffffffffffffffffffffffffffff1681526020019081526020015f205f8373ffffffffffffffffffffffffffffffffffffffff1673ffffffffffffffffffffffffffffffffffffffff1681526020019081526020015f2054905092915050565b5f33905090565b61063c83838360016108c2565b505050565b5f61064c84846105a6565b90507fffffffffffffffffffffffffffffffffffffffffffffffffffffffffffffffff8110156106ce57818110156106bf578281836040517ffb8f41b20000000000000000000000000000000000000000000000000000000081526004016106b693929190610fd6565b60405180910390fd5b6106cd84848484035f6108c2565b5b50505050565b5f73ffffffffffffffffffffffffffffffffffffffff168373ffffffffffffffffffffffffffffffffffffffff1603610744575f6040517f96c6fd1e00000000000000000000000000000000000000000000000000000000815260040161073b9190610f22565b60405180910390fd5b5f73ffffffffffffffffffffffffffffffffffffffff168273ffffffffffffffffffffffffffffffffffffffff16036107b4575f6040517fec442f050000000000000000000000000000000000000000000000000000000081526004016107ab9190610f22565b60405180910390fd5b6107bf838383610a91565b505050565b5f73ffffffffffffffffffffffffffffffffffffffff168273ffffffffffffffffffffffffffffffffffffffff1603610834575f6040517fec442f0500000000000000000000000000000000000000000000000000000000815260040161082b9190610f22565b60405180910390fd5b61083f5f8383610a91565b5050565b5f73ffffffffffffffffffffffffffffffffffffffff168273ffffffffffffffffffffffffffffffffffffffff16036108b3575f6040517f96c6fd1e0000000000000000000000000000000000000000000000000000000081526004016108aa9190610f22565b60405180910390fd5b6108be825f83610a91565b5050565b5f73ffffffffffffffffffffffffffffffffffffffff168473ffffffffffffffffffffffffffffffffffffffff1603610932575f6040517fe602df050000000000000000000000000000000000000000000000000000000081526004016109299190610f22565b60405180910390fd5b5f73ffffffffffffffffffffffffffffffffffffffff168373ffffffffffffffffffffffffffffffffffffffff16036109a2575f6040517f94280d620000000000000000000000000000000000000000000000000000000081526004016109999190610f22565b60405180910390fd5b8160015f8673ffffffffffffffffffffffffffffffffffffffff1673ffffffffffffffffffffffffffffffffffffffff1681526020019081526020015f205f8573ffffffffffffffffffffffffffffffffffffffff1673ffffffffffffffffffffffffffffffffffffffff1681526020019081526020015f20819055508015610a8b578273ffffffffffffffffffffffffffffffffffffffff168473ffffffffffffffffffffffffffffffffffffffff167f8c5be1e5ebec7d5bd14f71427d1e84f3dd0314c0f7b2291e5b200ac8c7c3b92584604051610a829190610e4b565b60405180910390a35b50505050565b5f73ffffffffffffffffffffffffffffffffffffffff168373ffffffffffffffffffffffffffffffffffffffff1603610ae1578060025f828254610ad59190611038565b92505081905550610baf565b5f5f5f8573ffffffffffffffffffffffffffffffffffffffff1673ffffffffffffffffffffffffffffffffffffffff1681526020019081526020015f2054905081811015610b6a578381836040517fe450d38c000000000000000000000000000000000000000000000000000000008152600401610b6193929190610fd6565b60405180910390fd5b8181035f5f8673ffffffffffffffffffffffffffffffffffffffff1673ffffffffffffffffffffffffffffffffffffffff1681526020019081526020015f2081905550505b5f73ffffffffffffffffffffffffffffffffffffffff168273ffffffffffffffffffffffffffffffffffffffff1603610bf6578060025f8282540392505081905550610c40565b805f5f8473ffffffffffffffffffffffffffffffffffffffff1673ffffffffffffffffffffffffffffffffffffffff1681526020019081526020015f205f82825401925050819055505b8173ffffffffffffffffffffffffffffffffffffffff168373ffffffffffffffffffffffffffffffffffffffff167fddf252ad1be2c89b69c2b068fc378daa952ba7f163c4a11628f55a4df523b3ef83604051610c9d9190610e4b565b60405180910390a3505050565b5f81519050919050565b5f82825260208201905092915050565b8281835e5f83830152505050565b5f601f19601f8301169050919050565b5f610cec82610caa565b610cf68185610cb4565b9350610d06818560208601610cc4565b610d0f81610cd2565b840191505092915050565b5f6020820190508181035f830152610d328184610ce2565b905092915050565b5f5ffd5b5f73ffffffffffffffffffffffffffffffffffffffff82169050919050565b5f610d6782610d3e565b9050919050565b610d7781610d5d565b8114610d81575f5ffd5b50565b5f81359050610d9281610d6e565b92915050565b5f819050919050565b610daa81610d98565b8114610db4575f5ffd5b50565b5f81359050610dc581610da1565b92915050565b5f5f60408385031215610de157610de0610d3a565b5b5f610dee85828601610d84565b9250506020610dff85828601610db7565b9150509250929050565b5f8115159050919050565b610e1d81610e09565b82525050565b5f602082019050610e365f830184610e14565b92915050565b610e4581610d98565b82525050565b5f602082019050610e5e5f830184610e3c565b92915050565b5f5f5f60608486031215610e7b57610e7a610d3a565b5b5f610e8886828701610d84565b9350506020610e9986828701610d84565b9250506040610eaa86828701610db7565b9150509250925092565b5f60ff82169050919050565b610ec981610eb4565b82525050565b5f602082019050610ee25f830184610ec0565b92915050565b5f60208284031215610efd57610efc610d3a565b5b5f610f0a84828501610d84565b91505092915050565b610f1c81610d5d565b82525050565b5f602082019050610f355f830184610f13565b92915050565b5f5f60408385031215610f5157610f50610d3a565b5b5f610f5e85828601610d84565b9250506020610f6f85828601610d84565b9150509250929050565b7f4e487b71000000000000000000000000000000000000000000000000000000005f52602260045260245ffd5b5f6002820490506001821680610fbd57607f821691505b602082108103610fd057610fcf610f79565b5b50919050565b5f606082019050610fe95f830186610f13565b610ff66020830185610e3c565b6110036040830184610e3c565b949350505050565b7f4e487b71000000000000000000000000000000000000000000000000000000005f52601160045260245ffd5b5f61104282610d98565b915061104d83610d98565b92508282019050808211156110655761106461100b565b5b9291505056fea26469706673582212202140cd4b66bdcac419e3f5ae1d015980c22d4fb006cf859c688c8d716a13cc6064736f6c63430008210033","linkReferences":{}},"methodIdentifiers":{"allowance(address,address)":"dd62ed3e","approve(address,uint256)":"095ea7b3","balanceOf(address)":"70a08231","burn(address,uint256)":"9dc29fac","decimals()":"313ce567","mint(address,uint256)":"40c10f19","name()":"06fdde03","pair()":"a8aa1b31","symbol()":"95d89b41","totalSupply()":"18160ddd","transfer(address,uint256)":"a9059cbb","transferFrom(address,address,uint256)":"23b872dd"},"id":97}