{"abi":[{"type":"constructor","inputs":[],"stateMutability":"nonpayable"},{"type":"function","name":"UPGRADE_INTERFACE_VERSION","inputs":[],"outputs":[{"name":"","type":"string","internalType":"string"}],"stateMutability":"view"},{"type":"function","name":"allowance","inputs":[{"name":"owner","type":"address","internalType":"address"},{"name":"spender","type":"address","internalType":"address"}],"outputs":[{"name":"","type":"uint256","internalType":"uint256"}],"stateMutability":"view"},{"type":"function","name":"approve","inputs":[{"name":"spender","type":"address","internalType":"address"},{"name":"value","type":"uint256","internalType":"uint256"}],"outputs":[{"name":"","type":"bool","internalType":"bool"}],"stateMutability":"nonpayable"},{"type":"function","name":"asset","inputs":[],"outputs":[{"name":"","type":"address","internalType":"address"}],"stateMutability":"view"},{"type":"function","name":"balanceOf","inputs":[{"name":"account","type":"address","internalType":"address"}],"outputs":[{"name":"","type":"uint256","internalType":"uint256"}],"stateMutability":"view"},{"type":"function","name":"convertToAssets","inputs":[{"name":"shares","type":"uint256","internalType":"uint256"}],"outputs":[{"name":"","type":"uint256","internalType":"uint256"}],"stateMutability":"view"},{"type":"function","name":"convertToShares","inputs":[{"name":"assets","type":"uint256","internalType":"uint256"}],"outputs":[{"name":"","type":"uint256","internalType":"uint256"}],"stateMutability":"view"},{"type":"function","name":"decimals","inputs":[],"outputs":[{"name":"","type":"uint8","internalType":"uint8"}],"stateMutability":"view"},{"type":"function","name":"deposit","inputs":[{"name":"assets","type":"uint256","internalType":"uint256"},{"name":"receiver","type":"address","internalType":"address"}],"outputs":[{"name":"shares","type":"uint256","internalType":"uint256"}],"stateMutability":"nonpayable"},{"type":"function","name":"harvest","inputs":[{"name":"amount","type":"uint256","internalType":"uint256"}],"outputs":[],"stateMutability":"nonpayable"},{"type":"function","name":"initialize","inputs":[{"name":"asset_","type":"address","internalType":"address"},{"name":"owner_","type":"address","internalType":"address"}],"outputs":[],"stateMutability":"nonpayable"},{"type":"function","name":"maxDeposit","inputs":[{"name":"","type":"address","internalType":"address"}],"outputs":[{"name":"","type":"uint256","internalType":"uint256"}],"stateMutability":"view"},{"type":"function","name":"maxMint","inputs":[{"name":"","type":"address","internalType":"address"}],"outputs":[{"name":"","type":"uint256","internalType":"uint256"}],"stateMutability":"view"},{"type":"function","name":"maxRedeem","inputs":[{"name":"owner","type":"address","internalType":"address"}],"outputs":[{"name":"","type":"uint256","internalType":"uint256"}],"stateMutability":"view"},{"type":"function","name":"maxWithdraw","inputs":[{"name":"owner","type":"address","internalType":"address"}],"outputs":[{"name":"","type":"uint256","internalType":"uint256"}],"stateMutability":"view"},{"type":"function","name":"mint","inputs":[{"name":"shares","type":"uint256","internalType":"uint256"},{"name":"receiver","type":"address","internalType":"address"}],"outputs":[{"name":"assets","type":"uint256","internalType":"uint256"}],"stateMutability":"nonpayable"},{"type":"function","name":"name","inputs":[],"outputs":[{"name":"","type":"string","internalType":"string"}],"stateMutability":"view"},{"type":"function","name":"owner","inputs":[],"outputs":[{"name":"","type":"address","internalType":"address"}],"stateMutability":"view"},{"type":"function","name":"previewDeposit","inputs":[{"name":"assets","type":"uint256","internalType":"uint256"}],"outputs":[{"name":"","type":"uint256","internalType":"uint256"}],"stateMutability":"view"},{"type":"function","name":"previewMint","inputs":[{"name":"shares","type":"uint256","internalType":"uint256"}],"outputs":[{"name":"","type":"uint256","internalType":"uint256"}],"stateMutability":"view"},{"type":"function","name":"previewRedeem","inputs":[{"name":"shares","type":"uint256","internalType":"uint256"}],"outputs":[{"name":"","type":"uint256","internalType":"uint256"}],"stateMutability":"view"},{"type":"function","name":"previewWithdraw","inputs":[{"name":"assets","type":"uint256","internalType":"uint256"}],"outputs":[{"name":"","type":"uint256","internalType":"uint256"}],"stateMutability":"view"},{"type":"function","name":"proxiableUUID","inputs":[],"outputs":[{"name":"","type":"bytes32","internalType":"bytes32"}],"stateMutability":"view"},{"type":"function","name":"redeem","inputs":[{"name":"shares","type":"uint256","internalType":"uint256"},{"name":"receiver","type":"address","internalType":"address"},{"name":"owner","type":"address","internalType":"address"}],"outputs":[{"name":"assets","type":"uint256","internalType":"uint256"}],"stateMutability":"nonpayable"},{"type":"function","name":"renounceOwnership","inputs":[],"outputs":[],"stateMutability":"nonpayable"},{"type":"function","name":"symbol","inputs":[],"outputs":[{"name":"","type":"string","internalType":"string"}],"stateMutability":"view"},{"type":"function","name":"totalAssets","inputs":[],"outputs":[{"name":"","type":"uint256","internalType":"uint256"}],"stateMutability":"view"},{"type":"function","name":"totalSupply","inputs":[],"outputs":[{"name":"","type":"uint256","internalType":"uint256"}],"stateMutability":"view"},{"type":"function","name":"totalYieldHarvested","inputs":[],"outputs":[{"name":"","type":"uint256","internalType":"uint256"}],"stateMutability":"view"},{"type":"function","name":"transfer","inputs":[{"name":"to","type":"address","internalType":"address"},{"name":"value","type":"uint256","internalType":"uint256"}],"outputs":[{"name":"","type":"bool","internalType":"bool"}],"stateMutability":"nonpayable"},{"type":"function","name":"transferFrom","inputs":[{"name":"from","type":"address","internalType":"address"},{"name":"to","type":"address","internalType":"address"},{"name":"value","type":"uint256","internalType":"uint256"}],"outputs":[{"name":"","type":"bool","internalType":"bool"}],"stateMutability":"nonpayable"},{"type":"function","name":"transferOwnership","inputs":[{"name":"newOwner","type":"address","internalType":"address"}],"outputs":[],"stateMutability":"nonpayable"},{"type":"function","name":"upgradeToAndCall","inputs":[{"name":"newImplementation","type":"address","internalType":"address"},{"name":"data","type":"bytes","internalType":"bytes"}],"outputs":[],"stateMutability":"payable"},{"type":"function","name":"withdraw","inputs":[{"name":"assets","type":"uint256","internalType":"uint256"},{"name":"receiver","type":"address","internalType":"address"},{"name":"owner","type":"address","internalType":"address"}],"outputs":[{"name":"shares","type":"uint256","internalType":"uint256"}],"stateMutability":"nonpayable"},{"type":"event","name":"Approval","inputs":[{"name":"owner","type":"address","indexed":true,"internalType":"address"},{"name":"spender","type":"address","indexed":true,"internalType":"address"},{"name":"value","type":"uint256","indexed":false,"internalType":"uint256"}],"anonymous":false},{"type":"event","name":"Deposit","inputs":[{"name":"sender","type":"address","indexed":true,"internalType":"address"},{"name":"owner","type":"address","indexed":true,"internalType":"address"},{"name":"assets","type":"uint256","indexed":false,"internalType":"uint256"},{"name":"shares","type":"uint256","indexed":false,"internalType":"uint256"}],"anonymous":false},{"type":"event","name":"Initialized","inputs":[{"name":"version","type":"uint64","indexed":false,"internalType":"uint64"}],"anonymous":false},{"type":"event","name":"OwnershipTransferred","inputs":[{"name":"previousOwner","type":"address","indexed":true,"internalType":"address"},{"name":"newOwner","type":"address","indexed":true,"internalType":"address"}],"anonymous":false},{"type":"event","name":"Transfer","inputs":[{"name":"from","type":"address","indexed":true,"internalType":"address"},{"name":"to","type":"address","indexed":true,"internalType":"address"},{"name":"value","type":"uint256","indexed":false,"internalType":"uint256"}],"anonymous":false},{"type":"event","name":"Upgraded","inputs":[{"name":"implementation","type":"address","indexed":true,"internalType":"address"}],"anonymous":false},{"type":"event","name":"Withdraw","inputs":[{"name":"sender","type":"address","indexed":true,"internalType":"address"},{"name":"receiver","type":"address","indexed":true,"internalType":"address"},{"name":"owner","type":"address","indexed":true,"internalType":"address"},{"name":"assets","type":"uint256","indexed":false,"internalType":"uint256"},{"name":"shares","type":"uint256","indexed":false,"internalType":"uint256"}],"anonymous":false},{"type":"event","name":"YieldHarvested","inputs":[{"name":"amount","type":"uint256","indexed":false,"internalType":"uint256"}],"anonymous":false},{"type":"error","name":"AddressEmptyCode","inputs":[{"name":"target","type":"address","internalType":"address"}]},{"type":"error","name":"ERC1967InvalidImplementation","inputs":[{"name":"implementation","type":"address","internalType":"address"}]},{"type":"error","name":"ERC1967NonPayable","inputs":[]},{"type":"error","name":"ERC20InsufficientAllowance","inputs":[{"name":"spender","type":"address","internalType":"address"},{"name":"allowance","type":"uint256","internalType":"uint256"},{"name":"needed","type":"uint256","internalType":"uint256"}]},{"type":"error","name":"ERC20InsufficientBalance","inputs":[{"name":"sender","type":"address","internalType":"address"},{"name":"balance","type":"uint256","internalType":"uint256"},{"name":"needed","type":"uint256","internalType":"uint256"}]},{"type":"error","name":"ERC20InvalidApprover","inputs":[{"name":"approver","type":"address","internalType":"address"}]},{"type":"error","name":"ERC20InvalidReceiver","inputs":[{"name":"receiver","type":"address","internalType":"address"}]},{"type":"error","name":"ERC20InvalidSender","inputs":[{"name":"sender","type":"address","internalType":"address"}]},{"type":"error","name":"ERC20InvalidSpender","inputs":[{"name":"spender","type":"address","internalType":"address"}]},{"type":"error","name":"ERC4626ExceededMaxDeposit","inputs":[{"name":"receiver","type":"address","internalType":"address"},{"name":"assets","type":"uint256","internalType":"uint256"},{"name":"max","type":"uint256","internalType":"uint256"}]},{"type":"error","name":"ERC4626ExceededMaxMint","inputs":[{"name":"receiver","type":"address","internalType":"address"},{"name":"shares","type":"uint256","internalType":"uint256"},{"name":"max","type":"uint256","internalType":"uint256"}]},{"type":"error","name":"ERC4626ExceededMaxRedeem","inputs":[{"name":"owner","type":"address","internalType":"address"},{"name":"shares","type":"uint256","internalType":"uint256"},{"name":"max","type":"uint256","internalType":"uint256"}]},{"type":"error","name":"ERC4626ExceededMaxWithdraw","inputs":[{"name":"owner","type":"address","internalType":"address"},{"name":"assets","type":"uint256","internalType":"uint256"},{"name":"max","type":"uint256","internalType":"uint256"}]},{"type":"error","name":"FailedCall","inputs":[]},{"type":"error","name":"InvalidInitialization","inputs":[]},{"type":"error","name":"NotInitializing","inputs":[]},{"type":"error","name":"OwnableInvalidOwner","inputs":[{"name":"owner","type":"address","internalType":"address"}]},{"type":"error","name":"OwnableUnauthorizedAccount","inputs":[{"name":"account","type":"address","internalType":"address"}]},{"type":"error","name":"ReentrancyGuardReentrantCall","inputs":[]},{"type":"error","name":"SafeERC20FailedOperation","inputs":[{"name":"token","type":"address","internalType":"address"}]},{"type":"error","name":"UUPSUnauthorizedCallContext","inputs":[]},{"type":"error","name":"UUPSUnsupportedProxiableUUID","inputs":[{"name":"slot","type":"bytes32","internalType":"bytes32"}]}],"bytecode":{"object":"0x60a06040523073ffffffffffffffffffffffffffffffffffffffff1660809073ffffffffffffffffffffffffffffffffffffffff16815250348015610042575f5ffd5b50600161006161005661007a60201b60201c565b6100a360201b60201c565b5f01819055506100756100ac60201b60201c565b610227565b5f7f9b779b17422d0df92223018b32b4d1fa46e071723d6817e2486d003becc55f005f1b905090565b5f819050919050565b5f6100bb6101aa60201b60201c565b9050805f0160089054906101000a900460ff1615610105576040517ff92ee8a900000000000000000000000000000000000000000000000000000000815260040160405180910390fd5b67ffffffffffffffff8016815f015f9054906101000a900467ffffffffffffffff1667ffffffffffffffff16146101a75767ffffffffffffffff815f015f6101000a81548167ffffffffffffffff021916908367ffffffffffffffff1602179055507fc7f505b2f371ae2175ee4913f4499e1f2633a7b5936321eed1cdaeb6115181d267ffffffffffffffff60405161019e919061020e565b60405180910390a15b50565b5f5f6101ba6101c360201b60201c565b90508091505090565b5f7ff0c57e16840df040f15088dc2f81fe391c3923bec73e23a9662efc9c229c6a005f1b905090565b5f67ffffffffffffffff82169050919050565b610208816101ec565b82525050565b5f6020820190506102215f8301846101ff565b92915050565b608051613a8261024d5f395f81816116180152818161166d01526118270152613a825ff3fe6080604052600436106101f8575f3560e01c8063715018a61161010c578063ba0876521161009f578063d905777e1161006e578063d905777e146107ba578063dd62ed3e146107f6578063ddc6326214610832578063ef8b30f71461085a578063f2fde38b14610896576101f8565b8063ba087652146106ca578063c63d75b614610706578063c6e6f59214610742578063ce96cb771461077e576101f8565b8063a9059cbb116100db578063a9059cbb146105ec578063ad3cb1cc14610628578063b3d7f6b914610652578063b460af941461068e576101f8565b8063715018a6146105465780638da5cb5b1461055c57806394bf804d1461058657806395d89b41146105c2576101f8565b8063313ce5671161018f5780634cdad5061161015e5780634cdad5061461044c5780634f1ef2861461048857806352d1902d146104a45780636e553f65146104ce57806370a082311461050a576101f8565b8063313ce5671461039457806338d52e0f146103be578063402d267d146103e8578063485cc95514610424576101f8565b80630a28a477116101cb5780630a28a477146102c857806318160ddd1461030457806322a6619e1461032e57806323b872dd14610358576101f8565b806301e1d114146101fc57806306fdde031461022657806307a2d13a14610250578063095ea7b31461028c575b5f5ffd5b348015610207575f5ffd5b506102106108be565b60405161021d9190612c8d565b60405180910390f35b348015610231575f5ffd5b5061023a610943565b6040516102479190612d16565b60405180910390f35b34801561025b575f5ffd5b5061027660048036038101906102719190612d71565b6109e1565b6040516102839190612c8d565b60405180910390f35b348015610297575f5ffd5b506102b260048036038101906102ad9190612df6565b6109f3565b6040516102bf9190612e4e565b60405180910390f35b3480156102d3575f5ffd5b506102ee60048036038101906102e99190612d71565b610a15565b6040516102fb9190612c8d565b60405180910390f35b34801561030f575f5ffd5b50610318610a28565b6040516103259190612c8d565b60405180910390f35b348015610339575f5ffd5b50610342610a3f565b60405161034f9190612c8d565b60405180910390f35b348015610363575f5ffd5b5061037e60048036038101906103799190612e67565b610a44565b60405161038b9190612e4e565b60405180910390f35b34801561039f575f5ffd5b506103a8610a72565b6040516103b59190612ed2565b60405180910390f35b3480156103c9575f5ffd5b506103d2610aa7565b6040516103df9190612efa565b60405180910390f35b3480156103f3575f5ffd5b5061040e60048036038101906104099190612f13565b610adc565b60405161041b9190612c8d565b60405180910390f35b34801561042f575f5ffd5b5061044a60048036038101906104459190612f3e565b610b05565b005b348015610457575f5ffd5b50610472600480360381019061046d9190612d71565b610de0565b60405161047f9190612c8d565b60405180910390f35b6104a2600480360381019061049d91906130a8565b610df2565b005b3480156104af575f5ffd5b506104b8610e11565b6040516104c5919061311a565b60405180910390f35b3480156104d9575f5ffd5b506104f460048036038101906104ef9190613133565b610e42565b6040516105019190612c8d565b60405180910390f35b348015610515575f5ffd5b50610530600480360381019061052b9190612f13565b610e65565b60405161053d9190612c8d565b60405180910390f35b348015610551575f5ffd5b5061055a610eb8565b005b348015610567575f5ffd5b50610570610ecb565b60405161057d9190612efa565b60405180910390f35b348015610591575f5ffd5b506105ac60048036038101906105a79190613133565b610f00565b6040516105b99190612c8d565b60405180910390f35b3480156105cd575f5ffd5b506105d6610f23565b6040516105e39190612d16565b60405180910390f35b3480156105f7575f5ffd5b50610612600480360381019061060d9190612df6565b610fc1565b60405161061f9190612e4e565b60405180910390f35b348015610633575f5ffd5b5061063c610fe3565b6040516106499190612d16565b60405180910390f35b34801561065d575f5ffd5b5061067860048036038101906106739190612d71565b61101c565b6040516106859190612c8d565b60405180910390f35b348015610699575f5ffd5b506106b460048036038101906106af9190613171565b61102f565b6040516106c19190612c8d565b60405180910390f35b3480156106d5575f5ffd5b506106f060048036038101906106eb9190613171565b611054565b6040516106fd9190612c8d565b60405180910390f35b348015610711575f5ffd5b5061072c60048036038101906107279190612f13565b611079565b6040516107399190612c8d565b60405180910390f35b34801561074d575f5ffd5b5061076860048036038101906107639190612d71565b6110a2565b6040516107759190612c8d565b60405180910390f35b348015610789575f5ffd5b506107a4600480360381019061079f9190612f13565b6110b4565b6040516107b19190612c8d565b60405180910390f35b3480156107c5575f5ffd5b506107e060048036038101906107db9190612f13565b6110cd565b6040516107ed9190612c8d565b60405180910390f35b348015610801575f5ffd5b5061081c60048036038101906108179190612f3e565b6110de565b6040516108299190612c8d565b60405180910390f35b34801561083d575f5ffd5b5061085860048036038101906108539190612d71565b61116e565b005b348015610865575f5ffd5b50610880600480360381019061087b9190612d71565b61128e565b60405161088d9190612c8d565b60405180910390f35b3480156108a1575f5ffd5b506108bc60048036038101906108b79190612f13565b6112a0565b005b5f6108c7610aa7565b73ffffffffffffffffffffffffffffffffffffffff166370a08231306040518263ffffffff1660e01b81526004016108ff9190612efa565b602060405180830381865afa15801561091a573d5f5f3e3d5ffd5b505050506040513d601f19601f8201168201806040525081019061093e91906131d5565b905090565b60605f61094e611324565b905080600301805461095f9061322d565b80601f016020809104026020016040519081016040528092919081815260200182805461098b9061322d565b80156109d65780601f106109ad576101008083540402835291602001916109d6565b820191905f5260205f20905b8154815290600101906020018083116109b957829003601f168201915b505050505091505090565b5f6109ec825f61134b565b9050919050565b5f5f6109fd6113a3565b9050610a0a8185856113aa565b600191505092915050565b5f610a218260016113bc565b9050919050565b5f5f610a32611324565b9050806002015491505090565b5f5481565b5f5f610a4e6113a3565b9050610a5b858285611414565b610a668585856114a7565b60019150509392505050565b5f5f610a7c611597565b9050610a866115be565b815f0160149054906101000a900460ff16610aa1919061328a565b91505090565b5f5f610ab1611597565b9050805f015f9054906101000a900473ffffffffffffffffffffffffffffffffffffffff1691505090565b5f7fffffffffffffffffffffffffffffffffffffffffffffffffffffffffffffffff9050919050565b5f610b0e6115c5565b90505f815f0160089054906101000a900460ff161590505f825f015f9054906101000a900467ffffffffffffffff1690505f5f8267ffffffffffffffff16148015610b565750825b90505f60018367ffffffffffffffff16148015610b8957505f3073ffffffffffffffffffffffffffffffffffffffff163b145b905081158015610b97575080155b15610bce576040517ff92ee8a900000000000000000000000000000000000000000000000000000000815260040160405180910390fd5b6001855f015f6101000a81548167ffffffffffffffff021916908367ffffffffffffffff1602179055508315610c1b576001855f0160086101000a81548160ff0219169083151502179055505b5f73ffffffffffffffffffffffffffffffffffffffff168773ffffffffffffffffffffffffffffffffffffffff1603610c89576040517f08c379a0000000000000000000000000000000000000000000000000000000008152600401610c8090613308565b60405180910390fd5b5f73ffffffffffffffffffffffffffffffffffffffff168673ffffffffffffffffffffffffffffffffffffffff1603610cf7576040517f08c379a0000000000000000000000000000000000000000000000000000000008152600401610cee90613370565b60405180910390fd5b610d6b6040518060400160405280601681526020017f44654669205375706572205661756c74205368617265000000000000000000008152506040518060400160405280600481526020017f44535653000000000000000000000000000000000000000000000000000000008152506115d8565b610d74876115ee565b610d7d86611602565b8315610dd7575f855f0160086101000a81548160ff0219169083151502179055507fc7f505b2f371ae2175ee4913f4499e1f2633a7b5936321eed1cdaeb6115181d26001604051610dce91906133e3565b60405180910390a15b50505050505050565b5f610deb825f61134b565b9050919050565b610dfa611616565b610e03826116fc565b610e0d8282611707565b5050565b5f610e1a611825565b7f360894a13ba1a3210667c828492db98dca3e2076cc3735a920a3ca505d382bbc5f1b905090565b5f610e4b6118ac565b610e5583836118ce565b9050610e5f61194e565b92915050565b5f5f610e6f611324565b9050805f015f8473ffffffffffffffffffffffffffffffffffffffff1673ffffffffffffffffffffffffffffffffffffffff1681526020019081526020015f2054915050919050565b610ec0611968565b610ec95f6119ef565b565b5f5f610ed5611ac0565b9050805f015f9054906101000a900473ffffffffffffffffffffffffffffffffffffffff1691505090565b5f610f096118ac565b610f138383611ae7565b9050610f1d61194e565b92915050565b60605f610f2e611324565b9050806004018054610f3f9061322d565b80601f0160208091040260200160405190810160405280929190818152602001828054610f6b9061322d565b8015610fb65780601f10610f8d57610100808354040283529160200191610fb6565b820191905f5260205f20905b815481529060010190602001808311610f9957829003601f168201915b505050505091505090565b5f5f610fcb6113a3565b9050610fd88185856114a7565b600191505092915050565b6040518060400160405280600581526020017f352e302e3000000000000000000000000000000000000000000000000000000081525081565b5f61102882600161134b565b9050919050565b5f6110386118ac565b611043848484611b67565b905061104d61194e565b9392505050565b5f61105d6118ac565b611068848484611be9565b905061107261194e565b9392505050565b5f7fffffffffffffffffffffffffffffffffffffffffffffffffffffffffffffffff9050919050565b5f6110ad825f6113bc565b9050919050565b5f6110c66110c1836110cd565b610de0565b9050919050565b5f6110d782610e65565b9050919050565b5f5f6110e8611324565b9050806001015f8573ffffffffffffffffffffffffffffffffffffffff1673ffffffffffffffffffffffffffffffffffffffff1681526020019081526020015f205f8473ffffffffffffffffffffffffffffffffffffffff1673ffffffffffffffffffffffffffffffffffffffff1681526020019081526020015f205491505092915050565b611176611968565b5f81116111b8576040517f08c379a00000000000000000000000000000000000000000000000000000000081526004016111af90613446565b60405180910390fd5b6111c0610aa7565b73ffffffffffffffffffffffffffffffffffffffff166323b872dd3330846040518463ffffffff1660e01b81526004016111fc93929190613464565b6020604051808303815f875af1158015611218573d5f5f3e3d5ffd5b505050506040513d601f19601f8201168201806040525081019061123c91906134c3565b50805f5f82825461124d91906134ee565b925050819055507feb2d114a827fe0da3db4c0e374010959cf461f7ed76987aeff51666dea9add9b816040516112839190612c8d565b60405180910390a150565b5f611299825f6113bc565b9050919050565b6112a8611968565b5f73ffffffffffffffffffffffffffffffffffffffff168173ffffffffffffffffffffffffffffffffffffffff1603611318575f6040517f1e4fbdf700000000000000000000000000000000000000000000000000000000815260040161130f9190612efa565b60405180910390fd5b611321816119ef565b50565b5f7f52c63247e1f47db19d5ce0460030c497f067ca4cebf71ba98eeadabe20bace00905090565b5f61139b60016113596108be565b61136391906134ee565b61136b6115be565b600a6113779190613650565b61137f610a28565b61138991906134ee565b8486611c6b909392919063ffffffff16565b905092915050565b5f33905090565b6113b78383836001611cb8565b505050565b5f61140c6113c86115be565b600a6113d49190613650565b6113dc610a28565b6113e691906134ee565b60016113f06108be565b6113fa91906134ee565b8486611c6b909392919063ffffffff16565b905092915050565b5f61141f84846110de565b90507fffffffffffffffffffffffffffffffffffffffffffffffffffffffffffffffff8110156114a15781811015611492578281836040517ffb8f41b20000000000000000000000000000000000000000000000000000000081526004016114899392919061369a565b60405180910390fd5b6114a084848484035f611cb8565b5b50505050565b5f73ffffffffffffffffffffffffffffffffffffffff168373ffffffffffffffffffffffffffffffffffffffff1603611517575f6040517f96c6fd1e00000000000000000000000000000000000000000000000000000000815260040161150e9190612efa565b60405180910390fd5b5f73ffffffffffffffffffffffffffffffffffffffff168273ffffffffffffffffffffffffffffffffffffffff1603611587575f6040517fec442f0500000000000000000000000000000000000000000000000000000000815260040161157e9190612efa565b60405180910390fd5b611592838383611e95565b505050565b5f7f0773e532dfede91f04b12a73d3d2acd361424f41f76b4fb79f090161e36b4e00905090565b5f5f905090565b5f5f6115cf6120c4565b90508091505090565b6115e06120ed565b6115ea828261212d565b5050565b6115f66120ed565b6115ff81612169565b50565b61160a6120ed565b611613816121fb565b50565b7f000000000000000000000000000000000000000000000000000000000000000073ffffffffffffffffffffffffffffffffffffffff163073ffffffffffffffffffffffffffffffffffffffff1614806116c357507f000000000000000000000000000000000000000000000000000000000000000073ffffffffffffffffffffffffffffffffffffffff166116aa61227f565b73ffffffffffffffffffffffffffffffffffffffff1614155b156116fa576040517fe07c8dba00000000000000000000000000000000000000000000000000000000815260040160405180910390fd5b565b611704611968565b50565b8173ffffffffffffffffffffffffffffffffffffffff166352d1902d6040518163ffffffff1660e01b8152600401602060405180830381865afa92505050801561176f57506040513d601f19601f8201168201806040525081019061176c91906136f9565b60015b6117b057816040517f4c9c8ce30000000000000000000000000000000000000000000000000000000081526004016117a79190612efa565b60405180910390fd5b7f360894a13ba1a3210667c828492db98dca3e2076cc3735a920a3ca505d382bbc5f1b811461181657806040517faa1d49a400000000000000000000000000000000000000000000000000000000815260040161180d919061311a565b60405180910390fd5b61182083836122d2565b505050565b7f000000000000000000000000000000000000000000000000000000000000000073ffffffffffffffffffffffffffffffffffffffff163073ffffffffffffffffffffffffffffffffffffffff16146118aa576040517fe07c8dba00000000000000000000000000000000000000000000000000000000815260040160405180910390fd5b565b6118b4612344565b60026118c66118c1612385565b6123ae565b5f0181905550565b5f5f6118d983610adc565b905080841115611924578284826040517f79012fb200000000000000000000000000000000000000000000000000000000815260040161191b9392919061369a565b60405180910390fd5b5f61192e8561128e565b905061194361193b6113a3565b8587846123b7565b809250505092915050565b600161196061195b612385565b6123ae565b5f0181905550565b6119706113a3565b73ffffffffffffffffffffffffffffffffffffffff1661198e610ecb565b73ffffffffffffffffffffffffffffffffffffffff16146119ed576119b16113a3565b6040517f118cdaa70000000000000000000000000000000000000000000000000000000081526004016119e49190612efa565b60405180910390fd5b565b5f6119f8611ac0565b90505f815f015f9054906101000a900473ffffffffffffffffffffffffffffffffffffffff16905082825f015f6101000a81548173ffffffffffffffffffffffffffffffffffffffff021916908373ffffffffffffffffffffffffffffffffffffffff1602179055508273ffffffffffffffffffffffffffffffffffffffff168173ffffffffffffffffffffffffffffffffffffffff167f8be0079c531659141344cd1fd0a4f28419497f9722a3daafe3b4186f6b6457e060405160405180910390a3505050565b5f7f9016d09d72d40fdae2fd8ceac6b6234c7706214fd39c1cd1e609a0528c199300905090565b5f5f611af283611079565b905080841115611b3d578284826040517f284ff667000000000000000000000000000000000000000000000000000000008152600401611b349392919061369a565b60405180910390fd5b5f611b478561101c565b9050611b5c611b546113a3565b8583886123b7565b809250505092915050565b5f5f611b72836110b4565b905080851115611bbd578285826040517ffe9cceec000000000000000000000000000000000000000000000000000000008152600401611bb49392919061369a565b60405180910390fd5b5f611bc786610a15565b9050611bdd611bd46113a3565b86868985612438565b80925050509392505050565b5f5f611bf4836110cd565b905080851115611c3f578285826040517fb94abeec000000000000000000000000000000000000000000000000000000008152600401611c369392919061369a565b60405180910390fd5b5f611c4986610de0565b9050611c5f611c566113a3565b8686848a612438565b80925050509392505050565b5f611c99611c7883612510565b8015611c9457505f8480611c8f57611c8e613724565b5b868809115b61253d565b611ca4868686612548565b611cae91906134ee565b9050949350505050565b5f611cc1611324565b90505f73ffffffffffffffffffffffffffffffffffffffff168573ffffffffffffffffffffffffffffffffffffffff1603611d33575f6040517fe602df05000000000000000000000000000000000000000000000000000000008152600401611d2a9190612efa565b60405180910390fd5b5f73ffffffffffffffffffffffffffffffffffffffff168473ffffffffffffffffffffffffffffffffffffffff1603611da3575f6040517f94280d62000000000000000000000000000000000000000000000000000000008152600401611d9a9190612efa565b60405180910390fd5b82816001015f8773ffffffffffffffffffffffffffffffffffffffff1673ffffffffffffffffffffffffffffffffffffffff1681526020019081526020015f205f8673ffffffffffffffffffffffffffffffffffffffff1673ffffffffffffffffffffffffffffffffffffffff1681526020019081526020015f20819055508115611e8e578373ffffffffffffffffffffffffffffffffffffffff168573ffffffffffffffffffffffffffffffffffffffff167f8c5be1e5ebec7d5bd14f71427d1e84f3dd0314c0f7b2291e5b200ac8c7c3b92585604051611e859190612c8d565b60405180910390a35b5050505050565b5f611e9e611324565b90505f73ffffffffffffffffffffffffffffffffffffffff168473ffffffffffffffffffffffffffffffffffffffff1603611ef25781816002015f828254611ee691906134ee565b92505081905550611fc4565b5f815f015f8673ffffffffffffffffffffffffffffffffffffffff1673ffffffffffffffffffffffffffffffffffffffff1681526020019081526020015f2054905082811015611f7d578481846040517fe450d38c000000000000000000000000000000000000000000000000000000008152600401611f749392919061369a565b60405180910390fd5b828103825f015f8773ffffffffffffffffffffffffffffffffffffffff1673ffffffffffffffffffffffffffffffffffffffff1681526020019081526020015f2081905550505b5f73ffffffffffffffffffffffffffffffffffffffff168373ffffffffffffffffffffffffffffffffffffffff160361200d5781816002015f8282540392505081905550612059565b81815f015f8573ffffffffffffffffffffffffffffffffffffffff1673ffffffffffffffffffffffffffffffffffffffff1681526020019081526020015f205f82825401925050819055505b8273ffffffffffffffffffffffffffffffffffffffff168473ffffffffffffffffffffffffffffffffffffffff167fddf252ad1be2c89b69c2b068fc378daa952ba7f163c4a11628f55a4df523b3ef846040516120b69190612c8d565b60405180910390a350505050565b5f7ff0c57e16840df040f15088dc2f81fe391c3923bec73e23a9662efc9c229c6a005f1b905090565b6120f5612627565b61212b576040517fd7e6bcf800000000000000000000000000000000000000000000000000000000815260040160405180910390fd5b565b6121356120ed565b5f61213e611324565b90508281600301908161215191906138f9565b508181600401908161216391906138f9565b50505050565b6121716120ed565b5f61217a611597565b90505f5f61218784612645565b9150915081612197576012612199565b805b835f0160146101000a81548160ff021916908360ff16021790555083835f015f6101000a81548173ffffffffffffffffffffffffffffffffffffffff021916908373ffffffffffffffffffffffffffffffffffffffff16021790555050505050565b6122036120ed565b5f73ffffffffffffffffffffffffffffffffffffffff168173ffffffffffffffffffffffffffffffffffffffff1603612273575f6040517f1e4fbdf700000000000000000000000000000000000000000000000000000000815260040161226a9190612efa565b60405180910390fd5b61227c816119ef565b50565b5f6122ab7f360894a13ba1a3210667c828492db98dca3e2076cc3735a920a3ca505d382bbc5f1b6126f9565b5f015f9054906101000a900473ffffffffffffffffffffffffffffffffffffffff16905090565b6122db82612702565b8173ffffffffffffffffffffffffffffffffffffffff167fbc7cd75a20ee27fd9adebab32041f755214dbc6bffa90cc0225b39da2e5c2d3b60405160405180910390a25f815111156123375761233182826127cb565b50612340565b61233f6128bc565b5b5050565b61234c6128f8565b15612383576040517f3ee5aeb500000000000000000000000000000000000000000000000000000000815260040160405180910390fd5b565b5f7f9b779b17422d0df92223018b32b4d1fa46e071723d6817e2486d003becc55f005f1b905090565b5f819050919050565b6123c18483612914565b6123cb838261292b565b8273ffffffffffffffffffffffffffffffffffffffff168473ffffffffffffffffffffffffffffffffffffffff167fdcbc1c05240f31ff3ad067ef1ee35ce4997762752e3a095284754544f4c709d7848460405161242a9291906139c8565b60405180910390a350505050565b8273ffffffffffffffffffffffffffffffffffffffff168573ffffffffffffffffffffffffffffffffffffffff161461247757612476838683611414565b5b61248183826129aa565b61248b8483612a29565b8273ffffffffffffffffffffffffffffffffffffffff168473ffffffffffffffffffffffffffffffffffffffff168673ffffffffffffffffffffffffffffffffffffffff167ffbde797d201c681b91056529119e0b02407c7bb96a4a2c75c01fc9667232c8db85856040516125019291906139c8565b60405180910390a45050505050565b5f60016002836003811115612528576125276139ef565b5b6125329190613a1c565b60ff16149050919050565b5f8115159050919050565b5f5f5f6125558686612a3f565b915091505f820361257a578381816125705761256f613724565b5b0492505050612620565b818411612599576125986125935f861460126011612a5c565b612a75565b5b5f8486880990508181118303925080820391505f855f038616905080860495508083049250600181825f0304019050808402831792505f600287600302189050808702600203810290508087026002038102905080870260020381029050808702600203810290508087026002038102905080870260020381029050808402955050505050505b9392505050565b5f6126306115c5565b5f0160089054906101000a900460ff16905090565b5f5f5f612650612a86565b90505f5f6126a88660405160240160405160208183030381529060405263313ce56760e01b6020820180517bffffffffffffffffffffffffffffffffffffffffffffffffffffffff8381831617835250505050612a8f565b50915091506126b683612ab0565b8180156126cb575060206126c8612ab7565b10155b80156126dc575060ff8016815f1c11155b6126e7575f5f6126ed565b6001815f1c5b94509450505050915091565b5f819050919050565b5f8173ffffffffffffffffffffffffffffffffffffffff163b0361275d57806040517f4c9c8ce30000000000000000000000000000000000000000000000000000000081526004016127549190612efa565b60405180910390fd5b806127897f360894a13ba1a3210667c828492db98dca3e2076cc3735a920a3ca505d382bbc5f1b6126f9565b5f015f6101000a81548173ffffffffffffffffffffffffffffffffffffffff021916908373ffffffffffffffffffffffffffffffffffffffff16021790555050565b60605f6127d88484612abe565b905080801561280e57505f6127eb612ab7565b118061280d57505f8473ffffffffffffffffffffffffffffffffffffffff163b115b5b156128235761281b612ad2565b9150506128b6565b801561286657836040517f9996b31500000000000000000000000000000000000000000000000000000000815260040161285d9190612efa565b60405180910390fd5b5f61286f612ab7565b11156128825761287d612aef565b6128b4565b6040517fd6bda27500000000000000000000000000000000000000000000000000000000815260040160405180910390fd5b505b92915050565b5f3411156128f6576040517fb398979f00000000000000000000000000000000000000000000000000000000815260040160405180910390fd5b565b5f600261290b612906612385565b6123ae565b5f015414905090565b61292761291f610aa7565b833084612afa565b5050565b5f73ffffffffffffffffffffffffffffffffffffffff168273ffffffffffffffffffffffffffffffffffffffff160361299b575f6040517fec442f050000000000000000000000000000000000000000000000000000000081526004016129929190612efa565b60405180910390fd5b6129a65f8383611e95565b5050565b5f73ffffffffffffffffffffffffffffffffffffffff168273ffffffffffffffffffffffffffffffffffffffff1603612a1a575f6040517f96c6fd1e000000000000000000000000000000000000000000000000000000008152600401612a119190612efa565b60405180910390fd5b612a25825f83611e95565b5050565b612a3b612a34610aa7565b8383612b4f565b5050565b5f5f5f198385098385029150818110828203039250509250929050565b5f612a668461253d565b82841802821890509392505050565b634e487b715f52806020526024601cfd5b5f604051905090565b5f5f5f60405f855160208701885afa92505f51915060205190509250925092565b8060405250565b5f3d905090565b5f5f5f835160208501865af4905092915050565b606060405190503d81523d5f602083013e3d602001810160405290565b6040513d5f823e3d81fd5b612b08848484846001612ba2565b612b4957836040517f5274afe7000000000000000000000000000000000000000000000000000000008152600401612b409190612efa565b60405180910390fd5b50505050565b612b5c8383836001612c13565b612b9d57826040517f5274afe7000000000000000000000000000000000000000000000000000000008152600401612b949190612efa565b60405180910390fd5b505050565b5f5f6323b872dd60e01b9050604051815f525f1960601c87166004525f1960601c86166024528460445260205f60645f5f8c5af1925060015f51148316612c00578383151615612bf4573d5f823e3d81fd5b5f883b113d1516831692505b806040525f606052505095945050505050565b5f5f63a9059cbb60e01b9050604051815f525f1960601c86166004528460245260205f60445f5f8b5af1925060015f51148316612c67578383151615612c5b573d5f823e3d81fd5b5f873b113d1516831692505b806040525050949350505050565b5f819050919050565b612c8781612c75565b82525050565b5f602082019050612ca05f830184612c7e565b92915050565b5f81519050919050565b5f82825260208201905092915050565b8281835e5f83830152505050565b5f601f19601f8301169050919050565b5f612ce882612ca6565b612cf28185612cb0565b9350612d02818560208601612cc0565b612d0b81612cce565b840191505092915050565b5f6020820190508181035f830152612d2e8184612cde565b905092915050565b5f604051905090565b5f5ffd5b5f5ffd5b612d5081612c75565b8114612d5a575f5ffd5b50565b5f81359050612d6b81612d47565b92915050565b5f60208284031215612d8657612d85612d3f565b5b5f612d9384828501612d5d565b91505092915050565b5f73ffffffffffffffffffffffffffffffffffffffff82169050919050565b5f612dc582612d9c565b9050919050565b612dd581612dbb565b8114612ddf575f5ffd5b50565b5f81359050612df081612dcc565b92915050565b5f5f60408385031215612e0c57612e0b612d3f565b5b5f612e1985828601612de2565b9250506020612e2a85828601612d5d565b9150509250929050565b5f8115159050919050565b612e4881612e34565b82525050565b5f602082019050612e615f830184612e3f565b92915050565b5f5f5f60608486031215612e7e57612e7d612d3f565b5b5f612e8b86828701612de2565b9350506020612e9c86828701612de2565b9250506040612ead86828701612d5d565b9150509250925092565b5f60ff82169050919050565b612ecc81612eb7565b82525050565b5f602082019050612ee55f830184612ec3565b92915050565b612ef481612dbb565b82525050565b5f602082019050612f0d5f830184612eeb565b92915050565b5f60208284031215612f2857612f27612d3f565b5b5f612f3584828501612de2565b91505092915050565b5f5f60408385031215612f5457612f53612d3f565b5b5f612f6185828601612de2565b9250506020612f7285828601612de2565b9150509250929050565b5f5ffd5b5f5ffd5b7f4e487b71000000000000000000000000000000000000000000000000000000005f52604160045260245ffd5b612fba82612cce565b810181811067ffffffffffffffff82111715612fd957612fd8612f84565b5b80604052505050565b5f612feb612d36565b9050612ff78282612fb1565b919050565b5f67ffffffffffffffff82111561301657613015612f84565b5b61301f82612cce565b9050602081019050919050565b828183375f83830152505050565b5f61304c61304784612ffc565b612fe2565b90508281526020810184848401111561306857613067612f80565b5b61307384828561302c565b509392505050565b5f82601f83011261308f5761308e612f7c565b5b813561309f84826020860161303a565b91505092915050565b5f5f604083850312156130be576130bd612d3f565b5b5f6130cb85828601612de2565b925050602083013567ffffffffffffffff8111156130ec576130eb612d43565b5b6130f88582860161307b565b9150509250929050565b5f819050919050565b61311481613102565b82525050565b5f60208201905061312d5f83018461310b565b92915050565b5f5f6040838503121561314957613148612d3f565b5b5f61315685828601612d5d565b925050602061316785828601612de2565b9150509250929050565b5f5f5f6060848603121561318857613187612d3f565b5b5f61319586828701612d5d565b93505060206131a686828701612de2565b92505060406131b786828701612de2565b9150509250925092565b5f815190506131cf81612d47565b92915050565b5f602082840312156131ea576131e9612d3f565b5b5f6131f7848285016131c1565b91505092915050565b7f4e487b71000000000000000000000000000000000000000000000000000000005f52602260045260245ffd5b5f600282049050600182168061324457607f821691505b60208210810361325757613256613200565b5b50919050565b7f4e487b71000000000000000000000000000000000000000000000000000000005f52601160045260245ffd5b5f61329482612eb7565b915061329f83612eb7565b9250828201905060ff8111156132b8576132b761325d565b5b92915050565b7f7a65726f206173736574000000000000000000000000000000000000000000005f82015250565b5f6132f2600a83612cb0565b91506132fd826132be565b602082019050919050565b5f6020820190508181035f83015261331f816132e6565b9050919050565b7f7a65726f206f776e6572000000000000000000000000000000000000000000005f82015250565b5f61335a600a83612cb0565b915061336582613326565b602082019050919050565b5f6020820190508181035f8301526133878161334e565b9050919050565b5f819050919050565b5f67ffffffffffffffff82169050919050565b5f819050919050565b5f6133cd6133c86133c38461338e565b6133aa565b613397565b9050919050565b6133dd816133b3565b82525050565b5f6020820190506133f65f8301846133d4565b92915050565b7f7a65726f20616d6f756e740000000000000000000000000000000000000000005f82015250565b5f613430600b83612cb0565b915061343b826133fc565b602082019050919050565b5f6020820190508181035f83015261345d81613424565b9050919050565b5f6060820190506134775f830186612eeb565b6134846020830185612eeb565b6134916040830184612c7e565b949350505050565b6134a281612e34565b81146134ac575f5ffd5b50565b5f815190506134bd81613499565b92915050565b5f602082840312156134d8576134d7612d3f565b5b5f6134e5848285016134af565b91505092915050565b5f6134f882612c75565b915061350383612c75565b925082820190508082111561351b5761351a61325d565b5b92915050565b5f8160011c9050919050565b5f5f8291508390505b6001851115613576578086048111156135525761355161325d565b5b60018516156135615780820291505b808102905061356f85613521565b9450613536565b94509492505050565b5f8261358e5760019050613649565b8161359b575f9050613649565b81600181146135b157600281146135bb576135ea565b6001915050613649565b60ff8411156135cd576135cc61325d565b5b8360020a9150848211156135e4576135e361325d565b5b50613649565b5060208310610133831016604e8410600b841016171561361f5782820a90508381111561361a5761361961325d565b5b613649565b61362c848484600161352d565b925090508184048111156136435761364261325d565b5b81810290505b9392505050565b5f61365a82612c75565b915061366583612eb7565b92506136927fffffffffffffffffffffffffffffffffffffffffffffffffffffffffffffffff848461357f565b905092915050565b5f6060820190506136ad5f830186612eeb565b6136ba6020830185612c7e565b6136c76040830184612c7e565b949350505050565b6136d881613102565b81146136e2575f5ffd5b50565b5f815190506136f3816136cf565b92915050565b5f6020828403121561370e5761370d612d3f565b5b5f61371b848285016136e5565b91505092915050565b7f4e487b71000000000000000000000000000000000000000000000000000000005f52601260045260245ffd5b5f819050815f5260205f209050919050565b5f6020601f8301049050919050565b5f82821b905092915050565b5f600883026137ad7fffffffffffffffffffffffffffffffffffffffffffffffffffffffffffffffff82613772565b6137b78683613772565b95508019841693508086168417925050509392505050565b5f6137e96137e46137df84612c75565b6133aa565b612c75565b9050919050565b5f819050919050565b613802836137cf565b61381661380e826137f0565b84845461377e565b825550505050565b5f5f905090565b61382d61381e565b6138388184846137f9565b505050565b5f5b8281101561385e576138535f828401613825565b60018101905061383f565b505050565b601f8211156138b157828211156138b05761387d81613751565b61388683613763565b61388f85613763565b602086101561389c575f90505b8083016138ab8284038261383d565b505050505b5b505050565b5f82821c905092915050565b5f6138d15f19846008026138b6565b1980831691505092915050565b5f6138e983836138c2565b9150826002028217905092915050565b61390282612ca6565b67ffffffffffffffff81111561391b5761391a612f84565b5b613925825461322d565b613930828285613863565b5f60209050601f831160018114613961575f841561394f578287015190505b61395985826138de565b8655506139c0565b601f19841661396f86613751565b5f5b8281101561399657848901518255600182019150602085019450602081019050613971565b868310156139b357848901516139af601f8916826138c2565b8355505b6001600288020188555050505b505050505050565b5f6040820190506139db5f830185612c7e565b6139e86020830184612c7e565b9392505050565b7f4e487b71000000000000000000000000000000000000000000000000000000005f52602160045260245ffd5b5f613a2682612eb7565b9150613a3183612eb7565b925082613a4157613a40613724565b5b82820690509291505056fea2646970667358221220a9dc55f8168c086f14fc4392a880c4d2875107c01a1872b633dbf50ae266b98b64736f6c63430008210033","linkReferences":{}},"methodIdentifiers":{"UPGRADE_INTERFACE_VERSION()":"ad3cb1cc","allowance(address,address)":"dd62ed3e","approve(address,uint256)":"095ea7b3","asset()":"38d52e0f","balanceOf(address)":"70a08231","convertToAssets(uint256)":"07a2d13a","convertToShares(uint256)":"c6e6f592","decimals()":"313ce567","deposit(uint256,address)":"6e553f65","harvest(uint256)":"ddc63262","initialize(address,address)":"485cc955","maxDeposit(address)":"402d267d","maxMint(address)":"c63d75b6","maxRedeem(address)":"d905777e","maxWithdraw(address)":"ce96cb77","mint(uint256,address)":"94bf804d","name()":"06fdde03","owner()":"8da5cb5b","previewDeposit(uint256)":"ef8b30f7","previewMint(uint256)":"b3d7f6b9","previewRedeem(uint256)":"4cdad506","previewWithdraw(uint256)":"0a28a477","proxiableUUID()":"52d1902d","redeem(uint256,address,address)":"ba087652","renounceOwnership()":"715018a6","symbol()":"95d89b41","totalAssets()":"01e1d114","totalSupply()":"18160ddd","totalYieldHarvested()":"22a6619e","transfer(address,uint256)":"a9059cbb","transferFrom(address,address,uint256)":"23b872dd","transferOwnership(address)":"f2fde38b","upgradeToAndCall(address,bytes)":"4f1ef286","withdraw(uint256,address,address)":"b460af94"},"id":105}