{"abi":[{"type":"constructor","inputs":[],"stateMutability":"nonpayable"},{"type":"function","name":"LIQUIDATION_BONUS","inputs":[],"outputs":[{"name":"","type":"uint256","internalType":"uint256"}],"stateMutability":"view"},{"type":"function","name":"LIQUIDATION_THRESHOLD","inputs":[],"outputs":[{"name":"","type":"uint256","internalType":"uint256"}],"stateMutability":"view"},{"type":"function","name":"LTV","inputs":[],"outputs":[{"name":"","type":"uint256","internalType":"uint256"}],"stateMutability":"view"},{"type":"function","name":"PRECISION","inputs":[],"outputs":[{"name":"","type":"uint256","internalType":"uint256"}],"stateMutability":"view"},{"type":"function","name":"borrow","inputs":[{"name":"token","type":"address","internalType":"address"},{"name":"amount","type":"uint256","internalType":"uint256"}],"outputs":[],"stateMutability":"nonpayable"},{"type":"function","name":"collateralBalance","inputs":[{"name":"","type":"address","internalType":"address"},{"name":"","type":"address","internalType":"address"}],"outputs":[{"name":"","type":"uint256","internalType":"uint256"}],"stateMutability":"view"},{"type":"function","name":"collateralTokens","inputs":[{"name":"","type":"uint256","internalType":"uint256"}],"outputs":[{"name":"","type":"address","internalType":"address"}],"stateMutability":"view"},{"type":"function","name":"debtBalance","inputs":[{"name":"","type":"address","internalType":"address"},{"name":"","type":"address","internalType":"address"}],"outputs":[{"name":"","type":"uint256","internalType":"uint256"}],"stateMutability":"view"},{"type":"function","name":"debtTokens","inputs":[{"name":"","type":"uint256","internalType":"uint256"}],"outputs":[{"name":"","type":"address","internalType":"address"}],"stateMutability":"view"},{"type":"function","name":"deposit","inputs":[{"name":"token","type":"address","internalType":"address"},{"name":"amount","type":"uint256","internalType":"uint256"}],"outputs":[],"stateMutability":"nonpayable"},{"type":"function","name":"getBorrowableValue","inputs":[{"name":"user","type":"address","internalType":"address"}],"outputs":[{"name":"","type":"uint256","internalType":"uint256"}],"stateMutability":"view"},{"type":"function","name":"getCollateralValue","inputs":[{"name":"user","type":"address","internalType":"address"}],"outputs":[{"name":"value","type":"uint256","internalType":"uint256"}],"stateMutability":"view"},{"type":"function","name":"getDebtValue","inputs":[{"name":"user","type":"address","internalType":"address"}],"outputs":[{"name":"value","type":"uint256","internalType":"uint256"}],"stateMutability":"view"},{"type":"function","name":"getHealthFactor","inputs":[{"name":"user","type":"address","internalType":"address"}],"outputs":[{"name":"","type":"uint256","internalType":"uint256"}],"stateMutability":"view"},{"type":"function","name":"liquidate","inputs":[{"name":"user","type":"address","internalType":"address"},{"name":"debtToken","type":"address","internalType":"address"},{"name":"collateralToken","type":"address","internalType":"address"},{"name":"repayAmount","type":"uint256","internalType":"uint256"}],"outputs":[],"stateMutability":"nonpayable"},{"type":"function","name":"owner","inputs":[],"outputs":[{"name":"","type":"address","internalType":"address"}],"stateMutability":"view"},{"type":"function","name":"prices","inputs":[{"name":"","type":"address","internalType":"address"}],"outputs":[{"name":"","type":"uint256","internalType":"uint256"}],"stateMutability":"view"},{"type":"function","name":"renounceOwnership","inputs":[],"outputs":[],"stateMutability":"nonpayable"},{"type":"function","name":"repay","inputs":[{"name":"token","type":"address","internalType":"address"},{"name":"amount","type":"uint256","internalType":"uint256"}],"outputs":[],"stateMutability":"nonpayable"},{"type":"function","name":"setPrice","inputs":[{"name":"token","type":"address","internalType":"address"},{"name":"price","type":"uint256","internalType":"uint256"}],"outputs":[],"stateMutability":"nonpayable"},{"type":"function","name":"supportToken","inputs":[{"name":"token","type":"address","internalType":"address"},{"name":"price","type":"uint256","internalType":"uint256"}],"outputs":[],"stateMutability":"nonpayable"},{"type":"function","name":"supportedTokens","inputs":[{"name":"","type":"address","internalType":"address"}],"outputs":[{"name":"","type":"bool","internalType":"bool"}],"stateMutability":"view"},{"type":"function","name":"transferOwnership","inputs":[{"name":"newOwner","type":"address","internalType":"address"}],"outputs":[],"stateMutability":"nonpayable"},{"type":"function","name":"withdraw","inputs":[{"name":"token","type":"address","internalType":"address"},{"name":"amount","type":"uint256","internalType":"uint256"}],"outputs":[],"stateMutability":"nonpayable"},{"type":"event","name":"Borrowed","inputs":[{"name":"user","type":"address","indexed":true,"internalType":"address"},{"name":"token","type":"address","indexed":true,"internalType":"address"},{"name":"amount","type":"uint256","indexed":false,"internalType":"uint256"}],"anonymous":false},{"type":"event","name":"Deposited","inputs":[{"name":"user","type":"address","indexed":true,"internalType":"address"},{"name":"token","type":"address","indexed":true,"internalType":"address"},{"name":"amount","type":"uint256","indexed":false,"internalType":"uint256"}],"anonymous":false},{"type":"event","name":"Liquidated","inputs":[{"name":"liquidator","type":"address","indexed":true,"internalType":"address"},{"name":"user","type":"address","indexed":true,"internalType":"address"},{"name":"debtToken","type":"address","indexed":false,"internalType":"address"},{"name":"collateralToken","type":"address","indexed":false,"internalType":"address"},{"name":"repaid","type":"uint256","indexed":false,"internalType":"uint256"}],"anonymous":false},{"type":"event","name":"OwnershipTransferred","inputs":[{"name":"previousOwner","type":"address","indexed":true,"internalType":"address"},{"name":"newOwner","type":"address","indexed":true,"internalType":"address"}],"anonymous":false},{"type":"event","name":"Repaid","inputs":[{"name":"user","type":"address","indexed":true,"internalType":"address"},{"name":"token","type":"address","indexed":true,"internalType":"address"},{"name":"amount","type":"uint256","indexed":false,"internalType":"uint256"}],"anonymous":false},{"type":"event","name":"TokenSupported","inputs":[{"name":"token","type":"address","indexed":false,"internalType":"address"},{"name":"price","type":"uint256","indexed":false,"internalType":"uint256"}],"anonymous":false},{"type":"event","name":"Withdrawn","inputs":[{"name":"user","type":"address","indexed":true,"internalType":"address"},{"name":"token","type":"address","indexed":true,"internalType":"address"},{"name":"amount","type":"uint256","indexed":false,"internalType":"uint256"}],"anonymous":false},{"type":"error","name":"HealthyPosition","inputs":[]},{"type":"error","name":"InsufficientCollateral","inputs":[]},{"type":"error","name":"InsufficientLiquidity","inputs":[]},{"type":"error","name":"OwnableInvalidOwner","inputs":[{"name":"owner","type":"address","internalType":"address"}]},{"type":"error","name":"OwnableUnauthorizedAccount","inputs":[{"name":"account","type":"address","internalType":"address"}]},{"type":"error","name":"ReentrancyGuardReentrantCall","inputs":[]},{"type":"error","name":"SafeERC20FailedOperation","inputs":[{"name":"token","type":"address","internalType":"address"}]},{"type":"error","name":"UnsafePosition","inputs":[]},{"type":"error","name":"UnsupportedToken","inputs":[]},{"type":"error","name":"ZeroAmount","inputs":[]}],"bytecode":{"object":"0x608060405234801561000f575f5ffd5b5033600161002f6100246100ba60201b60201c565b6100e360201b60201c565b5f01819055505f73ffffffffffffffffffffffffffffffffffffffff168173ffffffffffffffffffffffffffffffffffffffff16036100a5575f6040517f1e4fbdf700000000000000000000000000000000000000000000000000000000815260040161009c91906101ec565b60405180910390fd5b6100b4816100ec60201b60201c565b50610205565b5f7f9b779b17422d0df92223018b32b4d1fa46e071723d6817e2486d003becc55f005f1b905090565b5f819050919050565b5f5f5f9054906101000a900473ffffffffffffffffffffffffffffffffffffffff169050815f5f6101000a81548173ffffffffffffffffffffffffffffffffffffffff021916908373ffffffffffffffffffffffffffffffffffffffff1602179055508173ffffffffffffffffffffffffffffffffffffffff168173ffffffffffffffffffffffffffffffffffffffff167f8be0079c531659141344cd1fd0a4f28419497f9722a3daafe3b4186f6b6457e060405160405180910390a35050565b5f73ffffffffffffffffffffffffffffffffffffffff82169050919050565b5f6101d6826101ad565b9050919050565b6101e6816101cc565b82525050565b5f6020820190506101ff5f8301846101dd565b92915050565b612755806102125f395ff3fe608060405234801561000f575f5ffd5b5060043610610155575f3560e01c806397904e42116100c1578063e7602b9d1161007a578063e7602b9d146103c1578063ebf5a908146103f1578063f2fde38b14610421578063f3fef3a31461043d578063f48f3b4014610459578063fe6bcd7c1461048957610155565b806397904e42146102db578063aab3f8681461030b578063aaf5eb6814610327578063ad8f240e14610345578063cfed246b14610375578063d692f4c5146103a557610155565b806362965d8e1161011357806362965d8e1461021757806368c4ac2614610235578063715018a6146102655780638da5cb5b1461026f5780638e744ea81461028d57806390a8ae9b146102bd57610155565b8062e4768b14610159578063172c48c71461017557806322867d78146101a55780633574d4c4146101c157806347e7ef24146101df5780634b8a3529146101fb575b5f5ffd5b610173600480360381019061016e9190612225565b6104b9565b005b61018f600480360381019061018a9190612263565b6105d2565b60405161019c919061229d565b60405180910390f35b6101bf60048036038101906101ba9190612225565b61060d565b005b6101c961088a565b6040516101d691906122c5565b60405180910390f35b6101f960048036038101906101f49190612225565b610896565b005b61021560048036038101906102109190612225565b610a83565b005b61021f610d5e565b60405161022c91906122c5565b60405180910390f35b61024f600480360381019061024a91906122de565b610d6a565b60405161025c9190612323565b60405180910390f35b61026d610d87565b005b610277610d9a565b604051610284919061229d565b60405180910390f35b6102a760048036038101906102a291906122de565b610dc1565b6040516102b491906122c5565b60405180910390f35b6102c5610e2d565b6040516102d291906122c5565b60405180910390f35b6102f560048036038101906102f091906122de565b610e39565b60405161030291906122c5565b60405180910390f35b6103256004803603810190610320919061233c565b610f80565b005b61032f61149e565b60405161033c91906122c5565b60405180910390f35b61035f600480360381019061035a91906123a0565b6114aa565b60405161036c91906122c5565b60405180910390f35b61038f600480360381019061038a91906122de565b6114ca565b60405161039c91906122c5565b60405180910390f35b6103bf60048036038101906103ba9190612225565b6114df565b005b6103db60048036038101906103d691906123a0565b611779565b6040516103e891906122c5565b60405180910390f35b61040b600480360381019061040691906122de565b611799565b60405161041891906122c5565b60405180910390f35b61043b600480360381019061043691906122de565b6118e0565b005b61045760048036038101906104529190612225565b611964565b005b610473600480360381019061046e9190612263565b611c40565b604051610480919061229d565b60405180910390f35b6104a3600480360381019061049e91906122de565b611c7b565b6040516104b091906122c5565b60405180910390f35b6104c1611ced565b60015f8373ffffffffffffffffffffffffffffffffffffffff1673ffffffffffffffffffffffffffffffffffffffff1681526020019081526020015f205f9054906101000a900460ff1661054a576040517f08c379a000000000000000000000000000000000000000000000000000000000815260040161054190612438565b60405180910390fd5b5f811161058c576040517f08c379a0000000000000000000000000000000000000000000000000000000008152600401610583906124a0565b60405180910390fd5b8060025f8473ffffffffffffffffffffffffffffffffffffffff1673ffffffffffffffffffffffffffffffffffffffff1681526020019081526020015f20819055505050565b600581815481106105e1575f80fd5b905f5260205f20015f915054906101000a900473ffffffffffffffffffffffffffffffffffffffff1681565b610615611d74565b60015f8373ffffffffffffffffffffffffffffffffffffffff1673ffffffffffffffffffffffffffffffffffffffff1681526020019081526020015f205f9054906101000a900460ff16610695576040517f6a17288200000000000000000000000000000000000000000000000000000000815260040160405180910390fd5b5f81036106ce576040517f1f2a200500000000000000000000000000000000000000000000000000000000815260040160405180910390fd5b5f60045f3373ffffffffffffffffffffffffffffffffffffffff1673ffffffffffffffffffffffffffffffffffffffff1681526020019081526020015f205f8473ffffffffffffffffffffffffffffffffffffffff1673ffffffffffffffffffffffffffffffffffffffff1681526020019081526020015f205490505f818311610758578261075a565b815b90508060045f3373ffffffffffffffffffffffffffffffffffffffff1673ffffffffffffffffffffffffffffffffffffffff1681526020019081526020015f205f8673ffffffffffffffffffffffffffffffffffffffff1673ffffffffffffffffffffffffffffffffffffffff1681526020019081526020015f205f8282546107e391906124eb565b925050819055506108173330838773ffffffffffffffffffffffffffffffffffffffff16611d96909392919063ffffffff16565b8373ffffffffffffffffffffffffffffffffffffffff163373ffffffffffffffffffffffffffffffffffffffff167f0a3fbbea70e93f2daafa3102f5c9a1b8315e6d7a1e43e4bc020bc1162327470a8360405161087491906122c5565b60405180910390a35050610886611deb565b5050565b670e92596fd629000081565b61089e611d74565b60015f8373ffffffffffffffffffffffffffffffffffffffff1673ffffffffffffffffffffffffffffffffffffffff1681526020019081526020015f205f9054906101000a900460ff1661091e576040517f6a17288200000000000000000000000000000000000000000000000000000000815260040160405180910390fd5b5f8103610957576040517f1f2a200500000000000000000000000000000000000000000000000000000000815260040160405180910390fd5b8060035f3373ffffffffffffffffffffffffffffffffffffffff1673ffffffffffffffffffffffffffffffffffffffff1681526020019081526020015f205f8473ffffffffffffffffffffffffffffffffffffffff1673ffffffffffffffffffffffffffffffffffffffff1681526020019081526020015f205f8282546109de919061251e565b92505081905550610a123330838573ffffffffffffffffffffffffffffffffffffffff16611d96909392919063ffffffff16565b8173ffffffffffffffffffffffffffffffffffffffff163373ffffffffffffffffffffffffffffffffffffffff167f8752a472e571a816aea92eec8dae9baf628e840f4929fbcc2d155e6233ff68a783604051610a6f91906122c5565b60405180910390a3610a7f611deb565b5050565b610a8b611d74565b60015f8373ffffffffffffffffffffffffffffffffffffffff1673ffffffffffffffffffffffffffffffffffffffff1681526020019081526020015f205f9054906101000a900460ff16610b0b576040517f6a17288200000000000000000000000000000000000000000000000000000000815260040160405180910390fd5b5f8103610b44576040517f1f2a200500000000000000000000000000000000000000000000000000000000815260040160405180910390fd5b808273ffffffffffffffffffffffffffffffffffffffff166370a08231306040518263ffffffff1660e01b8152600401610b7e919061229d565b602060405180830381865afa158015610b99573d5f5f3e3d5ffd5b505050506040513d601f19601f82011682018060405250810190610bbd9190612565565b1015610bf5576040517fbb55fd2700000000000000000000000000000000000000000000000000000000815260040160405180910390fd5b8060045f3373ffffffffffffffffffffffffffffffffffffffff1673ffffffffffffffffffffffffffffffffffffffff1681526020019081526020015f205f8473ffffffffffffffffffffffffffffffffffffffff1673ffffffffffffffffffffffffffffffffffffffff1681526020019081526020015f205f828254610c7c919061251e565b92505081905550610c8c33611e05565b610cc2576040517f2671118000000000000000000000000000000000000000000000000000000000815260040160405180910390fd5b610ced33828473ffffffffffffffffffffffffffffffffffffffff16611e569092919063ffffffff16565b8173ffffffffffffffffffffffffffffffffffffffff163373ffffffffffffffffffffffffffffffffffffffff167f3fc499aeb0bb1cb58b6de8b02b3f86f4e7394e9690bef0110e32ced8a563104583604051610d4a91906122c5565b60405180910390a3610d5a611deb565b5050565b670a688906bd8b000081565b6001602052805f5260405f205f915054906101000a900460ff1681565b610d8f611ced565b610d985f611ea9565b565b5f5f5f9054906101000a900473ffffffffffffffffffffffffffffffffffffffff16905090565b5f5f610dcc83610e39565b90505f670de0b6b3a7640000670a688906bd8b000083610dec9190612590565b610df691906125fe565b90505f610e0285611799565b9050808211610e16575f9350505050610e28565b8082610e2291906124eb565b93505050505b919050565b670b1a2bc2ec50000081565b5f5f5f90505b600580549050811015610f7a575f60058281548110610e6157610e6061262e565b5b905f5260205f20015f9054906101000a900473ffffffffffffffffffffffffffffffffffffffff169050670de0b6b3a764000060025f8373ffffffffffffffffffffffffffffffffffffffff1673ffffffffffffffffffffffffffffffffffffffff1681526020019081526020015f205460035f8773ffffffffffffffffffffffffffffffffffffffff1673ffffffffffffffffffffffffffffffffffffffff1681526020019081526020015f205f8473ffffffffffffffffffffffffffffffffffffffff1673ffffffffffffffffffffffffffffffffffffffff1681526020019081526020015f2054610f559190612590565b610f5f91906125fe565b83610f6a919061251e565b9250508080600101915050610e3f565b50919050565b610f88611d74565b610f928383611f6a565b610fc8576040517f6a17288200000000000000000000000000000000000000000000000000000000815260040160405180910390fd5b5f8103611001576040517f1f2a200500000000000000000000000000000000000000000000000000000000815260040160405180910390fd5b61100a8461200f565b15611041576040517f6593fd5200000000000000000000000000000000000000000000000000000000815260040160405180910390fd5b5f60045f8673ffffffffffffffffffffffffffffffffffffffff1673ffffffffffffffffffffffffffffffffffffffff1681526020019081526020015f205f8573ffffffffffffffffffffffffffffffffffffffff1673ffffffffffffffffffffffffffffffffffffffff1681526020019081526020015f205490505f8183116110cb57826110cd565b815b90505f670de0b6b3a764000060025f8873ffffffffffffffffffffffffffffffffffffffff1673ffffffffffffffffffffffffffffffffffffffff1681526020019081526020015f2054836111229190612590565b61112c91906125fe565b90505f670de0b6b3a764000060025f8873ffffffffffffffffffffffffffffffffffffffff1673ffffffffffffffffffffffffffffffffffffffff1681526020019081526020015f2054670de0b6b3a7640000670e92596fd6290000856111939190612590565b61119d9190612590565b6111a791906125fe565b6111b191906125fe565b905060035f8973ffffffffffffffffffffffffffffffffffffffff1673ffffffffffffffffffffffffffffffffffffffff1681526020019081526020015f205f8773ffffffffffffffffffffffffffffffffffffffff1673ffffffffffffffffffffffffffffffffffffffff1681526020019081526020015f20548111156112af5760035f8973ffffffffffffffffffffffffffffffffffffffff1673ffffffffffffffffffffffffffffffffffffffff1681526020019081526020015f205f8773ffffffffffffffffffffffffffffffffffffffff1673ffffffffffffffffffffffffffffffffffffffff1681526020019081526020015f205490505b8260045f8a73ffffffffffffffffffffffffffffffffffffffff1673ffffffffffffffffffffffffffffffffffffffff1681526020019081526020015f205f8973ffffffffffffffffffffffffffffffffffffffff1673ffffffffffffffffffffffffffffffffffffffff1681526020019081526020015f205f82825461133691906124eb565b925050819055508060035f8a73ffffffffffffffffffffffffffffffffffffffff1673ffffffffffffffffffffffffffffffffffffffff1681526020019081526020015f205f8873ffffffffffffffffffffffffffffffffffffffff1673ffffffffffffffffffffffffffffffffffffffff1681526020019081526020015f205f8282546113c491906124eb565b925050819055506113f83330858a73ffffffffffffffffffffffffffffffffffffffff16611d96909392919063ffffffff16565b61142333828873ffffffffffffffffffffffffffffffffffffffff16611e569092919063ffffffff16565b8773ffffffffffffffffffffffffffffffffffffffff163373ffffffffffffffffffffffffffffffffffffffff167f25670fc41a1e8df13bfa2ca74015ef453b80ad1e1e17fda07e38ae96621488038989876040516114849392919061265b565b60405180910390a350505050611498611deb565b50505050565b670de0b6b3a764000081565b6004602052815f5260405f20602052805f5260405f205f91509150505481565b6002602052805f5260405f205f915090505481565b6114e7611ced565b5f73ffffffffffffffffffffffffffffffffffffffff168273ffffffffffffffffffffffffffffffffffffffff1603611555576040517f08c379a000000000000000000000000000000000000000000000000000000000815260040161154c906126da565b60405180910390fd5b5f8111611597576040517f08c379a000000000000000000000000000000000000000000000000000000000815260040161158e906124a0565b60405180910390fd5b60015f8373ffffffffffffffffffffffffffffffffffffffff1673ffffffffffffffffffffffffffffffffffffffff1681526020019081526020015f205f9054906101000a900460ff166116fa576001805f8473ffffffffffffffffffffffffffffffffffffffff1673ffffffffffffffffffffffffffffffffffffffff1681526020019081526020015f205f6101000a81548160ff021916908315150217905550600582908060018154018082558091505060019003905f5260205f20015f9091909190916101000a81548173ffffffffffffffffffffffffffffffffffffffff021916908373ffffffffffffffffffffffffffffffffffffffff160217905550600682908060018154018082558091505060019003905f5260205f20015f9091909190916101000a81548173ffffffffffffffffffffffffffffffffffffffff021916908373ffffffffffffffffffffffffffffffffffffffff1602179055505b8060025f8473ffffffffffffffffffffffffffffffffffffffff1673ffffffffffffffffffffffffffffffffffffffff1681526020019081526020015f20819055507feffc3a262e1eabb1c005a685af9d452f7a72612365938681ba234aa79a15e7e8828260405161176d9291906126f8565b60405180910390a15050565b6003602052815f5260405f20602052805f5260405f205f91509150505481565b5f5f5f90505b6006805490508110156118da575f600682815481106117c1576117c061262e565b5b905f5260205f20015f9054906101000a900473ffffffffffffffffffffffffffffffffffffffff169050670de0b6b3a764000060025f8373ffffffffffffffffffffffffffffffffffffffff1673ffffffffffffffffffffffffffffffffffffffff1681526020019081526020015f205460045f8773ffffffffffffffffffffffffffffffffffffffff1673ffffffffffffffffffffffffffffffffffffffff1681526020019081526020015f205f8473ffffffffffffffffffffffffffffffffffffffff1673ffffffffffffffffffffffffffffffffffffffff1681526020019081526020015f20546118b59190612590565b6118bf91906125fe565b836118ca919061251e565b925050808060010191505061179f565b50919050565b6118e8611ced565b5f73ffffffffffffffffffffffffffffffffffffffff168173ffffffffffffffffffffffffffffffffffffffff1603611958575f6040517f1e4fbdf700000000000000000000000000000000000000000000000000000000815260040161194f919061229d565b60405180910390fd5b61196181611ea9565b50565b61196c611d74565b60015f8373ffffffffffffffffffffffffffffffffffffffff1673ffffffffffffffffffffffffffffffffffffffff1681526020019081526020015f205f9054906101000a900460ff166119ec576040517f6a17288200000000000000000000000000000000000000000000000000000000815260040160405180910390fd5b5f8103611a25576040517f1f2a200500000000000000000000000000000000000000000000000000000000815260040160405180910390fd5b8060035f3373ffffffffffffffffffffffffffffffffffffffff1673ffffffffffffffffffffffffffffffffffffffff1681526020019081526020015f205f8473ffffffffffffffffffffffffffffffffffffffff1673ffffffffffffffffffffffffffffffffffffffff1681526020019081526020015f20541015611ad7576040517f3a23d82500000000000000000000000000000000000000000000000000000000815260040160405180910390fd5b8060035f3373ffffffffffffffffffffffffffffffffffffffff1673ffffffffffffffffffffffffffffffffffffffff1681526020019081526020015f205f8473ffffffffffffffffffffffffffffffffffffffff1673ffffffffffffffffffffffffffffffffffffffff1681526020019081526020015f205f828254611b5e91906124eb565b92505081905550611b6e3361200f565b611ba4576040517f2671118000000000000000000000000000000000000000000000000000000000815260040160405180910390fd5b611bcf33828473ffffffffffffffffffffffffffffffffffffffff16611e569092919063ffffffff16565b8173ffffffffffffffffffffffffffffffffffffffff163373ffffffffffffffffffffffffffffffffffffffff167fd1c19fbcd4551a5edfb66d43d2e337c04837afda3482b42bdf569a8fccdae5fb83604051611c2c91906122c5565b60405180910390a3611c3c611deb565b5050565b60068181548110611c4f575f80fd5b905f5260205f20015f915054906101000a900473ffffffffffffffffffffffffffffffffffffffff1681565b5f5f611c8683611799565b90505f8103611cb8577fffffffffffffffffffffffffffffffffffffffffffffffffffffffffffffffff915050611ce8565b5f611cc284610e39565b905081670b1a2bc2ec50000082611cd99190612590565b611ce391906125fe565b925050505b919050565b611cf561202b565b73ffffffffffffffffffffffffffffffffffffffff16611d13610d9a565b73ffffffffffffffffffffffffffffffffffffffff1614611d7257611d3661202b565b6040517f118cdaa7000000000000000000000000000000000000000000000000000000008152600401611d69919061229d565b60405180910390fd5b565b611d7c612032565b6002611d8e611d89612073565b61209c565b5f0181905550565b611da48484848460016120a5565b611de557836040517f5274afe7000000000000000000000000000000000000000000000000000000008152600401611ddc919061229d565b60405180910390fd5b50505050565b6001611dfd611df8612073565b61209c565b5f0181905550565b5f5f611e1083611799565b90505f611e1c84610e39565b90505f670de0b6b3a7640000670a688906bd8b000083611e3c9190612590565b611e4691906125fe565b9050808311159350505050919050565b611e638383836001612116565b611ea457826040517f5274afe7000000000000000000000000000000000000000000000000000000008152600401611e9b919061229d565b60405180910390fd5b505050565b5f5f5f9054906101000a900473ffffffffffffffffffffffffffffffffffffffff169050815f5f6101000a81548173ffffffffffffffffffffffffffffffffffffffff021916908373ffffffffffffffffffffffffffffffffffffffff1602179055508173ffffffffffffffffffffffffffffffffffffffff168173ffffffffffffffffffffffffffffffffffffffff167f8be0079c531659141344cd1fd0a4f28419497f9722a3daafe3b4186f6b6457e060405160405180910390a35050565b5f60015f8473ffffffffffffffffffffffffffffffffffffffff1673ffffffffffffffffffffffffffffffffffffffff1681526020019081526020015f205f9054906101000a900460ff168015612007575060015f8373ffffffffffffffffffffffffffffffffffffffff1673ffffffffffffffffffffffffffffffffffffffff1681526020019081526020015f205f9054906101000a900460ff165b905092915050565b5f670de0b6b3a764000061202283611c7b565b10159050919050565b5f33905090565b61203a612178565b15612071576040517f3ee5aeb500000000000000000000000000000000000000000000000000000000815260040160405180910390fd5b565b5f7f9b779b17422d0df92223018b32b4d1fa46e071723d6817e2486d003becc55f005f1b905090565b5f819050919050565b5f5f6323b872dd60e01b9050604051815f525f1960601c87166004525f1960601c86166024528460445260205f60645f5f8c5af1925060015f511483166121035783831516156120f7573d5f823e3d81fd5b5f883b113d1516831692505b806040525f606052505095945050505050565b5f5f63a9059cbb60e01b9050604051815f525f1960601c86166004528460245260205f60445f5f8b5af1925060015f5114831661216a57838315161561215e573d5f823e3d81fd5b5f873b113d1516831692505b806040525050949350505050565b5f600261218b612186612073565b61209c565b5f015414905090565b5f5ffd5b5f73ffffffffffffffffffffffffffffffffffffffff82169050919050565b5f6121c182612198565b9050919050565b6121d1816121b7565b81146121db575f5ffd5b50565b5f813590506121ec816121c8565b92915050565b5f819050919050565b612204816121f2565b811461220e575f5ffd5b50565b5f8135905061221f816121fb565b92915050565b5f5f6040838503121561223b5761223a612194565b5b5f612248858286016121de565b925050602061225985828601612211565b9150509250929050565b5f6020828403121561227857612277612194565b5b5f61228584828501612211565b91505092915050565b612297816121b7565b82525050565b5f6020820190506122b05f83018461228e565b92915050565b6122bf816121f2565b82525050565b5f6020820190506122d85f8301846122b6565b92915050565b5f602082840312156122f3576122f2612194565b5b5f612300848285016121de565b91505092915050565b5f8115159050919050565b61231d81612309565b82525050565b5f6020820190506123365f830184612314565b92915050565b5f5f5f5f6080858703121561235457612353612194565b5b5f612361878288016121de565b9450506020612372878288016121de565b9350506040612383878288016121de565b925050606061239487828801612211565b91505092959194509250565b5f5f604083850312156123b6576123b5612194565b5b5f6123c3858286016121de565b92505060206123d4858286016121de565b9150509250929050565b5f82825260208201905092915050565b7f6e6f7420737570706f72746564000000000000000000000000000000000000005f82015250565b5f612422600d836123de565b915061242d826123ee565b602082019050919050565b5f6020820190508181035f83015261244f81612416565b9050919050565b7f7a65726f207072696365000000000000000000000000000000000000000000005f82015250565b5f61248a600a836123de565b915061249582612456565b602082019050919050565b5f6020820190508181035f8301526124b78161247e565b9050919050565b7f4e487b71000000000000000000000000000000000000000000000000000000005f52601160045260245ffd5b5f6124f5826121f2565b9150612500836121f2565b9250828203905081811115612518576125176124be565b5b92915050565b5f612528826121f2565b9150612533836121f2565b925082820190508082111561254b5761254a6124be565b5b92915050565b5f8151905061255f816121fb565b92915050565b5f6020828403121561257a57612579612194565b5b5f61258784828501612551565b91505092915050565b5f61259a826121f2565b91506125a5836121f2565b92508282026125b3816121f2565b915082820484148315176125ca576125c96124be565b5b5092915050565b7f4e487b71000000000000000000000000000000000000000000000000000000005f52601260045260245ffd5b5f612608826121f2565b9150612613836121f2565b925082612623576126226125d1565b5b828204905092915050565b7f4e487b71000000000000000000000000000000000000000000000000000000005f52603260045260245ffd5b5f60608201905061266e5f83018661228e565b61267b602083018561228e565b61268860408301846122b6565b949350505050565b7f7a65726f20746f6b656e000000000000000000000000000000000000000000005f82015250565b5f6126c4600a836123de565b91506126cf82612690565b602082019050919050565b5f6020820190508181035f8301526126f1816126b8565b9050919050565b5f60408201905061270b5f83018561228e565b61271860208301846122b6565b939250505056fea2646970667358221220f806eb47ac78db9061055ba53671c244ea4a03fd83ddf91f34e648223befa82164736f6c63430008210033","linkReferences":{}},"methodIdentifiers":{"LIQUIDATION_BONUS()":"3574d4c4","LIQUIDATION_THRESHOLD()":"90a8ae9b","LTV()":"62965d8e","PRECISION()":"aaf5eb68","borrow(address,uint256)":"4b8a3529","collateralBalance(address,address)":"e7602b9d","collateralTokens(uint256)":"172c48c7","debtBalance(address,address)":"ad8f240e","debtTokens(uint256)":"f48f3b40","deposit(address,uint256)":"47e7ef24","getBorrowableValue(address)":"8e744ea8","getCollateralValue(address)":"97904e42","getDebtValue(address)":"ebf5a908","getHealthFactor(address)":"fe6bcd7c","liquidate(address,address,address,uint256)":"aab3f868","owner()":"8da5cb5b","prices(address)":"cfed246b","renounceOwnership()":"715018a6","repay(address,uint256)":"22867d78","setPrice(address,uint256)":"00e4768b","supportToken(address,uint256)":"d692f4c5","supportedTokens(address)":"68c4ac26","transferOwnership(address)":"f2fde38b","withdraw(address,uint256)":"f3fef3a3"},"id":95}