{"abi":[{"type":"constructor","inputs":[{"name":"_token","type":"address","internalType":"contract IVotes"},{"name":"_timelock","type":"address","internalType":"contract TimelockController"},{"name":"_initialVotingDelay","type":"uint48","internalType":"uint48"},{"name":"_initialVotingPeriod","type":"uint32","internalType":"uint32"},{"name":"_initialProposalThreshold","type":"uint256","internalType":"uint256"},{"name":"_quorumNumeratorValue","type":"uint256","internalType":"uint256"}],"stateMutability":"nonpayable"},{"type":"receive","stateMutability":"payable"},{"type":"function","name":"BALLOT_TYPEHASH","inputs":[],"outputs":[{"name":"","type":"bytes32","internalType":"bytes32"}],"stateMutability":"view"},{"type":"function","name":"CLOCK_MODE","inputs":[],"outputs":[{"name":"","type":"string","internalType":"string"}],"stateMutability":"view"},{"type":"function","name":"COUNTING_MODE","inputs":[],"outputs":[{"name":"","type":"string","internalType":"string"}],"stateMutability":"pure"},{"type":"function","name":"EXTENDED_BALLOT_TYPEHASH","inputs":[],"outputs":[{"name":"","type":"bytes32","internalType":"bytes32"}],"stateMutability":"view"},{"type":"function","name":"cancel","inputs":[{"name":"targets","type":"address[]","internalType":"address[]"},{"name":"values","type":"uint256[]","internalType":"uint256[]"},{"name":"calldatas","type":"bytes[]","internalType":"bytes[]"},{"name":"descriptionHash","type":"bytes32","internalType":"bytes32"}],"outputs":[{"name":"","type":"uint256","internalType":"uint256"}],"stateMutability":"nonpayable"},{"type":"function","name":"castVote","inputs":[{"name":"proposalId","type":"uint256","internalType":"uint256"},{"name":"support","type":"uint8","internalType":"uint8"}],"outputs":[{"name":"","type":"uint256","internalType":"uint256"}],"stateMutability":"nonpayable"},{"type":"function","name":"castVoteBySig","inputs":[{"name":"proposalId","type":"uint256","internalType":"uint256"},{"name":"support","type":"uint8","internalType":"uint8"},{"name":"voter","type":"address","internalType":"address"},{"name":"signature","type":"bytes","internalType":"bytes"}],"outputs":[{"name":"","type":"uint256","internalType":"uint256"}],"stateMutability":"nonpayable"},{"type":"function","name":"castVoteWithReason","inputs":[{"name":"proposalId","type":"uint256","internalType":"uint256"},{"name":"support","type":"uint8","internalType":"uint8"},{"name":"reason","type":"string","internalType":"string"}],"outputs":[{"name":"","type":"uint256","internalType":"uint256"}],"stateMutability":"nonpayable"},{"type":"function","name":"castVoteWithReasonAndParams","inputs":[{"name":"proposalId","type":"uint256","internalType":"uint256"},{"name":"support","type":"uint8","internalType":"uint8"},{"name":"reason","type":"string","internalType":"string"},{"name":"params","type":"bytes","internalType":"bytes"}],"outputs":[{"name":"","type":"uint256","internalType":"uint256"}],"stateMutability":"nonpayable"},{"type":"function","name":"castVoteWithReasonAndParamsBySig","inputs":[{"name":"proposalId","type":"uint256","internalType":"uint256"},{"name":"support","type":"uint8","internalType":"uint8"},{"name":"voter","type":"address","internalType":"address"},{"name":"reason","type":"string","internalType":"string"},{"name":"params","type":"bytes","internalType":"bytes"},{"name":"signature","type":"bytes","internalType":"bytes"}],"outputs":[{"name":"","type":"uint256","internalType":"uint256"}],"stateMutability":"nonpayable"},{"type":"function","name":"clock","inputs":[],"outputs":[{"name":"","type":"uint48","internalType":"uint48"}],"stateMutability":"view"},{"type":"function","name":"eip712Domain","inputs":[],"outputs":[{"name":"fields","type":"bytes1","internalType":"bytes1"},{"name":"name","type":"string","internalType":"string"},{"name":"version","type":"string","internalType":"string"},{"name":"chainId","type":"uint256","internalType":"uint256"},{"name":"verifyingContract","type":"address","internalType":"address"},{"name":"salt","type":"bytes32","internalType":"bytes32"},{"name":"extensions","type":"uint256[]","internalType":"uint256[]"}],"stateMutability":"view"},{"type":"function","name":"execute","inputs":[{"name":"targets","type":"address[]","internalType":"address[]"},{"name":"values","type":"uint256[]","internalType":"uint256[]"},{"name":"calldatas","type":"bytes[]","internalType":"bytes[]"},{"name":"descriptionHash","type":"bytes32","internalType":"bytes32"}],"outputs":[{"name":"","type":"uint256","internalType":"uint256"}],"stateMutability":"payable"},{"type":"function","name":"getProposalId","inputs":[{"name":"targets","type":"address[]","internalType":"address[]"},{"name":"values","type":"uint256[]","internalType":"uint256[]"},{"name":"calldatas","type":"bytes[]","internalType":"bytes[]"},{"name":"descriptionHash","type":"bytes32","internalType":"bytes32"}],"outputs":[{"name":"","type":"uint256","internalType":"uint256"}],"stateMutability":"view"},{"type":"function","name":"getVotes","inputs":[{"name":"account","type":"address","internalType":"address"},{"name":"timepoint","type":"uint256","internalType":"uint256"}],"outputs":[{"name":"","type":"uint256","internalType":"uint256"}],"stateMutability":"view"},{"type":"function","name":"getVotesWithParams","inputs":[{"name":"account","type":"address","internalType":"address"},{"name":"timepoint","type":"uint256","internalType":"uint256"},{"name":"params","type":"bytes","internalType":"bytes"}],"outputs":[{"name":"","type":"uint256","internalType":"uint256"}],"stateMutability":"view"},{"type":"function","name":"hasVoted","inputs":[{"name":"proposalId","type":"uint256","internalType":"uint256"},{"name":"account","type":"address","internalType":"address"}],"outputs":[{"name":"","type":"bool","internalType":"bool"}],"stateMutability":"view"},{"type":"function","name":"hashProposal","inputs":[{"name":"targets","type":"address[]","internalType":"address[]"},{"name":"values","type":"uint256[]","internalType":"uint256[]"},{"name":"calldatas","type":"bytes[]","internalType":"bytes[]"},{"name":"descriptionHash","type":"bytes32","internalType":"bytes32"}],"outputs":[{"name":"","type":"uint256","internalType":"uint256"}],"stateMutability":"pure"},{"type":"function","name":"name","inputs":[],"outputs":[{"name":"","type":"string","internalType":"string"}],"stateMutability":"view"},{"type":"function","name":"nonces","inputs":[{"name":"owner","type":"address","internalType":"address"}],"outputs":[{"name":"","type":"uint256","internalType":"uint256"}],"stateMutability":"view"},{"type":"function","name":"onERC1155BatchReceived","inputs":[{"name":"","type":"address","internalType":"address"},{"name":"","type":"address","internalType":"address"},{"name":"","type":"uint256[]","internalType":"uint256[]"},{"name":"","type":"uint256[]","internalType":"uint256[]"},{"name":"","type":"bytes","internalType":"bytes"}],"outputs":[{"name":"","type":"bytes4","internalType":"bytes4"}],"stateMutability":"nonpayable"},{"type":"function","name":"onERC1155Received","inputs":[{"name":"","type":"address","internalType":"address"},{"name":"","type":"address","internalType":"address"},{"name":"","type":"uint256","internalType":"uint256"},{"name":"","type":"uint256","internalType":"uint256"},{"name":"","type":"bytes","internalType":"bytes"}],"outputs":[{"name":"","type":"bytes4","internalType":"bytes4"}],"stateMutability":"nonpayable"},{"type":"function","name":"onERC721Received","inputs":[{"name":"","type":"address","internalType":"address"},{"name":"","type":"address","internalType":"address"},{"name":"","type":"uint256","internalType":"uint256"},{"name":"","type":"bytes","internalType":"bytes"}],"outputs":[{"name":"","type":"bytes4","internalType":"bytes4"}],"stateMutability":"nonpayable"},{"type":"function","name":"proposalDeadline","inputs":[{"name":"proposalId","type":"uint256","internalType":"uint256"}],"outputs":[{"name":"","type":"uint256","internalType":"uint256"}],"stateMutability":"view"},{"type":"function","name":"proposalEta","inputs":[{"name":"proposalId","type":"uint256","internalType":"uint256"}],"outputs":[{"name":"","type":"uint256","internalType":"uint256"}],"stateMutability":"view"},{"type":"function","name":"proposalNeedsQueuing","inputs":[{"name":"proposalId","type":"uint256","internalType":"uint256"}],"outputs":[{"name":"","type":"bool","internalType":"bool"}],"stateMutability":"view"},{"type":"function","name":"proposalProposer","inputs":[{"name":"proposalId","type":"uint256","internalType":"uint256"}],"outputs":[{"name":"","type":"address","internalType":"address"}],"stateMutability":"view"},{"type":"function","name":"proposalSnapshot","inputs":[{"name":"proposalId","type":"uint256","internalType":"uint256"}],"outputs":[{"name":"","type":"uint256","internalType":"uint256"}],"stateMutability":"view"},{"type":"function","name":"proposalThreshold","inputs":[],"outputs":[{"name":"","type":"uint256","internalType":"uint256"}],"stateMutability":"view"},{"type":"function","name":"proposalVotes","inputs":[{"name":"proposalId","type":"uint256","internalType":"uint256"}],"outputs":[{"name":"againstVotes","type":"uint256","internalType":"uint256"},{"name":"forVotes","type":"uint256","internalType":"uint256"},{"name":"abstainVotes","type":"uint256","internalType":"uint256"}],"stateMutability":"view"},{"type":"function","name":"propose","inputs":[{"name":"targets","type":"address[]","internalType":"address[]"},{"name":"values","type":"uint256[]","internalType":"uint256[]"},{"name":"calldatas","type":"bytes[]","internalType":"bytes[]"},{"name":"description","type":"string","internalType":"string"}],"outputs":[{"name":"","type":"uint256","internalType":"uint256"}],"stateMutability":"nonpayable"},{"type":"function","name":"queue","inputs":[{"name":"targets","type":"address[]","internalType":"address[]"},{"name":"values","type":"uint256[]","internalType":"uint256[]"},{"name":"calldatas","type":"bytes[]","internalType":"bytes[]"},{"name":"descriptionHash","type":"bytes32","internalType":"bytes32"}],"outputs":[{"name":"","type":"uint256","internalType":"uint256"}],"stateMutability":"nonpayable"},{"type":"function","name":"quorum","inputs":[{"name":"blockNumber","type":"uint256","internalType":"uint256"}],"outputs":[{"name":"","type":"uint256","internalType":"uint256"}],"stateMutability":"view"},{"type":"function","name":"quorumDenominator","inputs":[],"outputs":[{"name":"","type":"uint256","internalType":"uint256"}],"stateMutability":"view"},{"type":"function","name":"quorumNumerator","inputs":[{"name":"timepoint","type":"uint256","internalType":"uint256"}],"outputs":[{"name":"","type":"uint256","internalType":"uint256"}],"stateMutability":"view"},{"type":"function","name":"quorumNumerator","inputs":[],"outputs":[{"name":"","type":"uint256","internalType":"uint256"}],"stateMutability":"view"},{"type":"function","name":"relay","inputs":[{"name":"target","type":"address","internalType":"address"},{"name":"value","type":"uint256","internalType":"uint256"},{"name":"data","type":"bytes","internalType":"bytes"}],"outputs":[],"stateMutability":"payable"},{"type":"function","name":"setProposalThreshold","inputs":[{"name":"newProposalThreshold","type":"uint256","internalType":"uint256"}],"outputs":[],"stateMutability":"nonpayable"},{"type":"function","name":"setVotingDelay","inputs":[{"name":"newVotingDelay","type":"uint48","internalType":"uint48"}],"outputs":[],"stateMutability":"nonpayable"},{"type":"function","name":"setVotingPeriod","inputs":[{"name":"newVotingPeriod","type":"uint32","internalType":"uint32"}],"outputs":[],"stateMutability":"nonpayable"},{"type":"function","name":"state","inputs":[{"name":"proposalId","type":"uint256","internalType":"uint256"}],"outputs":[{"name":"","type":"uint8","internalType":"enum IGovernor.ProposalState"}],"stateMutability":"view"},{"type":"function","name":"supportsInterface","inputs":[{"name":"interfaceId","type":"bytes4","internalType":"bytes4"}],"outputs":[{"name":"","type":"bool","internalType":"bool"}],"stateMutability":"view"},{"type":"function","name":"timelock","inputs":[],"outputs":[{"name":"","type":"address","internalType":"address"}],"stateMutability":"view"},{"type":"function","name":"token","inputs":[],"outputs":[{"name":"","type":"address","internalType":"contract IERC5805"}],"stateMutability":"view"},{"type":"function","name":"updateQuorumNumerator","inputs":[{"name":"newQuorumNumerator","type":"uint256","internalType":"uint256"}],"outputs":[],"stateMutability":"nonpayable"},{"type":"function","name":"updateTimelock","inputs":[{"name":"newTimelock","type":"address","internalType":"contract TimelockController"}],"outputs":[],"stateMutability":"nonpayable"},{"type":"function","name":"version","inputs":[],"outputs":[{"name":"","type":"string","internalType":"string"}],"stateMutability":"view"},{"type":"function","name":"votingDelay","inputs":[],"outputs":[{"name":"","type":"uint256","internalType":"uint256"}],"stateMutability":"view"},{"type":"function","name":"votingPeriod","inputs":[],"outputs":[{"name":"","type":"uint256","internalType":"uint256"}],"stateMutability":"view"},{"type":"event","name":"EIP712DomainChanged","inputs":[],"anonymous":false},{"type":"event","name":"ProposalCanceled","inputs":[{"name":"proposalId","type":"uint256","indexed":false,"internalType":"uint256"}],"anonymous":false},{"type":"event","name":"ProposalCreated","inputs":[{"name":"proposalId","type":"uint256","indexed":false,"internalType":"uint256"},{"name":"proposer","type":"address","indexed":false,"internalType":"address"},{"name":"targets","type":"address[]","indexed":false,"internalType":"address[]"},{"name":"values","type":"uint256[]","indexed":false,"internalType":"uint256[]"},{"name":"signatures","type":"string[]","indexed":false,"internalType":"string[]"},{"name":"calldatas","type":"bytes[]","indexed":false,"internalType":"bytes[]"},{"name":"voteStart","type":"uint256","indexed":false,"internalType":"uint256"},{"name":"voteEnd","type":"uint256","indexed":false,"internalType":"uint256"},{"name":"description","type":"string","indexed":false,"internalType":"string"}],"anonymous":false},{"type":"event","name":"ProposalExecuted","inputs":[{"name":"proposalId","type":"uint256","indexed":false,"internalType":"uint256"}],"anonymous":false},{"type":"event","name":"ProposalQueued","inputs":[{"name":"proposalId","type":"uint256","indexed":false,"internalType":"uint256"},{"name":"etaSeconds","type":"uint256","indexed":false,"internalType":"uint256"}],"anonymous":false},{"type":"event","name":"ProposalThresholdSet","inputs":[{"name":"oldProposalThreshold","type":"uint256","indexed":false,"internalType":"uint256"},{"name":"newProposalThreshold","type":"uint256","indexed":false,"internalType":"uint256"}],"anonymous":false},{"type":"event","name":"QuorumNumeratorUpdated","inputs":[{"name":"oldQuorumNumerator","type":"uint256","indexed":false,"internalType":"uint256"},{"name":"newQuorumNumerator","type":"uint256","indexed":false,"internalType":"uint256"}],"anonymous":false},{"type":"event","name":"TimelockChange","inputs":[{"name":"oldTimelock","type":"address","indexed":false,"internalType":"address"},{"name":"newTimelock","type":"address","indexed":false,"internalType":"address"}],"anonymous":false},{"type":"event","name":"VoteCast","inputs":[{"name":"voter","type":"address","indexed":true,"internalType":"address"},{"name":"proposalId","type":"uint256","indexed":false,"internalType":"uint256"},{"name":"support","type":"uint8","indexed":false,"internalType":"uint8"},{"name":"weight","type":"uint256","indexed":false,"internalType":"uint256"},{"name":"reason","type":"string","indexed":false,"internalType":"string"}],"anonymous":false},{"type":"event","name":"VoteCastWithParams","inputs":[{"name":"voter","type":"address","indexed":true,"internalType":"address"},{"name":"proposalId","type":"uint256","indexed":false,"internalType":"uint256"},{"name":"support","type":"uint8","indexed":false,"internalType":"uint8"},{"name":"weight","type":"uint256","indexed":false,"internalType":"uint256"},{"name":"reason","type":"string","indexed":false,"internalType":"string"},{"name":"params","type":"bytes","indexed":false,"internalType":"bytes"}],"anonymous":false},{"type":"event","name":"VotingDelaySet","inputs":[{"name":"oldVotingDelay","type":"uint256","indexed":false,"internalType":"uint256"},{"name":"newVotingDelay","type":"uint256","indexed":false,"internalType":"uint256"}],"anonymous":false},{"type":"event","name":"VotingPeriodSet","inputs":[{"name":"oldVotingPeriod","type":"uint256","indexed":false,"internalType":"uint256"},{"name":"newVotingPeriod","type":"uint256","indexed":false,"internalType":"uint256"}],"anonymous":false},{"type":"error","name":"CheckpointUnorderedInsertion","inputs":[]},{"type":"error","name":"FailedCall","inputs":[]},{"type":"error","name":"GovernorAlreadyCastVote","inputs":[{"name":"voter","type":"address","internalType":"address"}]},{"type":"error","name":"GovernorAlreadyQueuedProposal","inputs":[{"name":"proposalId","type":"uint256","internalType":"uint256"}]},{"type":"error","name":"GovernorDisabledDeposit","inputs":[]},{"type":"error","name":"GovernorInsufficientProposerVotes","inputs":[{"name":"proposer","type":"address","internalType":"address"},{"name":"votes","type":"uint256","internalType":"uint256"},{"name":"threshold","type":"uint256","internalType":"uint256"}]},{"type":"error","name":"GovernorInvalidProposalLength","inputs":[{"name":"targets","type":"uint256","internalType":"uint256"},{"name":"calldatas","type":"uint256","internalType":"uint256"},{"name":"values","type":"uint256","internalType":"uint256"}]},{"type":"error","name":"GovernorInvalidQuorumFraction","inputs":[{"name":"quorumNumerator","type":"uint256","internalType":"uint256"},{"name":"quorumDenominator","type":"uint256","internalType":"uint256"}]},{"type":"error","name":"GovernorInvalidSignature","inputs":[{"name":"voter","type":"address","internalType":"address"}]},{"type":"error","name":"GovernorInvalidVoteParams","inputs":[]},{"type":"error","name":"GovernorInvalidVoteType","inputs":[]},{"type":"error","name":"GovernorInvalidVotingPeriod","inputs":[{"name":"votingPeriod","type":"uint256","internalType":"uint256"}]},{"type":"error","name":"GovernorNonexistentProposal","inputs":[{"name":"proposalId","type":"uint256","internalType":"uint256"}]},{"type":"error","name":"GovernorNotQueuedProposal","inputs":[{"name":"proposalId","type":"uint256","internalType":"uint256"}]},{"type":"error","name":"GovernorOnlyExecutor","inputs":[{"name":"account","type":"address","internalType":"address"}]},{"type":"error","name":"GovernorQueueNotImplemented","inputs":[]},{"type":"error","name":"GovernorRestrictedProposer","inputs":[{"name":"proposer","type":"address","internalType":"address"}]},{"type":"error","name":"GovernorUnableToCancel","inputs":[{"name":"proposalId","type":"uint256","internalType":"uint256"},{"name":"account","type":"address","internalType":"address"}]},{"type":"error","name":"GovernorUnexpectedProposalState","inputs":[{"name":"proposalId","type":"uint256","internalType":"uint256"},{"name":"current","type":"uint8","internalType":"enum IGovernor.ProposalState"},{"name":"expectedStates","type":"bytes32","internalType":"bytes32"}]},{"type":"error","name":"InvalidAccountNonce","inputs":[{"name":"account","type":"address","internalType":"address"},{"name":"currentNonce","type":"uint256","internalType":"uint256"}]},{"type":"error","name":"InvalidShortString","inputs":[]},{"type":"error","name":"SafeCastOverflowedUintDowncast","inputs":[{"name":"bits","type":"uint8","internalType":"uint8"},{"name":"value","type":"uint256","internalType":"uint256"}]},{"type":"error","name":"StringTooLong","inputs":[{"name":"str","type":"string","internalType":"string"}]}],"bytecode":{"object":"0x610180604052348015610010575f5ffd5b506040516184b83803806184b883398181016040528101906100329190610caf565b8481878686866040518060400160405280601081526020017f5375706572417070476f7665726e6f72000000000000000000000000000000008152508061007d6101c860201b60201c565b6100905f8361020560201b90919060201c565b61012081815250506100ac60018261020560201b90919060201c565b6101408181525050818051906020012060e08181525050808051906020012061010081815250504660a081815250506100e961025260201b60201c565b608081815250503073ffffffffffffffffffffffffffffffffffffffff1660c08173ffffffffffffffffffffffffffffffffffffffff1681525050505080600390816101359190610f7d565b5050610146836102ac60201b60201c565b6101558261031f60201b60201c565b610164816103d860201b60201c565b5050508073ffffffffffffffffffffffffffffffffffffffff166101608173ffffffffffffffffffffffffffffffffffffffff1681525050506101ac8161041d60201b60201c565b506101bc816104f760201b60201c565b50505050505050611491565b60606040518060400160405280600181526020017f3100000000000000000000000000000000000000000000000000000000000000815250905090565b5f6020835110156102265761021f8361059460201b60201c565b905061024c565b82610236836105f960201b60201c565b5f0190816102449190610f7d565b5060ff5f1b90505b92915050565b5f7f8b73c3c69bb8fe3d512ecc4cf759cc79239f7b179b0ffacaa9a75d522b39400f60e051610100514630604051602001610291959493929190611082565b60405160208183030381529060405280519060200120905090565b7fc565b045403dc03c2eea82b81a0465edad9e2e7fc4d97e11421c209da93d7a9360085f9054906101000a900465ffffffffffff16826040516102f0929190611103565b60405180910390a18060085f6101000a81548165ffffffffffff021916908365ffffffffffff16021790555050565b5f8163ffffffff1603610369575f6040517ff1cfbf050000000000000000000000000000000000000000000000000000000081526004016103609190611163565b60405180910390fd5b7f7e3f7f0708a84de9203036abaa450dccc85ad5ff52f78c170f3edb55cf5e8828600860069054906101000a900463ffffffff16826040516103ac9291906111ac565b60405180910390a180600860066101000a81548163ffffffff021916908363ffffffff16021790555050565b7fccb45da8d5717e6c4544694297c4ba5cf151d455c9bb0ed4fc7a38411bc054616007548260405161040b9291906111d3565b60405180910390a18060078190555050565b5f61042c61060260201b60201c565b9050808211156104755781816040517f243e544500000000000000000000000000000000000000000000000000000000815260040161046c9291906111d3565b60405180910390fd5b5f61048461060a60201b60201c565b90506104b761049761063c60201b60201c565b6104a6856106d360201b60201c565b600a61074060201b9092919060201c565b50507f0553476bf02ef2726e8ce5ced78d63e26e602e4a2257b1f559418e24b463399781846040516104ea9291906111d3565b60405180910390a1505050565b7f08f74ea46ef7894f65eabfb5e6e695de773a000b47c529ab559178069b226401600b5f9054906101000a900473ffffffffffffffffffffffffffffffffffffffff16826040516105499291906111fa565b60405180910390a180600b5f6101000a81548173ffffffffffffffffffffffffffffffffffffffff021916908373ffffffffffffffffffffffffffffffffffffffff16021790555050565b5f5f829050601f815111156105e057826040517f305a27a90000000000000000000000000000000000000000000000000000000081526004016105d79190611287565b60405180910390fd5b8051816105ec906112d4565b5f1c175f1b915050919050565b5f819050919050565b5f6064905090565b5f61061b600a61076160201b60201c565b79ffffffffffffffffffffffffffffffffffffffffffffffffffff16905090565b5f61064b6107c960201b60201c565b73ffffffffffffffffffffffffffffffffffffffff166391ddadf46040518163ffffffff1660e01b8152600401602060405180830381865afa9250505080156106b257506040513d601f19601f820116820180604052508101906106af919061133a565b60015b6106cb576106c46107d360201b60201c565b90506106d0565b809150505b90565b5f79ffffffffffffffffffffffffffffffffffffffffffffffffffff80168211156107385760d0826040517f6dfcc65000000000000000000000000000000000000000000000000000000000815260040161072f9291906113aa565b60405180910390fd5b819050919050565b5f5f610755855f0185856107e860201b60201c565b91509150935093915050565b5f5f825f018054905090505f81146107bf57610791835f0160018361078691906113fe565b610ae260201b60201c565b5f0160069054906101000a900479ffffffffffffffffffffffffffffffffffffffffffffffffffff166107c1565b5f5b915050919050565b5f61016051905090565b5f6107e343610af460201b60201c565b905090565b5f5f5f858054905090505f8111156109fa575f6108178760018461080c91906113fe565b610ae260201b60201c565b90505f815f015f9054906101000a900465ffffffffffff1690505f825f0160069054906101000a900479ffffffffffffffffffffffffffffffffffffffffffffffffffff1690508765ffffffffffff168265ffffffffffff1611156108a8576040517f2520601d00000000000000000000000000000000000000000000000000000000815260040160405180910390fd5b8765ffffffffffff168265ffffffffffff16036109125786835f0160066101000a81548179ffffffffffffffffffffffffffffffffffffffffffffffffffff021916908379ffffffffffffffffffffffffffffffffffffffffffffffffffff1602179055506109eb565b8860405180604001604052808a65ffffffffffff1681526020018979ffffffffffffffffffffffffffffffffffffffffffffffffffff16815250908060018154018082558091505060019003905f5260205f20015f909190919091505f820151815f015f6101000a81548165ffffffffffff021916908365ffffffffffff1602179055506020820151815f0160066101000a81548179ffffffffffffffffffffffffffffffffffffffffffffffffffff021916908379ffffffffffffffffffffffffffffffffffffffffffffffffffff16021790555050505b80879550955050505050610ada565b8560405180604001604052808765ffffffffffff1681526020018679ffffffffffffffffffffffffffffffffffffffffffffffffffff16815250908060018154018082558091505060019003905f5260205f20015f909190919091505f820151815f015f6101000a81548165ffffffffffff021916908365ffffffffffff1602179055506020820151815f0160066101000a81548179ffffffffffffffffffffffffffffffffffffffffffffffffffff021916908379ffffffffffffffffffffffffffffffffffffffffffffffffffff16021790555050505f8492509250505b935093915050565b5f825f528160205f2001905092915050565b5f65ffffffffffff8016821115610b45576030826040517f6dfcc650000000000000000000000000000000000000000000000000000000008152600401610b3c92919061146a565b60405180910390fd5b819050919050565b5f5ffd5b5f73ffffffffffffffffffffffffffffffffffffffff82169050919050565b5f610b7a82610b51565b9050919050565b5f610b8b82610b70565b9050919050565b610b9b81610b81565b8114610ba5575f5ffd5b50565b5f81519050610bb681610b92565b92915050565b5f610bc682610b51565b9050919050565b5f610bd782610bbc565b9050919050565b610be781610bcd565b8114610bf1575f5ffd5b50565b5f81519050610c0281610bde565b92915050565b5f65ffffffffffff82169050919050565b610c2281610c08565b8114610c2c575f5ffd5b50565b5f81519050610c3d81610c19565b92915050565b5f63ffffffff82169050919050565b610c5b81610c43565b8114610c65575f5ffd5b50565b5f81519050610c7681610c52565b92915050565b5f819050919050565b610c8e81610c7c565b8114610c98575f5ffd5b50565b5f81519050610ca981610c85565b92915050565b5f5f5f5f5f5f60c08789031215610cc957610cc8610b4d565b5b5f610cd689828a01610ba8565b9650506020610ce789828a01610bf4565b9550506040610cf889828a01610c2f565b9450506060610d0989828a01610c68565b9350506080610d1a89828a01610c9b565b92505060a0610d2b89828a01610c9b565b9150509295509295509295565b5f81519050919050565b7f4e487b71000000000000000000000000000000000000000000000000000000005f52604160045260245ffd5b7f4e487b71000000000000000000000000000000000000000000000000000000005f52602260045260245ffd5b5f6002820490506001821680610db357607f821691505b602082108103610dc657610dc5610d6f565b5b50919050565b5f819050815f5260205f209050919050565b5f6020601f8301049050919050565b5f82821b905092915050565b5f60088302610e287fffffffffffffffffffffffffffffffffffffffffffffffffffffffffffffffff82610ded565b610e328683610ded565b95508019841693508086168417925050509392505050565b5f819050919050565b5f610e6d610e68610e6384610c7c565b610e4a565b610c7c565b9050919050565b5f819050919050565b610e8683610e53565b610e9a610e9282610e74565b848454610df9565b825550505050565b5f5f905090565b610eb1610ea2565b610ebc818484610e7d565b505050565b5f5b82811015610ee257610ed75f828401610ea9565b600181019050610ec3565b505050565b601f821115610f355782821115610f3457610f0181610dcc565b610f0a83610dde565b610f1385610dde565b6020861015610f20575f90505b808301610f2f82840382610ec1565b505050505b5b505050565b5f82821c905092915050565b5f610f555f1984600802610f3a565b1980831691505092915050565b5f610f6d8383610f46565b9150826002028217905092915050565b610f8682610d38565b67ffffffffffffffff811115610f9f57610f9e610d42565b5b610fa98254610d9c565b610fb4828285610ee7565b5f60209050601f831160018114610fe5575f8415610fd3578287015190505b610fdd8582610f62565b865550611044565b601f198416610ff386610dcc565b5f5b8281101561101a57848901518255600182019150602085019450602081019050610ff5565b868310156110375784890151611033601f891682610f46565b8355505b6001600288020188555050505b505050505050565b5f819050919050565b61105e8161104c565b82525050565b61106d81610c7c565b82525050565b61107c81610b70565b82525050565b5f60a0820190506110955f830188611055565b6110a26020830187611055565b6110af6040830186611055565b6110bc6060830185611064565b6110c96080830184611073565b9695505050505050565b5f6110ed6110e86110e384610c08565b610e4a565b610c7c565b9050919050565b6110fd816110d3565b82525050565b5f6040820190506111165f8301856110f4565b61112360208301846110f4565b9392505050565b5f819050919050565b5f61114d6111486111438461112a565b610e4a565b610c7c565b9050919050565b61115d81611133565b82525050565b5f6020820190506111765f830184611154565b92915050565b5f61119661119161118c84610c43565b610e4a565b610c7c565b9050919050565b6111a68161117c565b82525050565b5f6040820190506111bf5f83018561119d565b6111cc602083018461119d565b9392505050565b5f6040820190506111e65f830185611064565b6111f36020830184611064565b9392505050565b5f60408201905061120d5f830185611073565b61121a6020830184611073565b9392505050565b5f82825260208201905092915050565b8281835e5f83830152505050565b5f601f19601f8301169050919050565b5f61125982610d38565b6112638185611221565b9350611273818560208601611231565b61127c8161123f565b840191505092915050565b5f6020820190508181035f83015261129f818461124f565b905092915050565b5f81519050919050565b5f819050602082019050919050565b5f6112cb825161104c565b80915050919050565b5f6112de826112a7565b826112e8846112b1565b90506112f3816112c0565b925060208210156113335761132e7fffffffffffffffffffffffffffffffffffffffffffffffffffffffffffffffff83602003600802610ded565b831692505b5050919050565b5f6020828403121561134f5761134e610b4d565b5b5f61135c84828501610c2f565b91505092915050565b5f819050919050565b5f60ff82169050919050565b5f61139461138f61138a84611365565b610e4a565b61136e565b9050919050565b6113a48161137a565b82525050565b5f6040820190506113bd5f83018561139b565b6113ca6020830184611064565b9392505050565b7f4e487b71000000000000000000000000000000000000000000000000000000005f52601160045260245ffd5b5f61140882610c7c565b915061141383610c7c565b925082820390508181111561142b5761142a6113d1565b5b92915050565b5f819050919050565b5f61145461144f61144a84611431565b610e4a565b61136e565b9050919050565b6114648161143a565b82525050565b5f60408201905061147d5f83018561145b565b61148a6020830184611064565b9392505050565b60805160a05160c05160e05161010051610120516101405161016051616fcc6114ec5f395f611e0001525f612af201525f612ab701525f61498901525f61496801525f6143ab01525f61440101525f61442a0152616fcc5ff3fe6080604052600436106102b1575f3560e01c80637ecebe0011610174578063bc197c81116100db578063deaaa7cc11610094578063ece40cc11161006e578063ece40cc114610c44578063f23a6e6114610c6c578063f8ce560a14610ca8578063fc0c546a14610ce457610324565b8063deaaa7cc14610bb6578063e540d01d14610be0578063eb9019d414610c0857610324565b8063bc197c8114610a92578063c01f9e3714610ace578063c28bc2fa14610b0a578063c59057e414610b26578063d33219b414610b62578063dd4e2ba514610b8c57610324565b8063a7713a701161012d578063a7713a7014610962578063a890c9101461098c578063a8f8a668146109b4578063a9a95294146109f0578063ab58fb8e14610a2c578063b58131b014610a6857610324565b80637ecebe001461082a57806384b0196e146108665780638ff262e31461089657806391ddadf4146108d257806397c3d334146108fc5780639a802a6d1461092657610324565b806343859632116102185780635b8d0e0d116101d15780635b8d0e0d146106d65780635f398a141461071257806360c4247f1461074e578063790518871461078a5780637b3c71d3146107b25780637d5e81e2146107ee57610324565b80634385963214610590578063452115d6146105cc5780634bf5d7e914610608578063544ffc9c1461063257806354fd4d5014610670578063567813881461069a57610324565b8063160cbed71161026a578063160cbed7146104585780632656227d146104945780632d63f693146104c45780632fe3e261146105005780633932abb11461052a5780633e4f49e61461055457610324565b806301ffc9a71461032857806302a251a31461036457806306f3f9e61461038e57806306fdde03146103b6578063143489d0146103e0578063150b7a021461041c57610324565b36610324573073ffffffffffffffffffffffffffffffffffffffff166102d5610d0e565b73ffffffffffffffffffffffffffffffffffffffff1614610322576040517fe90a651e00000000000000000000000000000000000000000000000000000000815260040160405180910390fd5b005b5f5ffd5b348015610333575f5ffd5b5061034e60048036038101906103499190614c25565b610d1c565b60405161035b9190614c6a565b60405180910390f35b34801561036f575f5ffd5b50610378610e6e565b6040516103859190614c9b565b60405180910390f35b348015610399575f5ffd5b506103b460048036038101906103af9190614cde565b610e7c565b005b3480156103c1575f5ffd5b506103ca610e90565b6040516103d79190614d79565b60405180910390f35b3480156103eb575f5ffd5b5061040660048036038101906104019190614cde565b610f20565b6040516104139190614dd8565b60405180910390f35b348015610427575f5ffd5b50610442600480360381019061043d9190614f47565b610f5b565b60405161044f9190614fd6565b60405180910390f35b348015610463575f5ffd5b5061047e60048036038101906104799190615284565b610fda565b60405161048b9190614c9b565b60405180910390f35b6104ae60048036038101906104a99190615284565b6110d0565b6040516104bb9190614c9b565b60405180910390f35b3480156104cf575f5ffd5b506104ea60048036038101906104e59190614cde565b6112ad565b6040516104f79190614c9b565b60405180910390f35b34801561050b575f5ffd5b506105146112e3565b604051610521919061534b565b60405180910390f35b348015610535575f5ffd5b5061053e611307565b60405161054b9190614c9b565b60405180910390f35b34801561055f575f5ffd5b5061057a60048036038101906105759190614cde565b611315565b60405161058791906153d7565b60405180910390f35b34801561059b575f5ffd5b506105b660048036038101906105b191906153f0565b611326565b6040516105c39190614c6a565b60405180910390f35b3480156105d7575f5ffd5b506105f260048036038101906105ed9190615284565b61138b565b6040516105ff9190614c9b565b60405180910390f35b348015610613575f5ffd5b5061061c61140b565b6040516106299190614d79565b60405180910390f35b34801561063d575f5ffd5b5061065860048036038101906106539190614cde565b6114c8565b6040516106679392919061542e565b60405180910390f35b34801561067b575f5ffd5b506106846114fb565b6040516106919190614d79565b60405180910390f35b3480156106a5575f5ffd5b506106c060048036038101906106bb9190615499565b611538565b6040516106cd9190614c9b565b60405180910390f35b3480156106e1575f5ffd5b506106fc60048036038101906106f79190615530565b611567565b6040516107099190614c9b565b60405180910390f35b34801561071d575f5ffd5b5061073860048036038101906107339190615612565b611657565b6040516107459190614c9b565b60405180910390f35b348015610759575f5ffd5b50610774600480360381019061076f9190614cde565b6116bf565b6040516107819190614c9b565b60405180910390f35b348015610795575f5ffd5b506107b060048036038101906107ab91906156ed565b6116d2565b005b3480156107bd575f5ffd5b506107d860048036038101906107d39190615718565b6116e6565b6040516107e59190614c9b565b60405180910390f35b3480156107f9575f5ffd5b50610814600480360381019061080f9190615827565b61174c565b6040516108219190614c9b565b60405180910390f35b348015610835575f5ffd5b50610850600480360381019061084b91906158fb565b611842565b60405161085d9190614c9b565b60405180910390f35b348015610871575f5ffd5b5061087a611888565b60405161088d9796959493929190615a17565b60405180910390f35b3480156108a1575f5ffd5b506108bc60048036038101906108b79190615a99565b61192d565b6040516108c99190614c9b565b60405180910390f35b3480156108dd575f5ffd5b506108e661199f565b6040516108f39190615b28565b60405180910390f35b348015610907575f5ffd5b50610910611a2a565b60405161091d9190614c9b565b60405180910390f35b348015610931575f5ffd5b5061094c60048036038101906109479190615b41565b611a32565b6040516109599190614c9b565b60405180910390f35b34801561096d575f5ffd5b50610976611a47565b6040516109839190614c9b565b60405180910390f35b348015610997575f5ffd5b506109b260048036038101906109ad9190615bf9565b611a73565b005b3480156109bf575f5ffd5b506109da60048036038101906109d59190615284565b611a87565b6040516109e79190614c9b565b60405180910390f35b3480156109fb575f5ffd5b50610a166004803603810190610a119190614cde565b611a9e565b604051610a239190614c6a565b60405180910390f35b348015610a37575f5ffd5b50610a526004803603810190610a4d9190614cde565b611aaf565b604051610a5f9190614c9b565b60405180910390f35b348015610a73575f5ffd5b50610a7c611ae5565b604051610a899190614c9b565b60405180910390f35b348015610a9d575f5ffd5b50610ab86004803603810190610ab39190615c24565b611af3565b604051610ac59190614fd6565b60405180910390f35b348015610ad9575f5ffd5b50610af46004803603810190610aef9190614cde565b611b73565b604051610b019190614c9b565b60405180910390f35b610b246004803603810190610b1f9190615d44565b611bdd565b005b348015610b31575f5ffd5b50610b4c6004803603810190610b479190615284565b611c66565b604051610b599190614c9b565b60405180910390f35b348015610b6d575f5ffd5b50610b76611ca0565b604051610b839190614dd8565b60405180910390f35b348015610b97575f5ffd5b50610ba0611cc8565b604051610bad9190614d79565b60405180910390f35b348015610bc1575f5ffd5b50610bca611d05565b604051610bd7919061534b565b60405180910390f35b348015610beb575f5ffd5b50610c066004803603810190610c019190615dee565b611d29565b005b348015610c13575f5ffd5b50610c2e6004803603810190610c299190615e19565b611d3d565b604051610c3b9190614c9b565b60405180910390f35b348015610c4f575f5ffd5b50610c6a6004803603810190610c659190614cde565b611d58565b005b348015610c77575f5ffd5b50610c926004803603810190610c8d9190615e57565b611d6c565b604051610c9f9190614fd6565b60405180910390f35b348015610cb3575f5ffd5b50610cce6004803603810190610cc99190614cde565b611dec565b604051610cdb9190614c9b565b60405180910390f35b348015610cef575f5ffd5b50610cf8611dfd565b604051610d059190615f45565b60405180910390f35b5f610d17611e24565b905090565b5f7fcdbdfcee000000000000000000000000000000000000000000000000000000007bffffffffffffffffffffffffffffffffffffffffffffffffffffffff1916827bffffffffffffffffffffffffffffffffffffffffffffffffffffffff19161480610def575063a8f8a66860e01b7fcdbdfcee00000000000000000000000000000000000000000000000000000000187bffffffffffffffffffffffffffffffffffffffffffffffffffffffff1916827bffffffffffffffffffffffffffffffffffffffffffffffffffffffff1916145b80610e5757507f4e2312e0000000000000000000000000000000000000000000000000000000007bffffffffffffffffffffffffffffffffffffffffffffffffffffffff1916827bffffffffffffffffffffffffffffffffffffffffffffffffffffffff1916145b80610e675750610e6682611e4c565b5b9050919050565b5f610e77611eb5565b905090565b610e84611ed4565b610e8d81611fc9565b50565b606060038054610e9f90615f8b565b80601f0160208091040260200160405190810160405280929190818152602001828054610ecb90615f8b565b8015610f165780601f10610eed57610100808354040283529160200191610f16565b820191905f5260205f20905b815481529060010190602001808311610ef957829003601f168201915b5050505050905090565b5f60045f8381526020019081526020015f205f015f9054906101000a900473ffffffffffffffffffffffffffffffffffffffff169050919050565b5f3073ffffffffffffffffffffffffffffffffffffffff16610f7b610d0e565b73ffffffffffffffffffffffffffffffffffffffff1614610fc8576040517fe90a651e00000000000000000000000000000000000000000000000000000000815260040160405180910390fd5b63150b7a0260e01b9050949350505050565b5f5f610fe886868686611a87565b9050610ffd81610ff8600461208b565b6120af565b505f61100c828888888861211a565b90505f8165ffffffffffff1614611091578060045f8481526020019081526020015f206001015f6101000a81548165ffffffffffff021916908365ffffffffffff1602179055507f9a2e42fd6722813d69113e7d0079d3d940171428df7373df9c7f7617cfda28928282604051611084929190615feb565b60405180910390a16110c3565b6040517f90884a4600000000000000000000000000000000000000000000000000000000815260040160405180910390fd5b8192505050949350505050565b5f5f6110de86868686611a87565b90506110fe816110ee600561208b565b6110f8600461208b565b176120af565b50600160045f8381526020019081526020015f205f01601e6101000a81548160ff0219169083151502179055503073ffffffffffffffffffffffffffffffffffffffff1661114a610d0e565b73ffffffffffffffffffffffffffffffffffffffff1614611203575f5f90505b8651811015611201573073ffffffffffffffffffffffffffffffffffffffff1687828151811061119d5761119c616012565b5b602002602001015173ffffffffffffffffffffffffffffffffffffffff16036111f6576111f58582815181106111d6576111d5616012565b5b602002602001015180519060200120600561213390919063ffffffff16565b5b80600101905061116a565b505b6112108187878787612155565b3073ffffffffffffffffffffffffffffffffffffffff1661122f610d0e565b73ffffffffffffffffffffffffffffffffffffffff161415801561125a57506112586005612169565b155b1561126a5761126960056121d5565b5b7f712ae1383f79ac853f8d882153778e0260ef8f03b504e2866e0593e04d2b291f816040516112999190614c9b565b60405180910390a180915050949350505050565b5f60045f8381526020019081526020015f205f0160149054906101000a900465ffffffffffff1665ffffffffffff169050919050565b7f3e83946653575f9a39005e1545185629e92736b7528ab20ca3816f315424a81181565b5f61131061224b565b905090565b5f61131f8261226d565b9050919050565b5f60095f8481526020019081526020015f206003015f8373ffffffffffffffffffffffffffffffffffffffff1673ffffffffffffffffffffffffffffffffffffffff1681526020019081526020015f205f9054906101000a900460ff16905092915050565b5f5f61139986868686611a87565b90505f6113a4612422565b90506113b08282612429565b6113f35781816040517f8fe5d8a90000000000000000000000000000000000000000000000000000000081526004016113ea92919061603f565b60405180910390fd5b6113ff878787876124a0565b92505050949350505050565b6060611415611dfd565b73ffffffffffffffffffffffffffffffffffffffff16634bf5d7e96040518163ffffffff1660e01b81526004015f60405180830381865afa92505050801561147f57506040513d5f823e3d601f19601f8201168201806040525081019061147c91906160d4565b60015b6114c0576040518060400160405280601d81526020017f6d6f64653d626c6f636b6e756d6265722666726f6d3d64656661756c7400000081525090506114c5565b809150505b90565b5f5f5f5f60095f8681526020019081526020015f209050805f015481600101548260020154935093509350509193909250565b60606040518060400160405280600181526020017f3100000000000000000000000000000000000000000000000000000000000000815250905090565b5f5f611542612422565b905061155e84828560405180602001604052805f8152506124b7565b91505092915050565b5f6115b988888888888080601f0160208091040260200160405190810160405280939291908181526020018383808284375f81840152601f19601f8201169050808301925050505050505087876124d6565b6115fa57856040517f94ab6c070000000000000000000000000000000000000000000000000000000081526004016115f19190614dd8565b60405180910390fd5b61164a88878988888080601f0160208091040260200160405190810160405280939291908181526020018383808284375f81840152601f19601f820116905080830192505050505050508761255e565b9050979650505050505050565b5f5f611661612422565b90506116b387828888888080601f0160208091040260200160405190810160405280939291908181526020018383808284375f81840152601f19601f820116905080830192505050505050508761255e565b91505095945050505050565b5f6116cb600a83612668565b9050919050565b6116da611ed4565b6116e3816126d1565b50565b5f5f6116f0612422565b905061174186828787878080601f0160208091040260200160405190810160405280939291908181526020018383808284375f81840152601f19601f820116905080830192505050505050506124b7565b915050949350505050565b5f5f611756612422565b90506117628184612744565b6117a357806040517fd9b3955700000000000000000000000000000000000000000000000000000000815260040161179a9190614dd8565b60405180910390fd5b5f6117ac611ae5565b90505f811115611829575f6117dc8360016117c561199f565b6117cf9190616148565b65ffffffffffff16611d3d565b905081811015611827578281836040517fc242ee1600000000000000000000000000000000000000000000000000000000815260040161181e93929190616181565b60405180910390fd5b505b611836878787878661282a565b92505050949350505050565b5f60025f8373ffffffffffffffffffffffffffffffffffffffff1673ffffffffffffffffffffffffffffffffffffffff1681526020019081526020015f20549050919050565b5f6060805f5f5f6060611899612aaf565b6118a1612ae9565b46305f5f1b5f67ffffffffffffffff8111156118c0576118bf614e23565b5b6040519080825280602002602001820160405280156118ee5781602001602082028036833780820191505090505b507f0f00000000000000000000000000000000000000000000000000000000000000959493929190965096509650965096509650965090919293949596565b5f61193a85858585612b24565b61197b57826040517f94ab6c070000000000000000000000000000000000000000000000000000000081526004016119729190614dd8565b60405180910390fd5b61199585848660405180602001604052805f8152506124b7565b9050949350505050565b5f6119a8611dfd565b73ffffffffffffffffffffffffffffffffffffffff166391ddadf46040518163ffffffff1660e01b8152600401602060405180830381865afa925050508015611a0f57506040513d601f19601f82011682018060405250810190611a0c91906161ca565b60015b611a2257611a1b612b98565b9050611a27565b809150505b90565b5f6064905090565b5f611a3e848484612ba7565b90509392505050565b5f611a52600a612c32565b79ffffffffffffffffffffffffffffffffffffffffffffffffffff16905090565b611a7b611ed4565b611a8481612c94565b50565b5f611a9485858585611c66565b9050949350505050565b5f611aa882612d31565b9050919050565b5f60045f8381526020019081526020015f206001015f9054906101000a900465ffffffffffff1665ffffffffffff169050919050565b5f611aee612d3b565b905090565b5f3073ffffffffffffffffffffffffffffffffffffffff16611b13610d0e565b73ffffffffffffffffffffffffffffffffffffffff1614611b60576040517fe90a651e00000000000000000000000000000000000000000000000000000000815260040160405180910390fd5b63bc197c8160e01b905095945050505050565b5f60045f8381526020019081526020015f205f01601a9054906101000a900463ffffffff1663ffffffff1660045f8481526020019081526020015f205f0160149054906101000a900465ffffffffffff16611bce91906161f5565b65ffffffffffff169050919050565b611be5611ed4565b5f5f8573ffffffffffffffffffffffffffffffffffffffff16858585604051611c0f92919061625c565b5f6040518083038185875af1925050503d805f8114611c49576040519150601f19603f3d011682016040523d82523d5f602084013e611c4e565b606091505b5091509150611c5d8282612d44565b50505050505050565b5f84848484604051602001611c7e9493929190616438565b604051602081830303815290604052805190602001205f1c9050949350505050565b5f600b5f9054906101000a900473ffffffffffffffffffffffffffffffffffffffff16905090565b60606040518060400160405280602081526020017f737570706f72743d627261766f2671756f72756d3d666f722c6162737461696e815250905090565b7ff2aad550cf55f045cb27e9c559f9889fdfb6e6cdaa032301d6ea397784ae51d781565b611d31611ed4565b611d3a81612da4565b50565b5f611d508383611d4b612e5d565b612ba7565b905092915050565b611d60611ed4565b611d6981612e73565b50565b5f3073ffffffffffffffffffffffffffffffffffffffff16611d8c610d0e565b73ffffffffffffffffffffffffffffffffffffffff1614611dd9576040517fe90a651e00000000000000000000000000000000000000000000000000000000815260040160405180910390fd5b63f23a6e6160e01b905095945050505050565b5f611df682612eb8565b9050919050565b5f7f0000000000000000000000000000000000000000000000000000000000000000905090565b5f600b5f9054906101000a900473ffffffffffffffffffffffffffffffffffffffff16905090565b5f7f01ffc9a7000000000000000000000000000000000000000000000000000000007bffffffffffffffffffffffffffffffffffffffffffffffffffffffff1916827bffffffffffffffffffffffffffffffffffffffffffffffffffffffff1916149050919050565b5f600860069054906101000a900463ffffffff1663ffffffff16905090565b611edc612422565b73ffffffffffffffffffffffffffffffffffffffff16611efa610d0e565b73ffffffffffffffffffffffffffffffffffffffff1614611f5957611f1d612422565b6040517f47096e47000000000000000000000000000000000000000000000000000000008152600401611f509190614dd8565b60405180910390fd5b3073ffffffffffffffffffffffffffffffffffffffff16611f78610d0e565b73ffffffffffffffffffffffffffffffffffffffff1614611fc7575f611f9c612f58565b604051611faa92919061625c565b604051809103902090505b80611fc06005612f64565b03611fb557505b565b5f611fd2611a2a565b90508082111561201b5781816040517f243e5445000000000000000000000000000000000000000000000000000000008152600401612012929190616490565b60405180910390fd5b5f612024611a47565b905061204b61203161199f565b61203a85612f8e565b600a612ffb9092919063ffffffff16565b50507f0553476bf02ef2726e8ce5ced78d63e26e602e4a2257b1f559418e24b4633997818460405161207e929190616490565b60405180910390a1505050565b5f81600781111561209f5761209e615364565b5b60ff166001901b5f1b9050919050565b5f5f6120ba84611315565b90505f5f1b836120c98361208b565b1603612110578381846040517f31b75e4d000000000000000000000000000000000000000000000000000000008152600401612107939291906164b7565b60405180910390fd5b8091505092915050565b5f6121288686868686613016565b905095945050505050565b5f61213e838361321c565b9050806121505761214f604161331a565b5b505050565b612162858585858561332b565b5050505050565b5f815f015f9054906101000a90046fffffffffffffffffffffffffffffffff166fffffffffffffffffffffffffffffffff16825f0160109054906101000a90046fffffffffffffffffffffffffffffffff166fffffffffffffffffffffffffffffffff16149050919050565b5f815f015f6101000a8154816fffffffffffffffffffffffffffffffff02191690836fffffffffffffffffffffffffffffffff1602179055505f815f0160106101000a8154816fffffffffffffffffffffffffffffffff02191690836fffffffffffffffffffffffffffffffff16021790555050565b5f60085f9054906101000a900465ffffffffffff1665ffffffffffff16905090565b5f5f612278836133df565b90506005600781111561228e5761228d615364565b5b8160078111156122a1576122a0615364565b5b146122af578091505061241d565b5f600c5f8581526020019081526020015f20549050600b5f9054906101000a900473ffffffffffffffffffffffffffffffffffffffff1673ffffffffffffffffffffffffffffffffffffffff1663584b153e826040518263ffffffff1660e01b815260040161231e919061534b565b602060405180830381865afa158015612339573d5f5f3e3d5ffd5b505050506040513d601f19601f8201168201806040525081019061235d9190616516565b1561236d5760059250505061241d565b600b5f9054906101000a900473ffffffffffffffffffffffffffffffffffffffff1673ffffffffffffffffffffffffffffffffffffffff16632ab0f529826040518263ffffffff1660e01b81526004016123c7919061534b565b602060405180830381865afa1580156123e2573d5f5f3e3d5ffd5b505050506040513d601f19601f820116820180604052508101906124069190616516565b156124165760079250505061241d565b6002925050505b919050565b5f33905090565b5f5f600781111561243d5761243c615364565b5b61244684611315565b600781111561245857612457615364565b5b148015612498575061246983610f20565b73ffffffffffffffffffffffffffffffffffffffff168273ffffffffffffffffffffffffffffffffffffffff16145b905092915050565b5f6124ad85858585613536565b9050949350505050565b5f6124cc858585856124c7612e5d565b61255e565b9050949350505050565b5f6125528561254c7f3e83946653575f9a39005e1545185629e92736b7528ab20ca3816f315424a8118a8a8a61250b8c61360d565b8b805190602001208b805190602001206040516020016125319796959493929190616550565b60405160208183030381529060405280519060200120613660565b84613679565b90509695505050505050565b5f6125728661256d600161208b565b6120af565b505f61258786612581896112ad565b85612ba7565b90505f6125978888888588613725565b90505f8451036125fa578673ffffffffffffffffffffffffffffffffffffffff167fb8e138887d0aa13bab447e82de9d5c1777041ecd21ca36ba824ff1e6c07ddda4898884896040516125ed94939291906165bd565b60405180910390a2612651565b8673ffffffffffffffffffffffffffffffffffffffff167fe2babfbac5889a709b63bb7f598b324e08bc5a4fb9ec647fb3cbc9ec07eb8712898884898960405161264895949392919061664f565b60405180910390a25b61265a8861391a565b809250505095945050505050565b5f5f5f6126748561391d565b9250925050838265ffffffffffff1611156126a9576126a4612695856139ac565b86613a0590919063ffffffff16565b6126ab565b805b79ffffffffffffffffffffffffffffffffffffffffffffffffffff169250505092915050565b7fc565b045403dc03c2eea82b81a0465edad9e2e7fc4d97e11421c209da93d7a9360085f9054906101000a900465ffffffffffff16826040516127159291906166ae565b60405180910390a18060085f6101000a81548165ffffffffffff021916908365ffffffffffff16021790555050565b5f5f82519050603481101561275d576001915050612824565b5f61276b8460348403613af5565b90507f2370726f706f7365723d0000000000000000000000000000000000000000000075ffffffffffffffffffffffffffffffffffffffffffff19168175ffffffffffffffffffffffffffffffffffffffffffff1916146127d157600192505050612824565b5f5f6127e186602a860386613b05565b9150915081158061281d57508673ffffffffffffffffffffffffffffffffffffffff168173ffffffffffffffffffffffffffffffffffffffff16145b9450505050505b92915050565b5f61283e8686868680519060200120611a87565b90508451865114158061285357508351865114155b8061285e57505f8651145b156128a7578551845186516040517f447b05d000000000000000000000000000000000000000000000000000000000815260040161289e9392919061542e565b60405180910390fd5b5f60045f8381526020019081526020015f205f0160149054906101000a900465ffffffffffff1665ffffffffffff161461292657806128e582611315565b5f5f1b6040517f31b75e4d00000000000000000000000000000000000000000000000000000000815260040161291d939291906164b7565b60405180910390fd5b5f61292f611307565b61293761199f565b65ffffffffffff1661294991906166d5565b90505f612954610e6e565b90505f60045f8581526020019081526020015f20905084815f015f6101000a81548173ffffffffffffffffffffffffffffffffffffffff021916908373ffffffffffffffffffffffffffffffffffffffff1602179055506129b4836139ac565b815f0160146101000a81548165ffffffffffff021916908365ffffffffffff1602179055506129e282613c16565b815f01601a6101000a81548163ffffffff021916908363ffffffff1602179055507f7d84a6263ae0d98d3329bd7b46bb4e8d6f98cd35a7adb45c274c8b7fd5ebd5e084868b8b8d5167ffffffffffffffff811115612a4357612a42614e23565b5b604051908082528060200260200182016040528015612a7657816020015b6060815260200190600190039081612a615790505b508c89898b612a8591906166d5565b8e604051612a9b9998979695949392919061680b565b60405180910390a150505095945050505050565b6060612ae45f7f0000000000000000000000000000000000000000000000000000000000000000613c6d90919063ffffffff16565b905090565b6060612b1f60017f0000000000000000000000000000000000000000000000000000000000000000613c6d90919063ffffffff16565b905090565b5f612b8e83612b887ff2aad550cf55f045cb27e9c559f9889fdfb6e6cdaa032301d6ea397784ae51d7888888612b598a61360d565b604051602001612b6d9594939291906168b9565b60405160208183030381529060405280519060200120613660565b84613679565b9050949350505050565b5f612ba2436139ac565b905090565b5f612bb0611dfd565b73ffffffffffffffffffffffffffffffffffffffff16633a46b1a885856040518363ffffffff1660e01b8152600401612bea92919061690a565b602060405180830381865afa158015612c05573d5f5f3e3d5ffd5b505050506040513d601f19601f82011682018060405250810190612c299190616945565b90509392505050565b5f5f825f018054905090505f8114612c8a57612c5c835f01600183612c579190616970565b613d1a565b5f0160069054906101000a900479ffffffffffffffffffffffffffffffffffffffffffffffffffff16612c8c565b5f5b915050919050565b7f08f74ea46ef7894f65eabfb5e6e695de773a000b47c529ab559178069b226401600b5f9054906101000a900473ffffffffffffffffffffffffffffffffffffffff1682604051612ce69291906169a3565b60405180910390a180600b5f6101000a81548173ffffffffffffffffffffffffffffffffffffffff021916908373ffffffffffffffffffffffffffffffffffffffff16021790555050565b5f60019050919050565b5f600754905090565b60608215612d5457819050612d9e565b5f82511115612d6b57612d6682613d2c565b612d9d565b6040517fd6bda27500000000000000000000000000000000000000000000000000000000815260040160405180910390fd5b5b92915050565b5f8163ffffffff1603612dee575f6040517ff1cfbf05000000000000000000000000000000000000000000000000000000008152600401612de59190616a03565b60405180910390fd5b7f7e3f7f0708a84de9203036abaa450dccc85ad5ff52f78c170f3edb55cf5e8828600860069054906101000a900463ffffffff1682604051612e31929190616a4c565b60405180910390a180600860066101000a81548163ffffffff021916908363ffffffff16021790555050565b606060405180602001604052805f815250905090565b7fccb45da8d5717e6c4544694297c4ba5cf151d455c9bb0ed4fc7a38411bc0546160075482604051612ea6929190616490565b60405180910390a18060078190555050565b5f612f51612ec4611dfd565b73ffffffffffffffffffffffffffffffffffffffff16638e539e8c846040518263ffffffff1660e01b8152600401612efc9190614c9b565b602060405180830381865afa158015612f17573d5f5f3e3d5ffd5b505050506040513d601f19601f82011682018060405250810190612f3b9190616945565b612f44846116bf565b612f4c611a2a565b613d34565b9050919050565b365f5f36915091509091565b5f5f5f612f7084613e13565b9150915081612f8457612f83603161331a565b5b8092505050919050565b5f79ffffffffffffffffffffffffffffffffffffffffffffffffffff8016821115612ff35760d0826040517f6dfcc650000000000000000000000000000000000000000000000000000000008152600401612fea929190616aac565b60405180910390fd5b819050919050565b5f5f61300a855f018585613f4a565b91509150935093915050565b5f5f600b5f9054906101000a900473ffffffffffffffffffffffffffffffffffffffff1673ffffffffffffffffffffffffffffffffffffffff1663f27a0c926040518163ffffffff1660e01b8152600401602060405180830381865afa158015613082573d5f5f3e3d5ffd5b505050506040513d601f19601f820116820180604052508101906130a69190616945565b90505f6130b28461423e565b9050600b5f9054906101000a900473ffffffffffffffffffffffffffffffffffffffff1673ffffffffffffffffffffffffffffffffffffffff1663b1c5f4278888885f866040518663ffffffff1660e01b8152600401613116959493929190616b0e565b602060405180830381865afa158015613131573d5f5f3e3d5ffd5b505050506040513d601f19601f820116820180604052508101906131559190616b88565b600c5f8a81526020019081526020015f2081905550600b5f9054906101000a900473ffffffffffffffffffffffffffffffffffffffff1673ffffffffffffffffffffffffffffffffffffffff16638f2a0bb08888885f86886040518763ffffffff1660e01b81526004016131ce96959493929190616bb3565b5f604051808303815f87803b1580156131e5575f5ffd5b505af11580156131f7573d5f5f3e3d5ffd5b5050505061320f824261320a91906166d5565b6139ac565b9250505095945050505050565b5f5f835f0160109054906101000a90046fffffffffffffffffffffffffffffffff169050835f015f9054906101000a90046fffffffffffffffffffffffffffffffff166fffffffffffffffffffffffffffffffff16600182016fffffffffffffffffffffffffffffffff1603613295575f915050613314565b82846001015f836fffffffffffffffffffffffffffffffff166fffffffffffffffffffffffffffffffff1681526020019081526020015f208190555060018101845f0160106101000a8154816fffffffffffffffffffffffffffffffff02191690836fffffffffffffffffffffffffffffffff16021790555060019150505b92915050565b634e487b715f52806020526024601cfd5b600b5f9054906101000a900473ffffffffffffffffffffffffffffffffffffffff1673ffffffffffffffffffffffffffffffffffffffff1663e38335e5348686865f6133768861423e565b6040518763ffffffff1660e01b8152600401613396959493929190616b0e565b5f604051808303818588803b1580156133ad575f5ffd5b505af11580156133bf573d5f5f3e3d5ffd5b5050505050600c5f8681526020019081526020015f205f90555050505050565b5f5f60045f8481526020019081526020015f2090505f815f01601e9054906101000a900460ff1690505f825f01601f9054906101000a900460ff169050811561342e5760079350505050613531565b80156134405760029350505050613531565b5f61344a866112ad565b90505f810361349057856040517f6ad060750000000000000000000000000000000000000000000000000000000081526004016134879190614c9b565b60405180910390fd5b5f61349961199f565b65ffffffffffff1690508082106134b7575f95505050505050613531565b5f6134c188611b73565b90508181106134d95760019650505050505050613531565b6134e28861425b565b15806134f457506134f28861429f565b155b156135085760039650505050505050613531565b5f61351289611aaf565b036135265760049650505050505050613531565b600596505050505050505b919050565b5f5f613544868686866142c6565b90505f600c5f8381526020019081526020015f205490505f5f1b811461360057600b5f9054906101000a900473ffffffffffffffffffffffffffffffffffffffff1673ffffffffffffffffffffffffffffffffffffffff1663c4d252f5826040518263ffffffff1660e01b81526004016135be919061534b565b5f604051808303815f87803b1580156135d5575f5ffd5b505af11580156135e7573d5f5f3e3d5ffd5b50505050600c5f8381526020019081526020015f205f90555b8192505050949350505050565b5f60025f8373ffffffffffffffffffffffffffffffffffffffff1673ffffffffffffffffffffffffffffffffffffffff1681526020019081526020015f205f815480929190600101919050559050919050565b5f61367261366c6143a8565b8361445e565b9050919050565b5f5f8473ffffffffffffffffffffffffffffffffffffffff163b03613710575f5f6136a4858561449e565b50915091505f60038111156136bc576136bb615364565b5b8160038111156136cf576136ce615364565b5b14801561370757508573ffffffffffffffffffffffffffffffffffffffff168273ffffffffffffffffffffffffffffffffffffffff16145b9250505061371e565b61371b8484846144f3565b90505b9392505050565b5f5f60095f8881526020019081526020015f209050806003015f8773ffffffffffffffffffffffffffffffffffffffff1673ffffffffffffffffffffffffffffffffffffffff1681526020019081526020015f205f9054906101000a900460ff16156137c857856040517f71c6af490000000000000000000000000000000000000000000000000000000081526004016137bf9190614dd8565b60405180910390fd5b6001816003015f8873ffffffffffffffffffffffffffffffffffffffff1673ffffffffffffffffffffffffffffffffffffffff1681526020019081526020015f205f6101000a81548160ff0219169083151502179055505f600281111561383257613831615364565b5b60ff168560ff160361385c5783815f015f82825461385091906166d5565b9250508190555061390d565b600160028111156138705761386f615364565b5b60ff168560ff160361389b5783816001015f82825461388f91906166d5565b9250508190555061390c565b6002808111156138ae576138ad615364565b5b60ff168560ff16036138d95783816002015f8282546138cd91906166d5565b9250508190555061390b565b6040517f06b337c200000000000000000000000000000000000000000000000000000000815260040160405180910390fd5b5b5b8391505095945050505050565b50565b5f5f5f5f845f018054905090505f8103613940575f5f5f935093509350506139a5565b5f613959865f016001846139549190616970565b613d1a565b90506001815f015f9054906101000a900465ffffffffffff16825f0160069054906101000a900479ffffffffffffffffffffffffffffffffffffffffffffffffffff1694509450945050505b9193909250565b5f65ffffffffffff80168211156139fd576030826040517f6dfcc6500000000000000000000000000000000000000000000000000000000081526004016139f4929190616c60565b60405180910390fd5b819050919050565b5f5f835f018054905090505f5f90505f8290506005831115613a89575f613a2b84614544565b84613a369190616970565b9050613a44875f0182613d1a565b5f015f9054906101000a900465ffffffffffff1665ffffffffffff168665ffffffffffff161015613a7757809150613a87565b600181613a8491906166d5565b92505b505b5f613a98875f018785856146de565b90505f8114613ae757613ab9875f01600183613ab49190616970565b613d1a565b5f0160069054906101000a900479ffffffffffffffffffffffffffffffffffffffffffffffffffff16613ae9565b5f5b94505050505092915050565b5f81602084010151905092915050565b5f5f8451831180613b1557508284115b15613b25575f5f91509150613c0e565b5f600185613b3391906166d5565b84118015613bab57507f30780000000000000000000000000000000000000000000000000000000000007dffffffffffffffffffffffffffffffffffffffffffffffffffffffffffff1916613b888787614753565b7dffffffffffffffffffffffffffffffffffffffffffffffffffffffffffff1916145b90505f6002613bbb831515614763565b613bc59190616c87565b6028613bd191906166d5565b9050808686613be09190616970565b03613c05575f5f613bf289898961476e565b9150915081819550955050505050613c0e565b5f5f9350935050505b935093915050565b5f63ffffffff8016821115613c65576020826040517f6dfcc650000000000000000000000000000000000000000000000000000000008152600401613c5c929190616d01565b60405180910390fd5b819050919050565b606060ff5f1b8314613c8957613c828361489c565b9050613d14565b818054613c9590615f8b565b80601f0160208091040260200160405190810160405280929190818152602001828054613cc190615f8b565b8015613d0c5780601f10613ce357610100808354040283529160200191613d0c565b820191905f5260205f20905b815481529060010190602001808311613cef57829003601f168201915b505050505090505b92915050565b5f825f528160205f2001905092915050565b805160208201fd5b5f5f5f613d41868661490e565b915091505f8203613d6657838181613d5c57613d5b616d28565b5b0492505050613e0c565b818411613d8557613d84613d7f5f86146012601161492b565b61331a565b5b5f8486880990508181118303925080820391505f855f038616905080860495508083049250600181825f0304019050808402831792505f600287600302189050808702600203810290508087026002038102905080870260020381029050808702600203810290508087026002038102905080870260020381029050808402955050505050505b9392505050565b5f5f5f835f015f9054906101000a90046fffffffffffffffffffffffffffffffff169050835f0160109054906101000a90046fffffffffffffffffffffffffffffffff166fffffffffffffffffffffffffffffffff16816fffffffffffffffffffffffffffffffff1603613e8f575f5f5f1b9250925050613f45565b60019250836001015f826fffffffffffffffffffffffffffffffff166fffffffffffffffffffffffffffffffff1681526020019081526020015f20549150836001015f826fffffffffffffffffffffffffffffffff166fffffffffffffffffffffffffffffffff1681526020019081526020015f205f905560018101845f015f6101000a8154816fffffffffffffffffffffffffffffffff02191690836fffffffffffffffffffffffffffffffff160217905550505b915091565b5f5f5f858054905090505f811115614156575f613f7387600184613f6e9190616970565b613d1a565b90505f815f015f9054906101000a900465ffffffffffff1690505f825f0160069054906101000a900479ffffffffffffffffffffffffffffffffffffffffffffffffffff1690508765ffffffffffff168265ffffffffffff161115614004576040517f2520601d00000000000000000000000000000000000000000000000000000000815260040160405180910390fd5b8765ffffffffffff168265ffffffffffff160361406e5786835f0160066101000a81548179ffffffffffffffffffffffffffffffffffffffffffffffffffff021916908379ffffffffffffffffffffffffffffffffffffffffffffffffffff160217905550614147565b8860405180604001604052808a65ffffffffffff1681526020018979ffffffffffffffffffffffffffffffffffffffffffffffffffff16815250908060018154018082558091505060019003905f5260205f20015f909190919091505f820151815f015f6101000a81548165ffffffffffff021916908365ffffffffffff1602179055506020820151815f0160066101000a81548179ffffffffffffffffffffffffffffffffffffffffffffffffffff021916908379ffffffffffffffffffffffffffffffffffffffffffffffffffff16021790555050505b80879550955050505050614236565b8560405180604001604052808765ffffffffffff1681526020018679ffffffffffffffffffffffffffffffffffffffffffffffffffff16815250908060018154018082558091505060019003905f5260205f20015f909190919091505f820151815f015f6101000a81548165ffffffffffff021916908365ffffffffffff1602179055506020820151815f0160066101000a81548179ffffffffffffffffffffffffffffffffffffffffffffffffffff021916908379ffffffffffffffffffffffffffffffffffffffffffffffffffff16021790555050505f8492509250505b935093915050565b5f813060601b6bffffffffffffffffffffffff1916189050919050565b5f5f60095f8481526020019081526020015f2090508060020154816001015461428491906166d5565b614295614290856112ad565b611dec565b1115915050919050565b5f5f60095f8481526020019081526020015f209050805f0154816001015411915050919050565b5f5f6142d486868686611a87565b9050614338816142e4600761208b565b6142ee600661208b565b6142f8600261208b565b60018060078081111561430e5761430d615364565b5b6143189190616d55565b60026143249190616eb8565b61432e9190616970565b5f1b1818186120af565b50600160045f8381526020019081526020015f205f01601f6101000a81548160ff0219169083151502179055507f789cf55be980739dad1d0699b93b58e806b51c9d96619bfa8fe0a28abaa7b30c816040516143949190614c9b565b60405180910390a180915050949350505050565b5f7f000000000000000000000000000000000000000000000000000000000000000073ffffffffffffffffffffffffffffffffffffffff163073ffffffffffffffffffffffffffffffffffffffff1614801561442357507f000000000000000000000000000000000000000000000000000000000000000046145b15614450577f0000000000000000000000000000000000000000000000000000000000000000905061445b565b614458614944565b90505b90565b5f6040517f190100000000000000000000000000000000000000000000000000000000000081528360028201528260228201526042812091505092915050565b5f5f5f60418451036144de575f5f5f602087015192506040870151915060608701515f1a90506144d0888285856149d9565b9550955095505050506144ec565b5f600285515f1b9250925092505b9250925092565b5f5f631626ba7e60e01b90505f83519050604051828152856004820152604060248201526020820185604483015e60205f60648401838a5afa835f5114601f3d111681169450505050509392505050565b5f60018211614555578190506146d9565b5f8290505f60019050700100000000000000000000000000000000821061458557608082901c9150604081901b90505b6801000000000000000082106145a457604082901c9150602081901b90505b64010000000082106145bf57602082901c9150601081901b90505b6201000082106145d857601082901c9150600881901b90505b61010082106145f057600882901c9150600481901b90505b6010821061460757600482901c9150600281901b90505b6004821061461757600181901b90505b600181600302901c9050600181858161463357614632616d28565b5b048201901c9050600181858161464c5761464b616d28565b5b048201901c9050600181858161466557614664616d28565b5b048201901c9050600181858161467e5761467d616d28565b5b048201901c9050600181858161469757614696616d28565b5b048201901c905060018185816146b0576146af616d28565b5b048201901c90506146d28185816146ca576146c9616d28565b5b048211614763565b8103925050505b919050565b5f5b81831015614748575f6146f38484614ac0565b90508465ffffffffffff166147088783613d1a565b5f015f9054906101000a900465ffffffffffff1665ffffffffffff16111561473257809250614742565b60018161473f91906166d5565b93505b506146e0565b819050949350505050565b5f81602084010151905092915050565b5f8115159050919050565b5f5f5f8590505f60018661478291906166d5565b851180156147fa57507f30780000000000000000000000000000000000000000000000000000000000007dffffffffffffffffffffffffffffffffffffffffffffffffffffffffffff19166147d78388614753565b7dffffffffffffffffffffffffffffffffffffffffffffffffffffffffffff1916145b90505f600261480a831515614763565b6148149190616c87565b90505f5f90505f828961482791906166d5565b90505b87811015614887575f6148456148408784614753565b614ae1565b9050600f8160ff161115614864575f5f97509750505050505050614894565b6010836148719190616c87565b92508060ff16830192505080600101905061482a565b5060018195509550505050505b935093915050565b60605f6148a883614b71565b90505f602067ffffffffffffffff8111156148c6576148c5614e23565b5b6040519080825280601f01601f1916602001820160405280156148f85781602001600182028036833780820191505090505b5090508181528360208201528092505050919050565b5f5f5f198385098385029150818110828203039250509250929050565b5f61493584614763565b82841802821890509392505050565b5f7f8b73c3c69bb8fe3d512ecc4cf759cc79239f7b179b0ffacaa9a75d522b39400f7f00000000000000000000000000000000000000000000000000000000000000007f000000000000000000000000000000000000000000000000000000000000000046306040516020016149be959493929190616f02565b60405160208183030381529060405280519060200120905090565b5f5f5f7f7fffffffffffffffffffffffffffffff5d576e7357a4501ddfe92f46681b20a0845f1c1115614a15575f600385925092509250614ab6565b5f6001888888886040515f8152602001604052604051614a389493929190616f53565b6020604051602081039080840390855afa158015614a58573d5f5f3e3d5ffd5b5050506020604051035190505f73ffffffffffffffffffffffffffffffffffffffff168173ffffffffffffffffffffffffffffffffffffffff1603614aa9575f60015f5f1b93509350935050614ab6565b805f5f5f1b935093509350505b9450945094915050565b5f600282841881614ad457614ad3616d28565b5b0482841601905092915050565b5f5f8260f81c9050602f8160ff16118015614aff5750603a8160ff16105b15614b0f57603081039050614b67565b60608160ff16118015614b25575060678160ff16105b15614b3557605781039050614b66565b60408160ff16118015614b4b575060478160ff16105b15614b5b57603781039050614b65565b60ff915050614b6c565b5b5b809150505b919050565b5f5f60ff835f1c169050601f811115614bb6576040517fb3512b0c00000000000000000000000000000000000000000000000000000000815260040160405180910390fd5b80915050919050565b5f604051905090565b5f5ffd5b5f5ffd5b5f7fffffffff0000000000000000000000000000000000000000000000000000000082169050919050565b614c0481614bd0565b8114614c0e575f5ffd5b50565b5f81359050614c1f81614bfb565b92915050565b5f60208284031215614c3a57614c39614bc8565b5b5f614c4784828501614c11565b91505092915050565b5f8115159050919050565b614c6481614c50565b82525050565b5f602082019050614c7d5f830184614c5b565b92915050565b5f819050919050565b614c9581614c83565b82525050565b5f602082019050614cae5f830184614c8c565b92915050565b614cbd81614c83565b8114614cc7575f5ffd5b50565b5f81359050614cd881614cb4565b92915050565b5f60208284031215614cf357614cf2614bc8565b5b5f614d0084828501614cca565b91505092915050565b5f81519050919050565b5f82825260208201905092915050565b8281835e5f83830152505050565b5f601f19601f8301169050919050565b5f614d4b82614d09565b614d558185614d13565b9350614d65818560208601614d23565b614d6e81614d31565b840191505092915050565b5f6020820190508181035f830152614d918184614d41565b905092915050565b5f73ffffffffffffffffffffffffffffffffffffffff82169050919050565b5f614dc282614d99565b9050919050565b614dd281614db8565b82525050565b5f602082019050614deb5f830184614dc9565b92915050565b614dfa81614db8565b8114614e04575f5ffd5b50565b5f81359050614e1581614df1565b92915050565b5f5ffd5b5f5ffd5b7f4e487b71000000000000000000000000000000000000000000000000000000005f52604160045260245ffd5b614e5982614d31565b810181811067ffffffffffffffff82111715614e7857614e77614e23565b5b80604052505050565b5f614e8a614bbf565b9050614e968282614e50565b919050565b5f67ffffffffffffffff821115614eb557614eb4614e23565b5b614ebe82614d31565b9050602081019050919050565b828183375f83830152505050565b5f614eeb614ee684614e9b565b614e81565b905082815260208101848484011115614f0757614f06614e1f565b5b614f12848285614ecb565b509392505050565b5f82601f830112614f2e57614f2d614e1b565b5b8135614f3e848260208601614ed9565b91505092915050565b5f5f5f5f60808587031215614f5f57614f5e614bc8565b5b5f614f6c87828801614e07565b9450506020614f7d87828801614e07565b9350506040614f8e87828801614cca565b925050606085013567ffffffffffffffff811115614faf57614fae614bcc565b5b614fbb87828801614f1a565b91505092959194509250565b614fd081614bd0565b82525050565b5f602082019050614fe95f830184614fc7565b92915050565b5f67ffffffffffffffff82111561500957615008614e23565b5b602082029050602081019050919050565b5f5ffd5b5f61503061502b84614fef565b614e81565b905080838252602082019050602084028301858111156150535761505261501a565b5b835b8181101561507c57806150688882614e07565b845260208401935050602081019050615055565b5050509392505050565b5f82601f83011261509a57615099614e1b565b5b81356150aa84826020860161501e565b91505092915050565b5f67ffffffffffffffff8211156150cd576150cc614e23565b5b602082029050602081019050919050565b5f6150f06150eb846150b3565b614e81565b905080838252602082019050602084028301858111156151135761511261501a565b5b835b8181101561513c57806151288882614cca565b845260208401935050602081019050615115565b5050509392505050565b5f82601f83011261515a57615159614e1b565b5b813561516a8482602086016150de565b91505092915050565b5f67ffffffffffffffff82111561518d5761518c614e23565b5b602082029050602081019050919050565b5f6151b06151ab84615173565b614e81565b905080838252602082019050602084028301858111156151d3576151d261501a565b5b835b8181101561521a57803567ffffffffffffffff8111156151f8576151f7614e1b565b5b8086016152058982614f1a565b855260208501945050506020810190506151d5565b5050509392505050565b5f82601f83011261523857615237614e1b565b5b813561524884826020860161519e565b91505092915050565b5f819050919050565b61526381615251565b811461526d575f5ffd5b50565b5f8135905061527e8161525a565b92915050565b5f5f5f5f6080858703121561529c5761529b614bc8565b5b5f85013567ffffffffffffffff8111156152b9576152b8614bcc565b5b6152c587828801615086565b945050602085013567ffffffffffffffff8111156152e6576152e5614bcc565b5b6152f287828801615146565b935050604085013567ffffffffffffffff81111561531357615312614bcc565b5b61531f87828801615224565b925050606061533087828801615270565b91505092959194509250565b61534581615251565b82525050565b5f60208201905061535e5f83018461533c565b92915050565b7f4e487b71000000000000000000000000000000000000000000000000000000005f52602160045260245ffd5b600881106153a2576153a1615364565b5b50565b5f8190506153b282615391565b919050565b5f6153c1826153a5565b9050919050565b6153d1816153b7565b82525050565b5f6020820190506153ea5f8301846153c8565b92915050565b5f5f6040838503121561540657615405614bc8565b5b5f61541385828601614cca565b925050602061542485828601614e07565b9150509250929050565b5f6060820190506154415f830186614c8c565b61544e6020830185614c8c565b61545b6040830184614c8c565b949350505050565b5f60ff82169050919050565b61547881615463565b8114615482575f5ffd5b50565b5f813590506154938161546f565b92915050565b5f5f604083850312156154af576154ae614bc8565b5b5f6154bc85828601614cca565b92505060206154cd85828601615485565b9150509250929050565b5f5ffd5b5f5f83601f8401126154f0576154ef614e1b565b5b8235905067ffffffffffffffff81111561550d5761550c6154d7565b5b6020830191508360018202830111156155295761552861501a565b5b9250929050565b5f5f5f5f5f5f5f60c0888a03121561554b5761554a614bc8565b5b5f6155588a828b01614cca565b97505060206155698a828b01615485565b965050604061557a8a828b01614e07565b955050606088013567ffffffffffffffff81111561559b5761559a614bcc565b5b6155a78a828b016154db565b9450945050608088013567ffffffffffffffff8111156155ca576155c9614bcc565b5b6155d68a828b01614f1a565b92505060a088013567ffffffffffffffff8111156155f7576155f6614bcc565b5b6156038a828b01614f1a565b91505092959891949750929550565b5f5f5f5f5f6080868803121561562b5761562a614bc8565b5b5f61563888828901614cca565b955050602061564988828901615485565b945050604086013567ffffffffffffffff81111561566a57615669614bcc565b5b615676888289016154db565b9350935050606086013567ffffffffffffffff81111561569957615698614bcc565b5b6156a588828901614f1a565b9150509295509295909350565b5f65ffffffffffff82169050919050565b6156cc816156b2565b81146156d6575f5ffd5b50565b5f813590506156e7816156c3565b92915050565b5f6020828403121561570257615701614bc8565b5b5f61570f848285016156d9565b91505092915050565b5f5f5f5f606085870312156157305761572f614bc8565b5b5f61573d87828801614cca565b945050602061574e87828801615485565b935050604085013567ffffffffffffffff81111561576f5761576e614bcc565b5b61577b878288016154db565b925092505092959194509250565b5f67ffffffffffffffff8211156157a3576157a2614e23565b5b6157ac82614d31565b9050602081019050919050565b5f6157cb6157c684615789565b614e81565b9050828152602081018484840111156157e7576157e6614e1f565b5b6157f2848285614ecb565b509392505050565b5f82601f83011261580e5761580d614e1b565b5b813561581e8482602086016157b9565b91505092915050565b5f5f5f5f6080858703121561583f5761583e614bc8565b5b5f85013567ffffffffffffffff81111561585c5761585b614bcc565b5b61586887828801615086565b945050602085013567ffffffffffffffff81111561588957615888614bcc565b5b61589587828801615146565b935050604085013567ffffffffffffffff8111156158b6576158b5614bcc565b5b6158c287828801615224565b925050606085013567ffffffffffffffff8111156158e3576158e2614bcc565b5b6158ef878288016157fa565b91505092959194509250565b5f602082840312156159105761590f614bc8565b5b5f61591d84828501614e07565b91505092915050565b5f7fff0000000000000000000000000000000000000000000000000000000000000082169050919050565b61595a81615926565b82525050565b5f81519050919050565b5f82825260208201905092915050565b5f819050602082019050919050565b61599281614c83565b82525050565b5f6159a38383615989565b60208301905092915050565b5f602082019050919050565b5f6159c582615960565b6159cf818561596a565b93506159da8361597a565b805f5b83811015615a0a5781516159f18882615998565b97506159fc836159af565b9250506001810190506159dd565b5085935050505092915050565b5f60e082019050615a2a5f83018a615951565b8181036020830152615a3c8189614d41565b90508181036040830152615a508188614d41565b9050615a5f6060830187614c8c565b615a6c6080830186614dc9565b615a7960a083018561533c565b81810360c0830152615a8b81846159bb565b905098975050505050505050565b5f5f5f5f60808587031215615ab157615ab0614bc8565b5b5f615abe87828801614cca565b9450506020615acf87828801615485565b9350506040615ae087828801614e07565b925050606085013567ffffffffffffffff811115615b0157615b00614bcc565b5b615b0d87828801614f1a565b91505092959194509250565b615b22816156b2565b82525050565b5f602082019050615b3b5f830184615b19565b92915050565b5f5f5f60608486031215615b5857615b57614bc8565b5b5f615b6586828701614e07565b9350506020615b7686828701614cca565b925050604084013567ffffffffffffffff811115615b9757615b96614bcc565b5b615ba386828701614f1a565b9150509250925092565b5f615bb782614d99565b9050919050565b5f615bc882615bad565b9050919050565b615bd881615bbe565b8114615be2575f5ffd5b50565b5f81359050615bf381615bcf565b92915050565b5f60208284031215615c0e57615c0d614bc8565b5b5f615c1b84828501615be5565b91505092915050565b5f5f5f5f5f60a08688031215615c3d57615c3c614bc8565b5b5f615c4a88828901614e07565b9550506020615c5b88828901614e07565b945050604086013567ffffffffffffffff811115615c7c57615c7b614bcc565b5b615c8888828901615146565b935050606086013567ffffffffffffffff811115615ca957615ca8614bcc565b5b615cb588828901615146565b925050608086013567ffffffffffffffff811115615cd657615cd5614bcc565b5b615ce288828901614f1a565b9150509295509295909350565b5f5f83601f840112615d0457615d03614e1b565b5b8235905067ffffffffffffffff811115615d2157615d206154d7565b5b602083019150836001820283011115615d3d57615d3c61501a565b5b9250929050565b5f5f5f5f60608587031215615d5c57615d5b614bc8565b5b5f615d6987828801614e07565b9450506020615d7a87828801614cca565b935050604085013567ffffffffffffffff811115615d9b57615d9a614bcc565b5b615da787828801615cef565b925092505092959194509250565b5f63ffffffff82169050919050565b615dcd81615db5565b8114615dd7575f5ffd5b50565b5f81359050615de881615dc4565b92915050565b5f60208284031215615e0357615e02614bc8565b5b5f615e1084828501615dda565b91505092915050565b5f5f60408385031215615e2f57615e2e614bc8565b5b5f615e3c85828601614e07565b9250506020615e4d85828601614cca565b9150509250929050565b5f5f5f5f5f60a08688031215615e7057615e6f614bc8565b5b5f615e7d88828901614e07565b9550506020615e8e88828901614e07565b9450506040615e9f88828901614cca565b9350506060615eb088828901614cca565b925050608086013567ffffffffffffffff811115615ed157615ed0614bcc565b5b615edd88828901614f1a565b9150509295509295909350565b5f819050919050565b5f615f0d615f08615f0384614d99565b615eea565b614d99565b9050919050565b5f615f1e82615ef3565b9050919050565b5f615f2f82615f14565b9050919050565b615f3f81615f25565b82525050565b5f602082019050615f585f830184615f36565b92915050565b7f4e487b71000000000000000000000000000000000000000000000000000000005f52602260045260245ffd5b5f6002820490506001821680615fa257607f821691505b602082108103615fb557615fb4615f5e565b5b50919050565b5f615fd5615fd0615fcb846156b2565b615eea565b614c83565b9050919050565b615fe581615fbb565b82525050565b5f604082019050615ffe5f830185614c8c565b61600b6020830184615fdc565b9392505050565b7f4e487b71000000000000000000000000000000000000000000000000000000005f52603260045260245ffd5b5f6040820190506160525f830185614c8c565b61605f6020830184614dc9565b9392505050565b5f61607861607384615789565b614e81565b90508281526020810184848401111561609457616093614e1f565b5b61609f848285614d23565b509392505050565b5f82601f8301126160bb576160ba614e1b565b5b81516160cb848260208601616066565b91505092915050565b5f602082840312156160e9576160e8614bc8565b5b5f82015167ffffffffffffffff81111561610657616105614bcc565b5b616112848285016160a7565b91505092915050565b7f4e487b71000000000000000000000000000000000000000000000000000000005f52601160045260245ffd5b5f616152826156b2565b915061615d836156b2565b9250828203905065ffffffffffff81111561617b5761617a61611b565b5b92915050565b5f6060820190506161945f830186614dc9565b6161a16020830185614c8c565b6161ae6040830184614c8c565b949350505050565b5f815190506161c4816156c3565b92915050565b5f602082840312156161df576161de614bc8565b5b5f6161ec848285016161b6565b91505092915050565b5f6161ff826156b2565b915061620a836156b2565b9250828201905065ffffffffffff8111156162285761622761611b565b5b92915050565b5f81905092915050565b5f616243838561622e565b9350616250838584614ecb565b82840190509392505050565b5f616268828486616238565b91508190509392505050565b5f81519050919050565b5f82825260208201905092915050565b5f819050602082019050919050565b6162a681614db8565b82525050565b5f6162b7838361629d565b60208301905092915050565b5f602082019050919050565b5f6162d982616274565b6162e3818561627e565b93506162ee8361628e565b805f5b8381101561631e57815161630588826162ac565b9750616310836162c3565b9250506001810190506162f1565b5085935050505092915050565b5f81519050919050565b5f82825260208201905092915050565b5f819050602082019050919050565b5f81519050919050565b5f82825260208201905092915050565b5f61637882616354565b616382818561635e565b9350616392818560208601614d23565b61639b81614d31565b840191505092915050565b5f6163b1838361636e565b905092915050565b5f602082019050919050565b5f6163cf8261632b565b6163d98185616335565b9350836020820285016163eb85616345565b805f5b85811015616426578484038952815161640785826163a6565b9450616412836163b9565b925060208a019950506001810190506163ee565b50829750879550505050505092915050565b5f6080820190508181035f83015261645081876162cf565b9050818103602083015261646481866159bb565b9050818103604083015261647881856163c5565b9050616487606083018461533c565b95945050505050565b5f6040820190506164a35f830185614c8c565b6164b06020830184614c8c565b9392505050565b5f6060820190506164ca5f830186614c8c565b6164d760208301856153c8565b6164e4604083018461533c565b949350505050565b6164f581614c50565b81146164ff575f5ffd5b50565b5f81519050616510816164ec565b92915050565b5f6020828403121561652b5761652a614bc8565b5b5f61653884828501616502565b91505092915050565b61654a81615463565b82525050565b5f60e0820190506165635f83018a61533c565b6165706020830189614c8c565b61657d6040830188616541565b61658a6060830187614dc9565b6165976080830186614c8c565b6165a460a083018561533c565b6165b160c083018461533c565b98975050505050505050565b5f6080820190506165d05f830187614c8c565b6165dd6020830186616541565b6165ea6040830185614c8c565b81810360608301526165fc8184614d41565b905095945050505050565b5f82825260208201905092915050565b5f61662182616354565b61662b8185616607565b935061663b818560208601614d23565b61664481614d31565b840191505092915050565b5f60a0820190506166625f830188614c8c565b61666f6020830187616541565b61667c6040830186614c8c565b818103606083015261668e8185614d41565b905081810360808301526166a28184616617565b90509695505050505050565b5f6040820190506166c15f830185615fdc565b6166ce6020830184615fdc565b9392505050565b5f6166df82614c83565b91506166ea83614c83565b92508282019050808211156167025761670161611b565b5b92915050565b5f81519050919050565b5f82825260208201905092915050565b5f819050602082019050919050565b5f82825260208201905092915050565b5f61674b82614d09565b6167558185616731565b9350616765818560208601614d23565b61676e81614d31565b840191505092915050565b5f6167848383616741565b905092915050565b5f602082019050919050565b5f6167a282616708565b6167ac8185616712565b9350836020820285016167be85616722565b805f5b858110156167f957848403895281516167da8582616779565b94506167e58361678c565b925060208a019950506001810190506167c1565b50829750879550505050505092915050565b5f6101208201905061681f5f83018c614c8c565b61682c602083018b614dc9565b818103604083015261683e818a6162cf565b9050818103606083015261685281896159bb565b905081810360808301526168668188616798565b905081810360a083015261687a81876163c5565b905061688960c0830186614c8c565b61689660e0830185614c8c565b8181036101008301526168a98184614d41565b90509a9950505050505050505050565b5f60a0820190506168cc5f83018861533c565b6168d96020830187614c8c565b6168e66040830186616541565b6168f36060830185614dc9565b6169006080830184614c8c565b9695505050505050565b5f60408201905061691d5f830185614dc9565b61692a6020830184614c8c565b9392505050565b5f8151905061693f81614cb4565b92915050565b5f6020828403121561695a57616959614bc8565b5b5f61696784828501616931565b91505092915050565b5f61697a82614c83565b915061698583614c83565b925082820390508181111561699d5761699c61611b565b5b92915050565b5f6040820190506169b65f830185614dc9565b6169c36020830184614dc9565b9392505050565b5f819050919050565b5f6169ed6169e86169e3846169ca565b615eea565b614c83565b9050919050565b6169fd816169d3565b82525050565b5f602082019050616a165f8301846169f4565b92915050565b5f616a36616a31616a2c84615db5565b615eea565b614c83565b9050919050565b616a4681616a1c565b82525050565b5f604082019050616a5f5f830185616a3d565b616a6c6020830184616a3d565b9392505050565b5f819050919050565b5f616a96616a91616a8c84616a73565b615eea565b615463565b9050919050565b616aa681616a7c565b82525050565b5f604082019050616abf5f830185616a9d565b616acc6020830184614c8c565b9392505050565b5f815f1b9050919050565b5f616af8616af3616aee846169ca565b616ad3565b615251565b9050919050565b616b0881616ade565b82525050565b5f60a0820190508181035f830152616b2681886162cf565b90508181036020830152616b3a81876159bb565b90508181036040830152616b4e81866163c5565b9050616b5d6060830185616aff565b616b6a608083018461533c565b9695505050505050565b5f81519050616b828161525a565b92915050565b5f60208284031215616b9d57616b9c614bc8565b5b5f616baa84828501616b74565b91505092915050565b5f60c0820190508181035f830152616bcb81896162cf565b90508181036020830152616bdf81886159bb565b90508181036040830152616bf381876163c5565b9050616c026060830186616aff565b616c0f608083018561533c565b616c1c60a0830184614c8c565b979650505050505050565b5f819050919050565b5f616c4a616c45616c4084616c27565b615eea565b615463565b9050919050565b616c5a81616c30565b82525050565b5f604082019050616c735f830185616c51565b616c806020830184614c8c565b9392505050565b5f616c9182614c83565b9150616c9c83614c83565b9250828202616caa81614c83565b91508282048414831517616cc157616cc061611b565b5b5092915050565b5f819050919050565b5f616ceb616ce6616ce184616cc8565b615eea565b615463565b9050919050565b616cfb81616cd1565b82525050565b5f604082019050616d145f830185616cf2565b616d216020830184614c8c565b9392505050565b7f4e487b71000000000000000000000000000000000000000000000000000000005f52601260045260245ffd5b5f616d5f82615463565b9150616d6a83615463565b9250828201905060ff811115616d8357616d8261611b565b5b92915050565b5f8160011c9050919050565b5f5f8291508390505b6001851115616dde57808604811115616dba57616db961611b565b5b6001851615616dc95780820291505b8081029050616dd785616d89565b9450616d9e565b94509492505050565b5f82616df65760019050616eb1565b81616e03575f9050616eb1565b8160018114616e195760028114616e2357616e52565b6001915050616eb1565b60ff841115616e3557616e3461611b565b5b8360020a915084821115616e4c57616e4b61611b565b5b50616eb1565b5060208310610133831016604e8410600b8410161715616e875782820a905083811115616e8257616e8161611b565b5b616eb1565b616e948484846001616d95565b92509050818404811115616eab57616eaa61611b565b5b81810290505b9392505050565b5f616ec282614c83565b9150616ecd83615463565b9250616efa7fffffffffffffffffffffffffffffffffffffffffffffffffffffffffffffffff8484616de7565b905092915050565b5f60a082019050616f155f83018861533c565b616f22602083018761533c565b616f2f604083018661533c565b616f3c6060830185614c8c565b616f496080830184614dc9565b9695505050505050565b5f608082019050616f665f83018761533c565b616f736020830186616541565b616f80604083018561533c565b616f8d606083018461533c565b9594505050505056fea2646970667358221220d6f98307852bf49b1cb470b9e2cb4b0fa59d63418092195126631e65661b43c264736f6c63430008210033","linkReferences":{}},"methodIdentifiers":{"BALLOT_TYPEHASH()":"deaaa7cc","CLOCK_MODE()":"4bf5d7e9","COUNTING_MODE()":"dd4e2ba5","EXTENDED_BALLOT_TYPEHASH()":"2fe3e261","cancel(address[],uint256[],bytes[],bytes32)":"452115d6","castVote(uint256,uint8)":"56781388","castVoteBySig(uint256,uint8,address,bytes)":"8ff262e3","castVoteWithReason(uint256,uint8,string)":"7b3c71d3","castVoteWithReasonAndParams(uint256,uint8,string,bytes)":"5f398a14","castVoteWithReasonAndParamsBySig(uint256,uint8,address,string,bytes,bytes)":"5b8d0e0d","clock()":"91ddadf4","eip712Domain()":"84b0196e","execute(address[],uint256[],bytes[],bytes32)":"2656227d","getProposalId(address[],uint256[],bytes[],bytes32)":"a8f8a668","getVotes(address,uint256)":"eb9019d4","getVotesWithParams(address,uint256,bytes)":"9a802a6d","hasVoted(uint256,address)":"43859632","hashProposal(address[],uint256[],bytes[],bytes32)":"c59057e4","name()":"06fdde03","nonces(address)":"7ecebe00","onERC1155BatchReceived(address,address,uint256[],uint256[],bytes)":"bc197c81","onERC1155Received(address,address,uint256,uint256,bytes)":"f23a6e61","onERC721Received(address,address,uint256,bytes)":"150b7a02","proposalDeadline(uint256)":"c01f9e37","proposalEta(uint256)":"ab58fb8e","proposalNeedsQueuing(uint256)":"a9a95294","proposalProposer(uint256)":"143489d0","proposalSnapshot(uint256)":"2d63f693","proposalThreshold()":"b58131b0","proposalVotes(uint256)":"544ffc9c","propose(address[],uint256[],bytes[],string)":"7d5e81e2","queue(address[],uint256[],bytes[],bytes32)":"160cbed7","quorum(uint256)":"f8ce560a","quorumDenominator()":"97c3d334","quorumNumerator()":"a7713a70","quorumNumerator(uint256)":"60c4247f","relay(address,uint256,bytes)":"c28bc2fa","setProposalThreshold(uint256)":"ece40cc1","setVotingDelay(uint48)":"79051887","setVotingPeriod(uint32)":"e540d01d","state(uint256)":"3e4f49e6","supportsInterface(bytes4)":"01ffc9a7","timelock()":"d33219b4","token()":"fc0c546a","updateQuorumNumerator(uint256)":"06f3f9e6","updateTimelock(address)":"a890c910","version()":"54fd4d50","votingDelay()":"3932abb1","votingPeriod()":"02a251a3"},"id":93}