{"abi":[{"type":"function","name":"UPGRADE_INTERFACE_VERSION","inputs":[],"outputs":[{"name":"","type":"string","internalType":"string"}],"stateMutability":"view"},{"type":"function","name":"allowance","inputs":[{"name":"owner","type":"address","internalType":"address"},{"name":"spender","type":"address","internalType":"address"}],"outputs":[{"name":"","type":"uint256","internalType":"uint256"}],"stateMutability":"view"},{"type":"function","name":"approve","inputs":[{"name":"spender","type":"address","internalType":"address"},{"name":"value","type":"uint256","internalType":"uint256"}],"outputs":[{"name":"","type":"bool","internalType":"bool"}],"stateMutability":"nonpayable"},{"type":"function","name":"asset","inputs":[],"outputs":[{"name":"","type":"address","internalType":"address"}],"stateMutability":"view"},{"type":"function","name":"balanceOf","inputs":[{"name":"account","type":"address","internalType":"address"}],"outputs":[{"name":"","type":"uint256","internalType":"uint256"}],"stateMutability":"view"},{"type":"function","name":"convertToAssets","inputs":[{"name":"shares","type":"uint256","internalType":"uint256"}],"outputs":[{"name":"","type":"uint256","internalType":"uint256"}],"stateMutability":"view"},{"type":"function","name":"convertToShares","inputs":[{"name":"assets","type":"uint256","internalType":"uint256"}],"outputs":[{"name":"","type":"uint256","internalType":"uint256"}],"stateMutability":"view"},{"type":"function","name":"decimals","inputs":[],"outputs":[{"name":"","type":"uint8","internalType":"uint8"}],"stateMutability":"view"},{"type":"function","name":"deposit","inputs":[{"name":"assets","type":"uint256","internalType":"uint256"},{"name":"receiver","type":"address","internalType":"address"}],"outputs":[{"name":"shares","type":"uint256","internalType":"uint256"}],"stateMutability":"nonpayable"},{"type":"function","name":"harvest","inputs":[{"name":"amount","type":"uint256","internalType":"uint256"}],"outputs":[],"stateMutability":"nonpayable"},{"type":"function","name":"initialize","inputs":[{"name":"asset_","type":"address","internalType":"address"},{"name":"owner_","type":"address","internalType":"address"}],"outputs":[],"stateMutability":"nonpayable"},{"type":"function","name":"maxDeposit","inputs":[{"name":"","type":"address","internalType":"address"}],"outputs":[{"name":"","type":"uint256","internalType":"uint256"}],"stateMutability":"view"},{"type":"function","name":"maxMint","inputs":[{"name":"","type":"address","internalType":"address"}],"outputs":[{"name":"","type":"uint256","internalType":"uint256"}],"stateMutability":"view"},{"type":"function","name":"maxRedeem","inputs":[{"name":"owner","type":"address","internalType":"address"}],"outputs":[{"name":"","type":"uint256","internalType":"uint256"}],"stateMutability":"view"},{"type":"function","name":"maxWithdraw","inputs":[{"name":"owner","type":"address","internalType":"address"}],"outputs":[{"name":"","type":"uint256","internalType":"uint256"}],"stateMutability":"view"},{"type":"function","name":"mint","inputs":[{"name":"shares","type":"uint256","internalType":"uint256"},{"name":"receiver","type":"address","internalType":"address"}],"outputs":[{"name":"assets","type":"uint256","internalType":"uint256"}],"stateMutability":"nonpayable"},{"type":"function","name":"name","inputs":[],"outputs":[{"name":"","type":"string","internalType":"string"}],"stateMutability":"view"},{"type":"function","name":"owner","inputs":[],"outputs":[{"name":"","type":"address","internalType":"address"}],"stateMutability":"view"},{"type":"function","name":"previewDeposit","inputs":[{"name":"assets","type":"uint256","internalType":"uint256"}],"outputs":[{"name":"","type":"uint256","internalType":"uint256"}],"stateMutability":"view"},{"type":"function","name":"previewMint","inputs":[{"name":"shares","type":"uint256","internalType":"uint256"}],"outputs":[{"name":"","type":"uint256","internalType":"uint256"}],"stateMutability":"view"},{"type":"function","name":"previewRedeem","inputs":[{"name":"shares","type":"uint256","internalType":"uint256"}],"outputs":[{"name":"","type":"uint256","internalType":"uint256"}],"stateMutability":"view"},{"type":"function","name":"previewWithdraw","inputs":[{"name":"assets","type":"uint256","internalType":"uint256"}],"outputs":[{"name":"","type":"uint256","internalType":"uint256"}],"stateMutability":"view"},{"type":"function","name":"proxiableUUID","inputs":[],"outputs":[{"name":"","type":"bytes32","internalType":"bytes32"}],"stateMutability":"view"},{"type":"function","name":"redeem","inputs":[{"name":"shares","type":"uint256","internalType":"uint256"},{"name":"receiver","type":"address","internalType":"address"},{"name":"owner","type":"address","internalType":"address"}],"outputs":[{"name":"assets","type":"uint256","internalType":"uint256"}],"stateMutability":"nonpayable"},{"type":"function","name":"renounceOwnership","inputs":[],"outputs":[],"stateMutability":"nonpayable"},{"type":"function","name":"symbol","inputs":[],"outputs":[{"name":"","type":"string","internalType":"string"}],"stateMutability":"view"},{"type":"function","name":"totalAssets","inputs":[],"outputs":[{"name":"","type":"uint256","internalType":"uint256"}],"stateMutability":"view"},{"type":"function","name":"totalSupply","inputs":[],"outputs":[{"name":"","type":"uint256","internalType":"uint256"}],"stateMutability":"view"},{"type":"function","name":"totalYieldHarvested","inputs":[],"outputs":[{"name":"","type":"uint256","internalType":"uint256"}],"stateMutability":"view"},{"type":"function","name":"transfer","inputs":[{"name":"to","type":"address","internalType":"address"},{"name":"value","type":"uint256","internalType":"uint256"}],"outputs":[{"name":"","type":"bool","internalType":"bool"}],"stateMutability":"nonpayable"},{"type":"function","name":"transferFrom","inputs":[{"name":"from","type":"address","internalType":"address"},{"name":"to","type":"address","internalType":"address"},{"name":"value","type":"uint256","internalType":"uint256"}],"outputs":[{"name":"","type":"bool","internalType":"bool"}],"stateMutability":"nonpayable"},{"type":"function","name":"transferOwnership","inputs":[{"name":"newOwner","type":"address","internalType":"address"}],"outputs":[],"stateMutability":"nonpayable"},{"type":"function","name":"upgradeToAndCall","inputs":[{"name":"newImplementation","type":"address","internalType":"address"},{"name":"data","type":"bytes","internalType":"bytes"}],"outputs":[],"stateMutability":"payable"},{"type":"function","name":"version","inputs":[],"outputs":[{"name":"","type":"string","internalType":"string"}],"stateMutability":"pure"},{"type":"function","name":"withdraw","inputs":[{"name":"assets","type":"uint256","internalType":"uint256"},{"name":"receiver","type":"address","internalType":"address"},{"name":"owner","type":"address","internalType":"address"}],"outputs":[{"name":"shares","type":"uint256","internalType":"uint256"}],"stateMutability":"nonpayable"},{"type":"event","name":"Approval","inputs":[{"name":"owner","type":"address","indexed":true,"internalType":"address"},{"name":"spender","type":"address","indexed":true,"internalType":"address"},{"name":"value","type":"uint256","indexed":false,"internalType":"uint256"}],"anonymous":false},{"type":"event","name":"Deposit","inputs":[{"name":"sender","type":"address","indexed":true,"internalType":"address"},{"name":"owner","type":"address","indexed":true,"internalType":"address"},{"name":"assets","type":"uint256","indexed":false,"internalType":"uint256"},{"name":"shares","type":"uint256","indexed":false,"internalType":"uint256"}],"anonymous":false},{"type":"event","name":"Initialized","inputs":[{"name":"version","type":"uint64","indexed":false,"internalType":"uint64"}],"anonymous":false},{"type":"event","name":"OwnershipTransferred","inputs":[{"name":"previousOwner","type":"address","indexed":true,"internalType":"address"},{"name":"newOwner","type":"address","indexed":true,"internalType":"address"}],"anonymous":false},{"type":"event","name":"Transfer","inputs":[{"name":"from","type":"address","indexed":true,"internalType":"address"},{"name":"to","type":"address","indexed":true,"internalType":"address"},{"name":"value","type":"uint256","indexed":false,"internalType":"uint256"}],"anonymous":false},{"type":"event","name":"Upgraded","inputs":[{"name":"implementation","type":"address","indexed":true,"internalType":"address"}],"anonymous":false},{"type":"event","name":"Withdraw","inputs":[{"name":"sender","type":"address","indexed":true,"internalType":"address"},{"name":"receiver","type":"address","indexed":true,"internalType":"address"},{"name":"owner","type":"address","indexed":true,"internalType":"address"},{"name":"assets","type":"uint256","indexed":false,"internalType":"uint256"},{"name":"shares","type":"uint256","indexed":false,"internalType":"uint256"}],"anonymous":false},{"type":"event","name":"YieldHarvested","inputs":[{"name":"amount","type":"uint256","indexed":false,"internalType":"uint256"}],"anonymous":false},{"type":"error","name":"AddressEmptyCode","inputs":[{"name":"target","type":"address","internalType":"address"}]},{"type":"error","name":"ERC1967InvalidImplementation","inputs":[{"name":"implementation","type":"address","internalType":"address"}]},{"type":"error","name":"ERC1967NonPayable","inputs":[]},{"type":"error","name":"ERC20InsufficientAllowance","inputs":[{"name":"spender","type":"address","internalType":"address"},{"name":"allowance","type":"uint256","internalType":"uint256"},{"name":"needed","type":"uint256","internalType":"uint256"}]},{"type":"error","name":"ERC20InsufficientBalance","inputs":[{"name":"sender","type":"address","internalType":"address"},{"name":"balance","type":"uint256","internalType":"uint256"},{"name":"needed","type":"uint256","internalType":"uint256"}]},{"type":"error","name":"ERC20InvalidApprover","inputs":[{"name":"approver","type":"address","internalType":"address"}]},{"type":"error","name":"ERC20InvalidReceiver","inputs":[{"name":"receiver","type":"address","internalType":"address"}]},{"type":"error","name":"ERC20InvalidSender","inputs":[{"name":"sender","type":"address","internalType":"address"}]},{"type":"error","name":"ERC20InvalidSpender","inputs":[{"name":"spender","type":"address","internalType":"address"}]},{"type":"error","name":"ERC4626ExceededMaxDeposit","inputs":[{"name":"receiver","type":"address","internalType":"address"},{"name":"assets","type":"uint256","internalType":"uint256"},{"name":"max","type":"uint256","internalType":"uint256"}]},{"type":"error","name":"ERC4626ExceededMaxMint","inputs":[{"name":"receiver","type":"address","internalType":"address"},{"name":"shares","type":"uint256","internalType":"uint256"},{"name":"max","type":"uint256","internalType":"uint256"}]},{"type":"error","name":"ERC4626ExceededMaxRedeem","inputs":[{"name":"owner","type":"address","internalType":"address"},{"name":"shares","type":"uint256","internalType":"uint256"},{"name":"max","type":"uint256","internalType":"uint256"}]},{"type":"error","name":"ERC4626ExceededMaxWithdraw","inputs":[{"name":"owner","type":"address","internalType":"address"},{"name":"assets","type":"uint256","internalType":"uint256"},{"name":"max","type":"uint256","internalType":"uint256"}]},{"type":"error","name":"FailedCall","inputs":[]},{"type":"error","name":"InvalidInitialization","inputs":[]},{"type":"error","name":"NotInitializing","inputs":[]},{"type":"error","name":"OwnableInvalidOwner","inputs":[{"name":"owner","type":"address","internalType":"address"}]},{"type":"error","name":"OwnableUnauthorizedAccount","inputs":[{"name":"account","type":"address","internalType":"address"}]},{"type":"error","name":"ReentrancyGuardReentrantCall","inputs":[]},{"type":"error","name":"SafeERC20FailedOperation","inputs":[{"name":"token","type":"address","internalType":"address"}]},{"type":"error","name":"UUPSUnauthorizedCallContext","inputs":[]},{"type":"error","name":"UUPSUnsupportedProxiableUUID","inputs":[{"name":"slot","type":"bytes32","internalType":"bytes32"}]}],"bytecode":{"object":"0x60a06040523073ffffffffffffffffffffffffffffffffffffffff1660809073ffffffffffffffffffffffffffffffffffffffff16815250348015610042575f5ffd5b50600161006161005661007a60201b60201c565b6100a360201b60201c565b5f01819055506100756100ac60201b60201c565b610227565b5f7f9b779b17422d0df92223018b32b4d1fa46e071723d6817e2486d003becc55f005f1b905090565b5f819050919050565b5f6100bb6101aa60201b60201c565b9050805f0160089054906101000a900460ff1615610105576040517ff92ee8a900000000000000000000000000000000000000000000000000000000815260040160405180910390fd5b67ffffffffffffffff8016815f015f9054906101000a900467ffffffffffffffff1667ffffffffffffffff16146101a75767ffffffffffffffff815f015f6101000a81548167ffffffffffffffff021916908367ffffffffffffffff1602179055507fc7f505b2f371ae2175ee4913f4499e1f2633a7b5936321eed1cdaeb6115181d267ffffffffffffffff60405161019e919061020e565b60405180910390a15b50565b5f5f6101ba6101c360201b60201c565b90508091505090565b5f7ff0c57e16840df040f15088dc2f81fe391c3923bec73e23a9662efc9c229c6a005f1b905090565b5f67ffffffffffffffff82169050919050565b610208816101ec565b82525050565b5f6020820190506102215f8301846101ff565b92915050565b608051613af461024d5f395f818161168a015281816116df01526118990152613af45ff3fe608060405260043610610203575f3560e01c806370a0823111610117578063ba0876521161009f578063d905777e1161006e578063d905777e146107ef578063dd62ed3e1461082b578063ddc6326214610867578063ef8b30f71461088f578063f2fde38b146108cb57610203565b8063ba087652146106ff578063c63d75b61461073b578063c6e6f59214610777578063ce96cb77146107b357610203565b806395d89b41116100e657806395d89b41146105f7578063a9059cbb14610621578063ad3cb1cc1461065d578063b3d7f6b914610687578063b460af94146106c357610203565b806370a082311461053f578063715018a61461057b5780638da5cb5b1461059157806394bf804d146105bb57610203565b8063313ce5671161019a5780634cdad506116101695780634cdad506146104575780634f1ef2861461049357806352d1902d146104af57806354fd4d50146104d95780636e553f651461050357610203565b8063313ce5671461039f57806338d52e0f146103c9578063402d267d146103f3578063485cc9551461042f57610203565b80630a28a477116101d65780630a28a477146102d357806318160ddd1461030f57806322a6619e1461033957806323b872dd1461036357610203565b806301e1d1141461020757806306fdde031461023157806307a2d13a1461025b578063095ea7b314610297575b5f5ffd5b348015610212575f5ffd5b5061021b6108f3565b6040516102289190612cff565b60405180910390f35b34801561023c575f5ffd5b50610245610978565b6040516102529190612d88565b60405180910390f35b348015610266575f5ffd5b50610281600480360381019061027c9190612de3565b610a16565b60405161028e9190612cff565b60405180910390f35b3480156102a2575f5ffd5b506102bd60048036038101906102b89190612e68565b610a28565b6040516102ca9190612ec0565b60405180910390f35b3480156102de575f5ffd5b506102f960048036038101906102f49190612de3565b610a4a565b6040516103069190612cff565b60405180910390f35b34801561031a575f5ffd5b50610323610a5d565b6040516103309190612cff565b60405180910390f35b348015610344575f5ffd5b5061034d610a74565b60405161035a9190612cff565b60405180910390f35b34801561036e575f5ffd5b5061038960048036038101906103849190612ed9565b610a79565b6040516103969190612ec0565b60405180910390f35b3480156103aa575f5ffd5b506103b3610aa7565b6040516103c09190612f44565b60405180910390f35b3480156103d4575f5ffd5b506103dd610adc565b6040516103ea9190612f6c565b60405180910390f35b3480156103fe575f5ffd5b5061041960048036038101906104149190612f85565b610b11565b6040516104269190612cff565b60405180910390f35b34801561043a575f5ffd5b5061045560048036038101906104509190612fb0565b610b3a565b005b348015610462575f5ffd5b5061047d60048036038101906104789190612de3565b610e15565b60405161048a9190612cff565b60405180910390f35b6104ad60048036038101906104a8919061311a565b610e27565b005b3480156104ba575f5ffd5b506104c3610e46565b6040516104d0919061318c565b60405180910390f35b3480156104e4575f5ffd5b506104ed610e77565b6040516104fa9190612d88565b60405180910390f35b34801561050e575f5ffd5b50610529600480360381019061052491906131a5565b610eb4565b6040516105369190612cff565b60405180910390f35b34801561054a575f5ffd5b5061056560048036038101906105609190612f85565b610ed7565b6040516105729190612cff565b60405180910390f35b348015610586575f5ffd5b5061058f610f2a565b005b34801561059c575f5ffd5b506105a5610f3d565b6040516105b29190612f6c565b60405180910390f35b3480156105c6575f5ffd5b506105e160048036038101906105dc91906131a5565b610f72565b6040516105ee9190612cff565b60405180910390f35b348015610602575f5ffd5b5061060b610f95565b6040516106189190612d88565b60405180910390f35b34801561062c575f5ffd5b5061064760048036038101906106429190612e68565b611033565b6040516106549190612ec0565b60405180910390f35b348015610668575f5ffd5b50610671611055565b60405161067e9190612d88565b60405180910390f35b348015610692575f5ffd5b506106ad60048036038101906106a89190612de3565b61108e565b6040516106ba9190612cff565b60405180910390f35b3480156106ce575f5ffd5b506106e960048036038101906106e491906131e3565b6110a1565b6040516106f69190612cff565b60405180910390f35b34801561070a575f5ffd5b50610725600480360381019061072091906131e3565b6110c6565b6040516107329190612cff565b60405180910390f35b348015610746575f5ffd5b50610761600480360381019061075c9190612f85565b6110eb565b60405161076e9190612cff565b60405180910390f35b348015610782575f5ffd5b5061079d60048036038101906107989190612de3565b611114565b6040516107aa9190612cff565b60405180910390f35b3480156107be575f5ffd5b506107d960048036038101906107d49190612f85565b611126565b6040516107e69190612cff565b60405180910390f35b3480156107fa575f5ffd5b5061081560048036038101906108109190612f85565b61113f565b6040516108229190612cff565b60405180910390f35b348015610836575f5ffd5b50610851600480360381019061084c9190612fb0565b611150565b60405161085e9190612cff565b60405180910390f35b348015610872575f5ffd5b5061088d60048036038101906108889190612de3565b6111e0565b005b34801561089a575f5ffd5b506108b560048036038101906108b09190612de3565b611300565b6040516108c29190612cff565b60405180910390f35b3480156108d6575f5ffd5b506108f160048036038101906108ec9190612f85565b611312565b005b5f6108fc610adc565b73ffffffffffffffffffffffffffffffffffffffff166370a08231306040518263ffffffff1660e01b81526004016109349190612f6c565b602060405180830381865afa15801561094f573d5f5f3e3d5ffd5b505050506040513d601f19601f820116820180604052508101906109739190613247565b905090565b60605f610983611396565b90508060030180546109949061329f565b80601f01602080910402602001604051908101604052809291908181526020018280546109c09061329f565b8015610a0b5780601f106109e257610100808354040283529160200191610a0b565b820191905f5260205f20905b8154815290600101906020018083116109ee57829003601f168201915b505050505091505090565b5f610a21825f6113bd565b9050919050565b5f5f610a32611415565b9050610a3f81858561141c565b600191505092915050565b5f610a5682600161142e565b9050919050565b5f5f610a67611396565b9050806002015491505090565b5f5481565b5f5f610a83611415565b9050610a90858285611486565b610a9b858585611519565b60019150509392505050565b5f5f610ab1611609565b9050610abb611630565b815f0160149054906101000a900460ff16610ad691906132fc565b91505090565b5f5f610ae6611609565b9050805f015f9054906101000a900473ffffffffffffffffffffffffffffffffffffffff1691505090565b5f7fffffffffffffffffffffffffffffffffffffffffffffffffffffffffffffffff9050919050565b5f610b43611637565b90505f815f0160089054906101000a900460ff161590505f825f015f9054906101000a900467ffffffffffffffff1690505f5f8267ffffffffffffffff16148015610b8b5750825b90505f60018367ffffffffffffffff16148015610bbe57505f3073ffffffffffffffffffffffffffffffffffffffff163b145b905081158015610bcc575080155b15610c03576040517ff92ee8a900000000000000000000000000000000000000000000000000000000815260040160405180910390fd5b6001855f015f6101000a81548167ffffffffffffffff021916908367ffffffffffffffff1602179055508315610c50576001855f0160086101000a81548160ff0219169083151502179055505b5f73ffffffffffffffffffffffffffffffffffffffff168773ffffffffffffffffffffffffffffffffffffffff1603610cbe576040517f08c379a0000000000000000000000000000000000000000000000000000000008152600401610cb59061337a565b60405180910390fd5b5f73ffffffffffffffffffffffffffffffffffffffff168673ffffffffffffffffffffffffffffffffffffffff1603610d2c576040517f08c379a0000000000000000000000000000000000000000000000000000000008152600401610d23906133e2565b60405180910390fd5b610da06040518060400160405280601681526020017f44654669205375706572205661756c74205368617265000000000000000000008152506040518060400160405280600481526020017f445356530000000000000000000000000000000000000000000000000000000081525061164a565b610da987611660565b610db286611674565b8315610e0c575f855f0160086101000a81548160ff0219169083151502179055507fc7f505b2f371ae2175ee4913f4499e1f2633a7b5936321eed1cdaeb6115181d26001604051610e039190613455565b60405180910390a15b50505050505050565b5f610e20825f6113bd565b9050919050565b610e2f611688565b610e388261176e565b610e428282611779565b5050565b5f610e4f611897565b7f360894a13ba1a3210667c828492db98dca3e2076cc3735a920a3ca505d382bbc5f1b905090565b60606040518060400160405280600281526020017f5632000000000000000000000000000000000000000000000000000000000000815250905090565b5f610ebd61191e565b610ec78383611940565b9050610ed16119c0565b92915050565b5f5f610ee1611396565b9050805f015f8473ffffffffffffffffffffffffffffffffffffffff1673ffffffffffffffffffffffffffffffffffffffff1681526020019081526020015f2054915050919050565b610f326119da565b610f3b5f611a61565b565b5f5f610f47611b32565b9050805f015f9054906101000a900473ffffffffffffffffffffffffffffffffffffffff1691505090565b5f610f7b61191e565b610f858383611b59565b9050610f8f6119c0565b92915050565b60605f610fa0611396565b9050806004018054610fb19061329f565b80601f0160208091040260200160405190810160405280929190818152602001828054610fdd9061329f565b80156110285780601f10610fff57610100808354040283529160200191611028565b820191905f5260205f20905b81548152906001019060200180831161100b57829003601f168201915b505050505091505090565b5f5f61103d611415565b905061104a818585611519565b600191505092915050565b6040518060400160405280600581526020017f352e302e3000000000000000000000000000000000000000000000000000000081525081565b5f61109a8260016113bd565b9050919050565b5f6110aa61191e565b6110b5848484611bd9565b90506110bf6119c0565b9392505050565b5f6110cf61191e565b6110da848484611c5b565b90506110e46119c0565b9392505050565b5f7fffffffffffffffffffffffffffffffffffffffffffffffffffffffffffffffff9050919050565b5f61111f825f61142e565b9050919050565b5f6111386111338361113f565b610e15565b9050919050565b5f61114982610ed7565b9050919050565b5f5f61115a611396565b9050806001015f8573ffffffffffffffffffffffffffffffffffffffff1673ffffffffffffffffffffffffffffffffffffffff1681526020019081526020015f205f8473ffffffffffffffffffffffffffffffffffffffff1673ffffffffffffffffffffffffffffffffffffffff1681526020019081526020015f205491505092915050565b6111e86119da565b5f811161122a576040517f08c379a0000000000000000000000000000000000000000000000000000000008152600401611221906134b8565b60405180910390fd5b611232610adc565b73ffffffffffffffffffffffffffffffffffffffff166323b872dd3330846040518463ffffffff1660e01b815260040161126e939291906134d6565b6020604051808303815f875af115801561128a573d5f5f3e3d5ffd5b505050506040513d601f19601f820116820180604052508101906112ae9190613535565b50805f5f8282546112bf9190613560565b925050819055507feb2d114a827fe0da3db4c0e374010959cf461f7ed76987aeff51666dea9add9b816040516112f59190612cff565b60405180910390a150565b5f61130b825f61142e565b9050919050565b61131a6119da565b5f73ffffffffffffffffffffffffffffffffffffffff168173ffffffffffffffffffffffffffffffffffffffff160361138a575f6040517f1e4fbdf70000000000000000000000000000000000000000000000000000000081526004016113819190612f6c565b60405180910390fd5b61139381611a61565b50565b5f7f52c63247e1f47db19d5ce0460030c497f067ca4cebf71ba98eeadabe20bace00905090565b5f61140d60016113cb6108f3565b6113d59190613560565b6113dd611630565b600a6113e991906136c2565b6113f1610a5d565b6113fb9190613560565b8486611cdd909392919063ffffffff16565b905092915050565b5f33905090565b6114298383836001611d2a565b505050565b5f61147e61143a611630565b600a61144691906136c2565b61144e610a5d565b6114589190613560565b60016114626108f3565b61146c9190613560565b8486611cdd909392919063ffffffff16565b905092915050565b5f6114918484611150565b90507fffffffffffffffffffffffffffffffffffffffffffffffffffffffffffffffff8110156115135781811015611504578281836040517ffb8f41b20000000000000000000000000000000000000000000000000000000081526004016114fb9392919061370c565b60405180910390fd5b61151284848484035f611d2a565b5b50505050565b5f73ffffffffffffffffffffffffffffffffffffffff168373ffffffffffffffffffffffffffffffffffffffff1603611589575f6040517f96c6fd1e0000000000000000000000000000000000000000000000000000000081526004016115809190612f6c565b60405180910390fd5b5f73ffffffffffffffffffffffffffffffffffffffff168273ffffffffffffffffffffffffffffffffffffffff16036115f9575f6040517fec442f050000000000000000000000000000000000000000000000000000000081526004016115f09190612f6c565b60405180910390fd5b611604838383611f07565b505050565b5f7f0773e532dfede91f04b12a73d3d2acd361424f41f76b4fb79f090161e36b4e00905090565b5f5f905090565b5f5f611641612136565b90508091505090565b61165261215f565b61165c828261219f565b5050565b61166861215f565b611671816121db565b50565b61167c61215f565b6116858161226d565b50565b7f000000000000000000000000000000000000000000000000000000000000000073ffffffffffffffffffffffffffffffffffffffff163073ffffffffffffffffffffffffffffffffffffffff16148061173557507f000000000000000000000000000000000000000000000000000000000000000073ffffffffffffffffffffffffffffffffffffffff1661171c6122f1565b73ffffffffffffffffffffffffffffffffffffffff1614155b1561176c576040517fe07c8dba00000000000000000000000000000000000000000000000000000000815260040160405180910390fd5b565b6117766119da565b50565b8173ffffffffffffffffffffffffffffffffffffffff166352d1902d6040518163ffffffff1660e01b8152600401602060405180830381865afa9250505080156117e157506040513d601f19601f820116820180604052508101906117de919061376b565b60015b61182257816040517f4c9c8ce30000000000000000000000000000000000000000000000000000000081526004016118199190612f6c565b60405180910390fd5b7f360894a13ba1a3210667c828492db98dca3e2076cc3735a920a3ca505d382bbc5f1b811461188857806040517faa1d49a400000000000000000000000000000000000000000000000000000000815260040161187f919061318c565b60405180910390fd5b6118928383612344565b505050565b7f000000000000000000000000000000000000000000000000000000000000000073ffffffffffffffffffffffffffffffffffffffff163073ffffffffffffffffffffffffffffffffffffffff161461191c576040517fe07c8dba00000000000000000000000000000000000000000000000000000000815260040160405180910390fd5b565b6119266123b6565b60026119386119336123f7565b612420565b5f0181905550565b5f5f61194b83610b11565b905080841115611996578284826040517f79012fb200000000000000000000000000000000000000000000000000000000815260040161198d9392919061370c565b60405180910390fd5b5f6119a085611300565b90506119b56119ad611415565b858784612429565b809250505092915050565b60016119d26119cd6123f7565b612420565b5f0181905550565b6119e2611415565b73ffffffffffffffffffffffffffffffffffffffff16611a00610f3d565b73ffffffffffffffffffffffffffffffffffffffff1614611a5f57611a23611415565b6040517f118cdaa7000000000000000000000000000000000000000000000000000000008152600401611a569190612f6c565b60405180910390fd5b565b5f611a6a611b32565b90505f815f015f9054906101000a900473ffffffffffffffffffffffffffffffffffffffff16905082825f015f6101000a81548173ffffffffffffffffffffffffffffffffffffffff021916908373ffffffffffffffffffffffffffffffffffffffff1602179055508273ffffffffffffffffffffffffffffffffffffffff168173ffffffffffffffffffffffffffffffffffffffff167f8be0079c531659141344cd1fd0a4f28419497f9722a3daafe3b4186f6b6457e060405160405180910390a3505050565b5f7f9016d09d72d40fdae2fd8ceac6b6234c7706214fd39c1cd1e609a0528c199300905090565b5f5f611b64836110eb565b905080841115611baf578284826040517f284ff667000000000000000000000000000000000000000000000000000000008152600401611ba69392919061370c565b60405180910390fd5b5f611bb98561108e565b9050611bce611bc6611415565b858388612429565b809250505092915050565b5f5f611be483611126565b905080851115611c2f578285826040517ffe9cceec000000000000000000000000000000000000000000000000000000008152600401611c269392919061370c565b60405180910390fd5b5f611c3986610a4a565b9050611c4f611c46611415565b868689856124aa565b80925050509392505050565b5f5f611c668361113f565b905080851115611cb1578285826040517fb94abeec000000000000000000000000000000000000000000000000000000008152600401611ca89392919061370c565b60405180910390fd5b5f611cbb86610e15565b9050611cd1611cc8611415565b8686848a6124aa565b80925050509392505050565b5f611d0b611cea83612582565b8015611d0657505f8480611d0157611d00613796565b5b868809115b6125af565b611d168686866125ba565b611d209190613560565b9050949350505050565b5f611d33611396565b90505f73ffffffffffffffffffffffffffffffffffffffff168573ffffffffffffffffffffffffffffffffffffffff1603611da5575f6040517fe602df05000000000000000000000000000000000000000000000000000000008152600401611d9c9190612f6c565b60405180910390fd5b5f73ffffffffffffffffffffffffffffffffffffffff168473ffffffffffffffffffffffffffffffffffffffff1603611e15575f6040517f94280d62000000000000000000000000000000000000000000000000000000008152600401611e0c9190612f6c565b60405180910390fd5b82816001015f8773ffffffffffffffffffffffffffffffffffffffff1673ffffffffffffffffffffffffffffffffffffffff1681526020019081526020015f205f8673ffffffffffffffffffffffffffffffffffffffff1673ffffffffffffffffffffffffffffffffffffffff1681526020019081526020015f20819055508115611f00578373ffffffffffffffffffffffffffffffffffffffff168573ffffffffffffffffffffffffffffffffffffffff167f8c5be1e5ebec7d5bd14f71427d1e84f3dd0314c0f7b2291e5b200ac8c7c3b92585604051611ef79190612cff565b60405180910390a35b5050505050565b5f611f10611396565b90505f73ffffffffffffffffffffffffffffffffffffffff168473ffffffffffffffffffffffffffffffffffffffff1603611f645781816002015f828254611f589190613560565b92505081905550612036565b5f815f015f8673ffffffffffffffffffffffffffffffffffffffff1673ffffffffffffffffffffffffffffffffffffffff1681526020019081526020015f2054905082811015611fef578481846040517fe450d38c000000000000000000000000000000000000000000000000000000008152600401611fe69392919061370c565b60405180910390fd5b828103825f015f8773ffffffffffffffffffffffffffffffffffffffff1673ffffffffffffffffffffffffffffffffffffffff1681526020019081526020015f2081905550505b5f73ffffffffffffffffffffffffffffffffffffffff168373ffffffffffffffffffffffffffffffffffffffff160361207f5781816002015f82825403925050819055506120cb565b81815f015f8573ffffffffffffffffffffffffffffffffffffffff1673ffffffffffffffffffffffffffffffffffffffff1681526020019081526020015f205f82825401925050819055505b8273ffffffffffffffffffffffffffffffffffffffff168473ffffffffffffffffffffffffffffffffffffffff167fddf252ad1be2c89b69c2b068fc378daa952ba7f163c4a11628f55a4df523b3ef846040516121289190612cff565b60405180910390a350505050565b5f7ff0c57e16840df040f15088dc2f81fe391c3923bec73e23a9662efc9c229c6a005f1b905090565b612167612699565b61219d576040517fd7e6bcf800000000000000000000000000000000000000000000000000000000815260040160405180910390fd5b565b6121a761215f565b5f6121b0611396565b9050828160030190816121c3919061396b565b50818160040190816121d5919061396b565b50505050565b6121e361215f565b5f6121ec611609565b90505f5f6121f9846126b7565b915091508161220957601261220b565b805b835f0160146101000a81548160ff021916908360ff16021790555083835f015f6101000a81548173ffffffffffffffffffffffffffffffffffffffff021916908373ffffffffffffffffffffffffffffffffffffffff16021790555050505050565b61227561215f565b5f73ffffffffffffffffffffffffffffffffffffffff168173ffffffffffffffffffffffffffffffffffffffff16036122e5575f6040517f1e4fbdf70000000000000000000000000000000000000000000000000000000081526004016122dc9190612f6c565b60405180910390fd5b6122ee81611a61565b50565b5f61231d7f360894a13ba1a3210667c828492db98dca3e2076cc3735a920a3ca505d382bbc5f1b61276b565b5f015f9054906101000a900473ffffffffffffffffffffffffffffffffffffffff16905090565b61234d82612774565b8173ffffffffffffffffffffffffffffffffffffffff167fbc7cd75a20ee27fd9adebab32041f755214dbc6bffa90cc0225b39da2e5c2d3b60405160405180910390a25f815111156123a9576123a3828261283d565b506123b2565b6123b161292e565b5b5050565b6123be61296a565b156123f5576040517f3ee5aeb500000000000000000000000000000000000000000000000000000000815260040160405180910390fd5b565b5f7f9b779b17422d0df92223018b32b4d1fa46e071723d6817e2486d003becc55f005f1b905090565b5f819050919050565b6124338483612986565b61243d838261299d565b8273ffffffffffffffffffffffffffffffffffffffff168473ffffffffffffffffffffffffffffffffffffffff167fdcbc1c05240f31ff3ad067ef1ee35ce4997762752e3a095284754544f4c709d7848460405161249c929190613a3a565b60405180910390a350505050565b8273ffffffffffffffffffffffffffffffffffffffff168573ffffffffffffffffffffffffffffffffffffffff16146124e9576124e8838683611486565b5b6124f38382612a1c565b6124fd8483612a9b565b8273ffffffffffffffffffffffffffffffffffffffff168473ffffffffffffffffffffffffffffffffffffffff168673ffffffffffffffffffffffffffffffffffffffff167ffbde797d201c681b91056529119e0b02407c7bb96a4a2c75c01fc9667232c8db8585604051612573929190613a3a565b60405180910390a45050505050565b5f6001600283600381111561259a57612599613a61565b5b6125a49190613a8e565b60ff16149050919050565b5f8115159050919050565b5f5f5f6125c78686612ab1565b915091505f82036125ec578381816125e2576125e1613796565b5b0492505050612692565b81841161260b5761260a6126055f861460126011612ace565b612ae7565b5b5f8486880990508181118303925080820391505f855f038616905080860495508083049250600181825f0304019050808402831792505f600287600302189050808702600203810290508087026002038102905080870260020381029050808702600203810290508087026002038102905080870260020381029050808402955050505050505b9392505050565b5f6126a2611637565b5f0160089054906101000a900460ff16905090565b5f5f5f6126c2612af8565b90505f5f61271a8660405160240160405160208183030381529060405263313ce56760e01b6020820180517bffffffffffffffffffffffffffffffffffffffffffffffffffffffff8381831617835250505050612b01565b509150915061272883612b22565b81801561273d5750602061273a612b29565b10155b801561274e575060ff8016815f1c11155b612759575f5f61275f565b6001815f1c5b94509450505050915091565b5f819050919050565b5f8173ffffffffffffffffffffffffffffffffffffffff163b036127cf57806040517f4c9c8ce30000000000000000000000000000000000000000000000000000000081526004016127c69190612f6c565b60405180910390fd5b806127fb7f360894a13ba1a3210667c828492db98dca3e2076cc3735a920a3ca505d382bbc5f1b61276b565b5f015f6101000a81548173ffffffffffffffffffffffffffffffffffffffff021916908373ffffffffffffffffffffffffffffffffffffffff16021790555050565b60605f61284a8484612b30565b905080801561288057505f61285d612b29565b118061287f57505f8473ffffffffffffffffffffffffffffffffffffffff163b115b5b156128955761288d612b44565b915050612928565b80156128d857836040517f9996b3150000000000000000000000000000000000000000000000000000000081526004016128cf9190612f6c565b60405180910390fd5b5f6128e1612b29565b11156128f4576128ef612b61565b612926565b6040517fd6bda27500000000000000000000000000000000000000000000000000000000815260040160405180910390fd5b505b92915050565b5f341115612968576040517fb398979f00000000000000000000000000000000000000000000000000000000815260040160405180910390fd5b565b5f600261297d6129786123f7565b612420565b5f015414905090565b612999612991610adc565b833084612b6c565b5050565b5f73ffffffffffffffffffffffffffffffffffffffff168273ffffffffffffffffffffffffffffffffffffffff1603612a0d575f6040517fec442f05000000000000000000000000000000000000000000000000000000008152600401612a049190612f6c565b60405180910390fd5b612a185f8383611f07565b5050565b5f73ffffffffffffffffffffffffffffffffffffffff168273ffffffffffffffffffffffffffffffffffffffff1603612a8c575f6040517f96c6fd1e000000000000000000000000000000000000000000000000000000008152600401612a839190612f6c565b60405180910390fd5b612a97825f83611f07565b5050565b612aad612aa6610adc565b8383612bc1565b5050565b5f5f5f198385098385029150818110828203039250509250929050565b5f612ad8846125af565b82841802821890509392505050565b634e487b715f52806020526024601cfd5b5f604051905090565b5f5f5f60405f855160208701885afa92505f51915060205190509250925092565b8060405250565b5f3d905090565b5f5f5f835160208501865af4905092915050565b606060405190503d81523d5f602083013e3d602001810160405290565b6040513d5f823e3d81fd5b612b7a848484846001612c14565b612bbb57836040517f5274afe7000000000000000000000000000000000000000000000000000000008152600401612bb29190612f6c565b60405180910390fd5b50505050565b612bce8383836001612c85565b612c0f57826040517f5274afe7000000000000000000000000000000000000000000000000000000008152600401612c069190612f6c565b60405180910390fd5b505050565b5f5f6323b872dd60e01b9050604051815f525f1960601c87166004525f1960601c86166024528460445260205f60645f5f8c5af1925060015f51148316612c72578383151615612c66573d5f823e3d81fd5b5f883b113d1516831692505b806040525f606052505095945050505050565b5f5f63a9059cbb60e01b9050604051815f525f1960601c86166004528460245260205f60445f5f8b5af1925060015f51148316612cd9578383151615612ccd573d5f823e3d81fd5b5f873b113d1516831692505b806040525050949350505050565b5f819050919050565b612cf981612ce7565b82525050565b5f602082019050612d125f830184612cf0565b92915050565b5f81519050919050565b5f82825260208201905092915050565b8281835e5f83830152505050565b5f601f19601f8301169050919050565b5f612d5a82612d18565b612d648185612d22565b9350612d74818560208601612d32565b612d7d81612d40565b840191505092915050565b5f6020820190508181035f830152612da08184612d50565b905092915050565b5f604051905090565b5f5ffd5b5f5ffd5b612dc281612ce7565b8114612dcc575f5ffd5b50565b5f81359050612ddd81612db9565b92915050565b5f60208284031215612df857612df7612db1565b5b5f612e0584828501612dcf565b91505092915050565b5f73ffffffffffffffffffffffffffffffffffffffff82169050919050565b5f612e3782612e0e565b9050919050565b612e4781612e2d565b8114612e51575f5ffd5b50565b5f81359050612e6281612e3e565b92915050565b5f5f60408385031215612e7e57612e7d612db1565b5b5f612e8b85828601612e54565b9250506020612e9c85828601612dcf565b9150509250929050565b5f8115159050919050565b612eba81612ea6565b82525050565b5f602082019050612ed35f830184612eb1565b92915050565b5f5f5f60608486031215612ef057612eef612db1565b5b5f612efd86828701612e54565b9350506020612f0e86828701612e54565b9250506040612f1f86828701612dcf565b9150509250925092565b5f60ff82169050919050565b612f3e81612f29565b82525050565b5f602082019050612f575f830184612f35565b92915050565b612f6681612e2d565b82525050565b5f602082019050612f7f5f830184612f5d565b92915050565b5f60208284031215612f9a57612f99612db1565b5b5f612fa784828501612e54565b91505092915050565b5f5f60408385031215612fc657612fc5612db1565b5b5f612fd385828601612e54565b9250506020612fe485828601612e54565b9150509250929050565b5f5ffd5b5f5ffd5b7f4e487b71000000000000000000000000000000000000000000000000000000005f52604160045260245ffd5b61302c82612d40565b810181811067ffffffffffffffff8211171561304b5761304a612ff6565b5b80604052505050565b5f61305d612da8565b90506130698282613023565b919050565b5f67ffffffffffffffff82111561308857613087612ff6565b5b61309182612d40565b9050602081019050919050565b828183375f83830152505050565b5f6130be6130b98461306e565b613054565b9050828152602081018484840111156130da576130d9612ff2565b5b6130e584828561309e565b509392505050565b5f82601f83011261310157613100612fee565b5b81356131118482602086016130ac565b91505092915050565b5f5f604083850312156131305761312f612db1565b5b5f61313d85828601612e54565b925050602083013567ffffffffffffffff81111561315e5761315d612db5565b5b61316a858286016130ed565b9150509250929050565b5f819050919050565b61318681613174565b82525050565b5f60208201905061319f5f83018461317d565b92915050565b5f5f604083850312156131bb576131ba612db1565b5b5f6131c885828601612dcf565b92505060206131d985828601612e54565b9150509250929050565b5f5f5f606084860312156131fa576131f9612db1565b5b5f61320786828701612dcf565b935050602061321886828701612e54565b925050604061322986828701612e54565b9150509250925092565b5f8151905061324181612db9565b92915050565b5f6020828403121561325c5761325b612db1565b5b5f61326984828501613233565b91505092915050565b7f4e487b71000000000000000000000000000000000000000000000000000000005f52602260045260245ffd5b5f60028204905060018216806132b657607f821691505b6020821081036132c9576132c8613272565b5b50919050565b7f4e487b71000000000000000000000000000000000000000000000000000000005f52601160045260245ffd5b5f61330682612f29565b915061331183612f29565b9250828201905060ff81111561332a576133296132cf565b5b92915050565b7f7a65726f206173736574000000000000000000000000000000000000000000005f82015250565b5f613364600a83612d22565b915061336f82613330565b602082019050919050565b5f6020820190508181035f83015261339181613358565b9050919050565b7f7a65726f206f776e6572000000000000000000000000000000000000000000005f82015250565b5f6133cc600a83612d22565b91506133d782613398565b602082019050919050565b5f6020820190508181035f8301526133f9816133c0565b9050919050565b5f819050919050565b5f67ffffffffffffffff82169050919050565b5f819050919050565b5f61343f61343a61343584613400565b61341c565b613409565b9050919050565b61344f81613425565b82525050565b5f6020820190506134685f830184613446565b92915050565b7f7a65726f20616d6f756e740000000000000000000000000000000000000000005f82015250565b5f6134a2600b83612d22565b91506134ad8261346e565b602082019050919050565b5f6020820190508181035f8301526134cf81613496565b9050919050565b5f6060820190506134e95f830186612f5d565b6134f66020830185612f5d565b6135036040830184612cf0565b949350505050565b61351481612ea6565b811461351e575f5ffd5b50565b5f8151905061352f8161350b565b92915050565b5f6020828403121561354a57613549612db1565b5b5f61355784828501613521565b91505092915050565b5f61356a82612ce7565b915061357583612ce7565b925082820190508082111561358d5761358c6132cf565b5b92915050565b5f8160011c9050919050565b5f5f8291508390505b60018511156135e8578086048111156135c4576135c36132cf565b5b60018516156135d35780820291505b80810290506135e185613593565b94506135a8565b94509492505050565b5f8261360057600190506136bb565b8161360d575f90506136bb565b8160018114613623576002811461362d5761365c565b60019150506136bb565b60ff84111561363f5761363e6132cf565b5b8360020a915084821115613656576136556132cf565b5b506136bb565b5060208310610133831016604e8410600b84101617156136915782820a90508381111561368c5761368b6132cf565b5b6136bb565b61369e848484600161359f565b925090508184048111156136b5576136b46132cf565b5b81810290505b9392505050565b5f6136cc82612ce7565b91506136d783612f29565b92506137047fffffffffffffffffffffffffffffffffffffffffffffffffffffffffffffffff84846135f1565b905092915050565b5f60608201905061371f5f830186612f5d565b61372c6020830185612cf0565b6137396040830184612cf0565b949350505050565b61374a81613174565b8114613754575f5ffd5b50565b5f8151905061376581613741565b92915050565b5f602082840312156137805761377f612db1565b5b5f61378d84828501613757565b91505092915050565b7f4e487b71000000000000000000000000000000000000000000000000000000005f52601260045260245ffd5b5f819050815f5260205f209050919050565b5f6020601f8301049050919050565b5f82821b905092915050565b5f6008830261381f7fffffffffffffffffffffffffffffffffffffffffffffffffffffffffffffffff826137e4565b61382986836137e4565b95508019841693508086168417925050509392505050565b5f61385b61385661385184612ce7565b61341c565b612ce7565b9050919050565b5f819050919050565b61387483613841565b61388861388082613862565b8484546137f0565b825550505050565b5f5f905090565b61389f613890565b6138aa81848461386b565b505050565b5f5b828110156138d0576138c55f828401613897565b6001810190506138b1565b505050565b601f8211156139235782821115613922576138ef816137c3565b6138f8836137d5565b613901856137d5565b602086101561390e575f90505b80830161391d828403826138af565b505050505b5b505050565b5f82821c905092915050565b5f6139435f1984600802613928565b1980831691505092915050565b5f61395b8383613934565b9150826002028217905092915050565b61397482612d18565b67ffffffffffffffff81111561398d5761398c612ff6565b5b613997825461329f565b6139a28282856138d5565b5f60209050601f8311600181146139d3575f84156139c1578287015190505b6139cb8582613950565b865550613a32565b601f1984166139e1866137c3565b5f5b82811015613a08578489015182556001820191506020850194506020810190506139e3565b86831015613a255784890151613a21601f891682613934565b8355505b6001600288020188555050505b505050505050565b5f604082019050613a4d5f830185612cf0565b613a5a6020830184612cf0565b9392505050565b7f4e487b71000000000000000000000000000000000000000000000000000000005f52602160045260245ffd5b5f613a9882612f29565b9150613aa383612f29565b925082613ab357613ab2613796565b5b82820690509291505056fea264697066735822122076692ddfb258886fb8c8c6923bac0d2f93844b3ebb3d84336564319409fb0db064736f6c63430008210033","linkReferences":{}},"methodIdentifiers":{"UPGRADE_INTERFACE_VERSION()":"ad3cb1cc","allowance(address,address)":"dd62ed3e","approve(address,uint256)":"095ea7b3","asset()":"38d52e0f","balanceOf(address)":"70a08231","convertToAssets(uint256)":"07a2d13a","convertToShares(uint256)":"c6e6f592","decimals()":"313ce567","deposit(uint256,address)":"6e553f65","harvest(uint256)":"ddc63262","initialize(address,address)":"485cc955","maxDeposit(address)":"402d267d","maxMint(address)":"c63d75b6","maxRedeem(address)":"d905777e","maxWithdraw(address)":"ce96cb77","mint(uint256,address)":"94bf804d","name()":"06fdde03","owner()":"8da5cb5b","previewDeposit(uint256)":"ef8b30f7","previewMint(uint256)":"b3d7f6b9","previewRedeem(uint256)":"4cdad506","previewWithdraw(uint256)":"0a28a477","proxiableUUID()":"52d1902d","redeem(uint256,address,address)":"ba087652","renounceOwnership()":"715018a6","symbol()":"95d89b41","totalAssets()":"01e1d114","totalSupply()":"18160ddd","totalYieldHarvested()":"22a6619e","transfer(address,uint256)":"a9059cbb","transferFrom(address,address,uint256)":"23b872dd","transferOwnership(address)":"f2fde38b","upgradeToAndCall(address,bytes)":"4f1ef286","version()":"54fd4d50","withdraw(uint256,address,address)":"b460af94"},"id":100}