{"abi":[{"type":"constructor","inputs":[{"name":"_token0","type":"address","internalType":"address"},{"name":"_token1","type":"address","internalType":"address"}],"stateMutability":"nonpayable"},{"type":"function","name":"FEE","inputs":[],"outputs":[{"name":"","type":"uint256","internalType":"uint256"}],"stateMutability":"view"},{"type":"function","name":"FEE_DENOMINATOR","inputs":[],"outputs":[{"name":"","type":"uint256","internalType":"uint256"}],"stateMutability":"view"},{"type":"function","name":"addLiquidity","inputs":[{"name":"amount0","type":"uint256","internalType":"uint256"},{"name":"amount1","type":"uint256","internalType":"uint256"}],"outputs":[{"name":"lpMinted","type":"uint256","internalType":"uint256"}],"stateMutability":"nonpayable"},{"type":"function","name":"getReserves","inputs":[],"outputs":[{"name":"","type":"uint256","internalType":"uint256"},{"name":"","type":"uint256","internalType":"uint256"}],"stateMutability":"view"},{"type":"function","name":"lpToken","inputs":[],"outputs":[{"name":"","type":"address","internalType":"contract LPToken"}],"stateMutability":"view"},{"type":"function","name":"removeLiquidity","inputs":[{"name":"lpAmount","type":"uint256","internalType":"uint256"}],"outputs":[{"name":"amount0","type":"uint256","internalType":"uint256"},{"name":"amount1","type":"uint256","internalType":"uint256"}],"stateMutability":"nonpayable"},{"type":"function","name":"reserve0","inputs":[],"outputs":[{"name":"","type":"uint256","internalType":"uint256"}],"stateMutability":"view"},{"type":"function","name":"reserve1","inputs":[],"outputs":[{"name":"","type":"uint256","internalType":"uint256"}],"stateMutability":"view"},{"type":"function","name":"swap","inputs":[{"name":"tokenIn","type":"address","internalType":"address"},{"name":"amountIn","type":"uint256","internalType":"uint256"},{"name":"minAmountOut","type":"uint256","internalType":"uint256"}],"outputs":[{"name":"amountOut","type":"uint256","internalType":"uint256"}],"stateMutability":"nonpayable"},{"type":"function","name":"token0","inputs":[],"outputs":[{"name":"","type":"address","internalType":"contract IERC20"}],"stateMutability":"view"},{"type":"function","name":"token1","inputs":[],"outputs":[{"name":"","type":"address","internalType":"contract IERC20"}],"stateMutability":"view"},{"type":"event","name":"LiquidityAdded","inputs":[{"name":"user","type":"address","indexed":true,"internalType":"address"},{"name":"amount0","type":"uint256","indexed":false,"internalType":"uint256"},{"name":"amount1","type":"uint256","indexed":false,"internalType":"uint256"},{"name":"lpMinted","type":"uint256","indexed":false,"internalType":"uint256"}],"anonymous":false},{"type":"event","name":"LiquidityRemoved","inputs":[{"name":"user","type":"address","indexed":true,"internalType":"address"},{"name":"amount0","type":"uint256","indexed":false,"internalType":"uint256"},{"name":"amount1","type":"uint256","indexed":false,"internalType":"uint256"},{"name":"lpBurned","type":"uint256","indexed":false,"internalType":"uint256"}],"anonymous":false},{"type":"event","name":"Swap","inputs":[{"name":"user","type":"address","indexed":true,"internalType":"address"},{"name":"tokenIn","type":"address","indexed":true,"internalType":"address"},{"name":"amountIn","type":"uint256","indexed":false,"internalType":"uint256"},{"name":"amountOut","type":"uint256","indexed":false,"internalType":"uint256"}],"anonymous":false},{"type":"error","name":"InsufficientLiquidity","inputs":[]},{"type":"error","name":"InvalidAmount","inputs":[]},{"type":"error","name":"InvalidToken","inputs":[]},{"type":"error","name":"ReentrancyGuardReentrantCall","inputs":[]},{"type":"error","name":"SafeERC20FailedOperation","inputs":[{"name":"token","type":"address","internalType":"address"}]},{"type":"error","name":"SlippageExceeded","inputs":[]}],"bytecode":{"object":"0x60e060405234801561000f575f5ffd5b50604051612ff2380380612ff283398181016040528101906100319190610233565b600161004f61004461019660201b60201c565b6101bf60201b60201c565b5f01819055508073ffffffffffffffffffffffffffffffffffffffff168273ffffffffffffffffffffffffffffffffffffffff16036100c3576040517f08c379a00000000000000000000000000000000000000000000000000000000081526004016100ba906102cb565b60405180910390fd5b8173ffffffffffffffffffffffffffffffffffffffff1660808173ffffffffffffffffffffffffffffffffffffffff16815250508073ffffffffffffffffffffffffffffffffffffffff1660a08173ffffffffffffffffffffffffffffffffffffffff168152505030604051610138906101c8565b610142919061038c565b604051809103905ff08015801561015b573d5f5f3e3d5ffd5b5073ffffffffffffffffffffffffffffffffffffffff1660c08173ffffffffffffffffffffffffffffffffffffffff168152505050506103cb565b5f7f9b779b17422d0df92223018b32b4d1fa46e071723d6817e2486d003becc55f005f1b905090565b5f819050919050565b6116778061197b83390190565b5f5ffd5b5f73ffffffffffffffffffffffffffffffffffffffff82169050919050565b5f610202826101d9565b9050919050565b610212816101f8565b811461021c575f5ffd5b50565b5f8151905061022d81610209565b92915050565b5f5f60408385031215610249576102486101d5565b5b5f6102568582860161021f565b92505060206102678582860161021f565b9150509250929050565b5f82825260208201905092915050565b7f73616d6520746f6b656e000000000000000000000000000000000000000000005f82015250565b5f6102b5600a83610271565b91506102c082610281565b602082019050919050565b5f6020820190508181035f8301526102e2816102a9565b9050919050565b7f4465466920414d4d204c5020546f6b656e0000000000000000000000000000005f82015250565b5f61031d601183610271565b9150610328826102e9565b602082019050919050565b7f4c502d414d4d00000000000000000000000000000000000000000000000000005f82015250565b5f610367600683610271565b915061037282610333565b602082019050919050565b610386816101f8565b82525050565b5f6060820190508181035f8301526103a381610311565b905081810360208301526103b68161035b565b90506103c5604083018461037d565b92915050565b60805160a05160c0516115166104655f395f818161026d015281816102d5015281816103dd0152818161067201528181610722015281816107ca01526108ea01525f81816104e40152818161062a01528181610a6f01528181610afd01528181610b730152610dcc01525f818161023e01528181610499015281816105dd01528181610a1501528181610b230152610b4d01526115165ff3fe608060405234801561000f575f5ffd5b50600436106100a7575f3560e01c80639c8f9f231161006f5780639c8f9f23146101425780639cd441da146101735780639f1d0f59146101a3578063c57981b5146101d3578063d21220a7146101f1578063d73792a91461020f576100a7565b80630902f1ac146100ab5780630dfe1681146100ca578063443cb4bc146100e85780635a76f25e146101065780635fcbd28514610124575b5f5ffd5b6100b361022d565b6040516100c19291906110be565b60405180910390f35b6100d261023c565b6040516100df919061115f565b60405180910390f35b6100f0610260565b6040516100fd9190611178565b60405180910390f35b61010e610265565b60405161011b9190611178565b60405180910390f35b61012c61026b565b60405161013991906111b1565b60405180910390f35b61015c600480360381019061015791906111f8565b61028f565b60405161016a9291906110be565b60405180910390f35b61018d60048036038101906101889190611223565b610588565b60405161019a9190611178565b60405180910390f35b6101bd60048036038101906101b8919061129c565b6109d0565b6040516101ca9190611178565b60405180910390f35b6101db610dc5565b6040516101e89190611178565b60405180910390f35b6101f9610dca565b604051610206919061115f565b60405180910390f35b610217610dee565b6040516102249190611178565b60405180910390f35b5f5f5f54600154915091509091565b7f000000000000000000000000000000000000000000000000000000000000000081565b5f5481565b60015481565b7f000000000000000000000000000000000000000000000000000000000000000081565b5f5f610299610df4565b5f83036102d2576040517f2c5211c600000000000000000000000000000000000000000000000000000000815260040160405180910390fd5b5f7f000000000000000000000000000000000000000000000000000000000000000073ffffffffffffffffffffffffffffffffffffffff166318160ddd6040518163ffffffff1660e01b8152600401602060405180830381865afa15801561033c573d5f5f3e3d5ffd5b505050506040513d601f19601f820116820180604052508101906103609190611300565b9050805f54856103709190611358565b61037a91906113c6565b9250806001548561038b9190611358565b61039591906113c6565b91505f8314806103a457505f82145b156103db576040517fbb55fd2700000000000000000000000000000000000000000000000000000000815260040160405180910390fd5b7f000000000000000000000000000000000000000000000000000000000000000073ffffffffffffffffffffffffffffffffffffffff16639dc29fac33866040518363ffffffff1660e01b8152600401610436929190611405565b5f604051808303815f87803b15801561044d575f5ffd5b505af115801561045f573d5f5f3e3d5ffd5b50505050825f5f828254610473919061142c565b925050819055508160015f82825461048b919061142c565b925050819055506104dd33847f000000000000000000000000000000000000000000000000000000000000000073ffffffffffffffffffffffffffffffffffffffff16610e169092919063ffffffff16565b61052833837f000000000000000000000000000000000000000000000000000000000000000073ffffffffffffffffffffffffffffffffffffffff16610e169092919063ffffffff16565b3373ffffffffffffffffffffffffffffffffffffffff167f1dc8bb69df2b8e91fbdcbfcf93d951b3f0000f085a95fe3f7946d6161439245d8484876040516105729392919061145f565b60405180910390a250610583610e69565b915091565b5f610591610df4565b5f83148061059e57505f82145b156105d5576040517f2c5211c600000000000000000000000000000000000000000000000000000000815260040160405180910390fd5b6106223330857f000000000000000000000000000000000000000000000000000000000000000073ffffffffffffffffffffffffffffffffffffffff16610e83909392919063ffffffff16565b61066f3330847f000000000000000000000000000000000000000000000000000000000000000073ffffffffffffffffffffffffffffffffffffffff16610e83909392919063ffffffff16565b5f7f000000000000000000000000000000000000000000000000000000000000000073ffffffffffffffffffffffffffffffffffffffff166318160ddd6040518163ffffffff1660e01b8152600401602060405180830381865afa1580156106d9573d5f5f3e3d5ffd5b505050506040513d601f19601f820116820180604052508101906106fd9190611300565b0361071d5761071682846107119190611358565b610ed8565b9050610880565b5f5f547f000000000000000000000000000000000000000000000000000000000000000073ffffffffffffffffffffffffffffffffffffffff166318160ddd6040518163ffffffff1660e01b8152600401602060405180830381865afa158015610789573d5f5f3e3d5ffd5b505050506040513d601f19601f820116820180604052508101906107ad9190611300565b856107b89190611358565b6107c291906113c6565b90505f6001547f000000000000000000000000000000000000000000000000000000000000000073ffffffffffffffffffffffffffffffffffffffff166318160ddd6040518163ffffffff1660e01b8152600401602060405180830381865afa158015610831573d5f5f3e3d5ffd5b505050506040513d601f19601f820116820180604052508101906108559190611300565b856108609190611358565b61086a91906113c6565b9050808210610879578061087b565b815b925050505b5f81036108b9576040517fbb55fd2700000000000000000000000000000000000000000000000000000000815260040160405180910390fd5b825f5f8282546108c99190611494565b925050819055508160015f8282546108e19190611494565b925050819055507f000000000000000000000000000000000000000000000000000000000000000073ffffffffffffffffffffffffffffffffffffffff166340c10f1933836040518363ffffffff1660e01b8152600401610943929190611405565b5f604051808303815f87803b15801561095a575f5ffd5b505af115801561096c573d5f5f3e3d5ffd5b505050503373ffffffffffffffffffffffffffffffffffffffff167f64b83944e79c3ce8d4c297411de637c3e102d064677aac0c163976ebdcd6f50e8484846040516109ba9392919061145f565b60405180910390a26109ca610e69565b92915050565b5f6109d9610df4565b5f8303610a12576040517f2c5211c600000000000000000000000000000000000000000000000000000000815260040160405180910390fd5b5f7f000000000000000000000000000000000000000000000000000000000000000073ffffffffffffffffffffffffffffffffffffffff168573ffffffffffffffffffffffffffffffffffffffff1614905080158015610abe57507f000000000000000000000000000000000000000000000000000000000000000073ffffffffffffffffffffffffffffffffffffffff168573ffffffffffffffffffffffffffffffffffffffff1614155b15610af5576040517fc1ab6dc100000000000000000000000000000000000000000000000000000000815260040160405180910390fd5b5f81610b21577f0000000000000000000000000000000000000000000000000000000000000000610b43565b7f00000000000000000000000000000000000000000000000000000000000000005b90505f82610b71577f0000000000000000000000000000000000000000000000000000000000000000610b93565b7f00000000000000000000000000000000000000000000000000000000000000005b90505f83610ba357600154610ba6565b5f545b90505f84610bb5575f54610bb9565b6001545b90505f821480610bc857505f81145b15610bff576040517fbb55fd2700000000000000000000000000000000000000000000000000000000815260040160405180910390fd5b5f60036103e8610c0f919061142c565b89610c1a9190611358565b9050806103e884610c2b9190611358565b610c359190611494565b8282610c419190611358565b610c4b91906113c6565b965087871015610c87576040517f8199f5f300000000000000000000000000000000000000000000000000000000815260040160405180910390fd5b610cb433308b8873ffffffffffffffffffffffffffffffffffffffff16610e83909392919063ffffffff16565b610cdf33888673ffffffffffffffffffffffffffffffffffffffff16610e169092919063ffffffff16565b8515610d1957885f5f828254610cf59190611494565b925050819055508660015f828254610d0d919061142c565b92505081905550610d49565b8860015f828254610d2a9190611494565b92505081905550865f5f828254610d41919061142c565b925050819055505b8973ffffffffffffffffffffffffffffffffffffffff163373ffffffffffffffffffffffffffffffffffffffff167ffa2dda1cc1b86e41239702756b13effbc1a092b5c57e3ad320fbe4f3b13fe2358b8a604051610da89291906110be565b60405180910390a3505050505050610dbe610e69565b9392505050565b600381565b7f000000000000000000000000000000000000000000000000000000000000000081565b6103e881565b610dfc610f44565b6002610e0e610e09610f85565b610fae565b5f0181905550565b610e238383836001610fb7565b610e6457826040517f5274afe7000000000000000000000000000000000000000000000000000000008152600401610e5b91906114c7565b60405180910390fd5b505050565b6001610e7b610e76610f85565b610fae565b5f0181905550565b610e91848484846001611019565b610ed257836040517f5274afe7000000000000000000000000000000000000000000000000000000008152600401610ec991906114c7565b60405180910390fd5b50505050565b5f5f8203610ee8575f9050610f3f565b5f6002600184610ef89190611494565b610f0291906113c6565b90508291505b81811015610f3d578091506002818285610f2291906113c6565b610f2c9190611494565b610f3691906113c6565b9050610f08565b505b919050565b610f4c61108a565b15610f83576040517f3ee5aeb500000000000000000000000000000000000000000000000000000000815260040160405180910390fd5b565b5f7f9b779b17422d0df92223018b32b4d1fa46e071723d6817e2486d003becc55f005f1b905090565b5f819050919050565b5f5f63a9059cbb60e01b9050604051815f525f1960601c86166004528460245260205f60445f5f8b5af1925060015f5114831661100b578383151615610fff573d5f823e3d81fd5b5f873b113d1516831692505b806040525050949350505050565b5f5f6323b872dd60e01b9050604051815f525f1960601c87166004525f1960601c86166024528460445260205f60645f5f8c5af1925060015f5114831661107757838315161561106b573d5f823e3d81fd5b5f883b113d1516831692505b806040525f606052505095945050505050565b5f600261109d611098610f85565b610fae565b5f015414905090565b5f819050919050565b6110b8816110a6565b82525050565b5f6040820190506110d15f8301856110af565b6110de60208301846110af565b9392505050565b5f73ffffffffffffffffffffffffffffffffffffffff82169050919050565b5f819050919050565b5f61112761112261111d846110e5565b611104565b6110e5565b9050919050565b5f6111388261110d565b9050919050565b5f6111498261112e565b9050919050565b6111598161113f565b82525050565b5f6020820190506111725f830184611150565b92915050565b5f60208201905061118b5f8301846110af565b92915050565b5f61119b8261112e565b9050919050565b6111ab81611191565b82525050565b5f6020820190506111c45f8301846111a2565b92915050565b5f5ffd5b6111d7816110a6565b81146111e1575f5ffd5b50565b5f813590506111f2816111ce565b92915050565b5f6020828403121561120d5761120c6111ca565b5b5f61121a848285016111e4565b91505092915050565b5f5f60408385031215611239576112386111ca565b5b5f611246858286016111e4565b9250506020611257858286016111e4565b9150509250929050565b5f61126b826110e5565b9050919050565b61127b81611261565b8114611285575f5ffd5b50565b5f8135905061129681611272565b92915050565b5f5f5f606084860312156112b3576112b26111ca565b5b5f6112c086828701611288565b93505060206112d1868287016111e4565b92505060406112e2868287016111e4565b9150509250925092565b5f815190506112fa816111ce565b92915050565b5f60208284031215611315576113146111ca565b5b5f611322848285016112ec565b91505092915050565b7f4e487b71000000000000000000000000000000000000000000000000000000005f52601160045260245ffd5b5f611362826110a6565b915061136d836110a6565b925082820261137b816110a6565b915082820484148315176113925761139161132b565b5b5092915050565b7f4e487b71000000000000000000000000000000000000000000000000000000005f52601260045260245ffd5b5f6113d0826110a6565b91506113db836110a6565b9250826113eb576113ea611399565b5b828204905092915050565b6113ff81611261565b82525050565b5f6040820190506114185f8301856113f6565b61142560208301846110af565b9392505050565b5f611436826110a6565b9150611441836110a6565b92508282039050818111156114595761145861132b565b5b92915050565b5f6060820190506114725f8301866110af565b61147f60208301856110af565b61148c60408301846110af565b949350505050565b5f61149e826110a6565b91506114a9836110a6565b92508282019050808211156114c1576114c061132b565b5b92915050565b5f6020820190506114da5f8301846113f6565b9291505056fea2646970667358221220403065ed0373f9bbf49910b20ab5f9ef235ec6a65274e49d7a657856d3848d9264736f6c6343000821003360a060405234801561000f575f5ffd5b5060405161167738038061167783398181016040528101906100319190610238565b8282816003908161004291906104e1565b50806004908161005291906104e1565b5050508073ffffffffffffffffffffffffffffffffffffffff1660808173ffffffffffffffffffffffffffffffffffffffff16815250505050506105b0565b5f604051905090565b5f5ffd5b5f5ffd5b5f5ffd5b5f5ffd5b5f601f19601f8301169050919050565b7f4e487b71000000000000000000000000000000000000000000000000000000005f52604160045260245ffd5b6100f0826100aa565b810181811067ffffffffffffffff8211171561010f5761010e6100ba565b5b80604052505050565b5f610121610091565b905061012d82826100e7565b919050565b5f67ffffffffffffffff82111561014c5761014b6100ba565b5b610155826100aa565b9050602081019050919050565b8281835e5f83830152505050565b5f61018261017d84610132565b610118565b90508281526020810184848401111561019e5761019d6100a6565b5b6101a9848285610162565b509392505050565b5f82601f8301126101c5576101c46100a2565b5b81516101d5848260208601610170565b91505092915050565b5f73ffffffffffffffffffffffffffffffffffffffff82169050919050565b5f610207826101de565b9050919050565b610217816101fd565b8114610221575f5ffd5b50565b5f815190506102328161020e565b92915050565b5f5f5f6060848603121561024f5761024e61009a565b5b5f84015167ffffffffffffffff81111561026c5761026b61009e565b5b610278868287016101b1565b935050602084015167ffffffffffffffff8111156102995761029861009e565b5b6102a5868287016101b1565b92505060406102b686828701610224565b9150509250925092565b5f81519050919050565b7f4e487b71000000000000000000000000000000000000000000000000000000005f52602260045260245ffd5b5f600282049050600182168061030e57607f821691505b602082108103610321576103206102ca565b5b50919050565b5f819050815f5260205f209050919050565b5f6020601f8301049050919050565b5f82821b905092915050565b5f600883026103837fffffffffffffffffffffffffffffffffffffffffffffffffffffffffffffffff82610348565b61038d8683610348565b95508019841693508086168417925050509392505050565b5f819050919050565b5f819050919050565b5f6103d16103cc6103c7846103a5565b6103ae565b6103a5565b9050919050565b5f819050919050565b6103ea836103b7565b6103fe6103f6826103d8565b848454610354565b825550505050565b5f5f905090565b610415610406565b6104208184846103e1565b505050565b5f5b828110156104465761043b5f82840161040d565b600181019050610427565b505050565b601f82111561049957828211156104985761046581610327565b61046e83610339565b61047785610339565b6020861015610484575f90505b80830161049382840382610425565b505050505b5b505050565b5f82821c905092915050565b5f6104b95f198460080261049e565b1980831691505092915050565b5f6104d183836104aa565b9150826002028217905092915050565b6104ea826102c0565b67ffffffffffffffff811115610503576105026100ba565b5b61050d82546102f7565b61051882828561044b565b5f60209050601f831160018114610549575f8415610537578287015190505b61054185826104c6565b8655506105a8565b601f19841661055786610327565b5f5b8281101561057e57848901518255600182019150602085019450602081019050610559565b8683101561059b5784890151610597601f8916826104aa565b8355505b6001600288020188555050505b505050505050565b6080516110a16105d65f395f8181610367015281816104cf015261056201526110a15ff3fe608060405234801561000f575f5ffd5b50600436106100b2575f3560e01c806370a082311161006f57806370a082311461018c57806395d89b41146101bc5780639dc29fac146101da578063a8aa1b31146101f6578063a9059cbb14610214578063dd62ed3e14610244576100b2565b806306fdde03146100b6578063095ea7b3146100d457806318160ddd1461010457806323b872dd14610122578063313ce5671461015257806340c10f1914610170575b5f5ffd5b6100be610274565b6040516100cb9190610d1a565b60405180910390f35b6100ee60048036038101906100e99190610dcb565b610304565b6040516100fb9190610e23565b60405180910390f35b61010c610326565b6040516101199190610e4b565b60405180910390f35b61013c60048036038101906101379190610e64565b61032f565b6040516101499190610e23565b60405180910390f35b61015a61035d565b6040516101679190610ecf565b60405180910390f35b61018a60048036038101906101859190610dcb565b610365565b005b6101a660048036038101906101a19190610ee8565b6103f8565b6040516101b39190610e4b565b60405180910390f35b6101c461043d565b6040516101d19190610d1a565b60405180910390f35b6101f460048036038101906101ef9190610dcb565b6104cd565b005b6101fe610560565b60405161020b9190610f22565b60405180910390f35b61022e60048036038101906102299190610dcb565b610584565b60405161023b9190610e23565b60405180910390f35b61025e60048036038101906102599190610f3b565b6105a6565b60405161026b9190610e4b565b60405180910390f35b60606003805461028390610fa6565b80601f01602080910402602001604051908101604052809291908181526020018280546102af90610fa6565b80156102fa5780601f106102d1576101008083540402835291602001916102fa565b820191905f5260205f20905b8154815290600101906020018083116102dd57829003601f168201915b5050505050905090565b5f5f61030e610628565b905061031b81858561062f565b600191505092915050565b5f600254905090565b5f5f610339610628565b9050610346858285610641565b6103518585856106d4565b60019150509392505050565b5f6012905090565b7f000000000000000000000000000000000000000000000000000000000000000073ffffffffffffffffffffffffffffffffffffffff163373ffffffffffffffffffffffffffffffffffffffff16146103ea576040517fa12db5cc00000000000000000000000000000000000000000000000000000000815260040160405180910390fd5b6103f482826107c4565b5050565b5f5f5f8373ffffffffffffffffffffffffffffffffffffffff1673ffffffffffffffffffffffffffffffffffffffff1681526020019081526020015f20549050919050565b60606004805461044c90610fa6565b80601f016020809104026020016040519081016040528092919081815260200182805461047890610fa6565b80156104c35780601f1061049a576101008083540402835291602001916104c3565b820191905f5260205f20905b8154815290600101906020018083116104a657829003601f168201915b5050505050905090565b7f000000000000000000000000000000000000000000000000000000000000000073ffffffffffffffffffffffffffffffffffffffff163373ffffffffffffffffffffffffffffffffffffffff1614610552576040517fa12db5cc00000000000000000000000000000000000000000000000000000000815260040160405180910390fd5b61055c8282610843565b5050565b7f000000000000000000000000000000000000000000000000000000000000000081565b5f5f61058e610628565b905061059b8185856106d4565b600191505092915050565b5f60015f8473ffffffffffffffffffffffffffffffffffffffff1673ffffffffffffffffffffffffffffffffffffffff1681526020019081526020015f205f8373ffffffffffffffffffffffffffffffffffffffff1673ffffffffffffffffffffffffffffffffffffffff1681526020019081526020015f2054905092915050565b5f33905090565b61063c83838360016108c2565b505050565b5f61064c84846105a6565b90507fffffffffffffffffffffffffffffffffffffffffffffffffffffffffffffffff8110156106ce57818110156106bf578281836040517ffb8f41b20000000000000000000000000000000000000000000000000000000081526004016106b693929190610fd6565b60405180910390fd5b6106cd84848484035f6108c2565b5b50505050565b5f73ffffffffffffffffffffffffffffffffffffffff168373ffffffffffffffffffffffffffffffffffffffff1603610744575f6040517f96c6fd1e00000000000000000000000000000000000000000000000000000000815260040161073b9190610f22565b60405180910390fd5b5f73ffffffffffffffffffffffffffffffffffffffff168273ffffffffffffffffffffffffffffffffffffffff16036107b4575f6040517fec442f050000000000000000000000000000000000000000000000000000000081526004016107ab9190610f22565b60405180910390fd5b6107bf838383610a91565b505050565b5f73ffffffffffffffffffffffffffffffffffffffff168273ffffffffffffffffffffffffffffffffffffffff1603610834575f6040517fec442f0500000000000000000000000000000000000000000000000000000000815260040161082b9190610f22565b60405180910390fd5b61083f5f8383610a91565b5050565b5f73ffffffffffffffffffffffffffffffffffffffff168273ffffffffffffffffffffffffffffffffffffffff16036108b3575f6040517f96c6fd1e0000000000000000000000000000000000000000000000000000000081526004016108aa9190610f22565b60405180910390fd5b6108be825f83610a91565b5050565b5f73ffffffffffffffffffffffffffffffffffffffff168473ffffffffffffffffffffffffffffffffffffffff1603610932575f6040517fe602df050000000000000000000000000000000000000000000000000000000081526004016109299190610f22565b60405180910390fd5b5f73ffffffffffffffffffffffffffffffffffffffff168373ffffffffffffffffffffffffffffffffffffffff16036109a2575f6040517f94280d620000000000000000000000000000000000000000000000000000000081526004016109999190610f22565b60405180910390fd5b8160015f8673ffffffffffffffffffffffffffffffffffffffff1673ffffffffffffffffffffffffffffffffffffffff1681526020019081526020015f205f8573ffffffffffffffffffffffffffffffffffffffff1673ffffffffffffffffffffffffffffffffffffffff1681526020019081526020015f20819055508015610a8b578273ffffffffffffffffffffffffffffffffffffffff168473ffffffffffffffffffffffffffffffffffffffff167f8c5be1e5ebec7d5bd14f71427d1e84f3dd0314c0f7b2291e5b200ac8c7c3b92584604051610a829190610e4b565b60405180910390a35b50505050565b5f73ffffffffffffffffffffffffffffffffffffffff168373ffffffffffffffffffffffffffffffffffffffff1603610ae1578060025f828254610ad59190611038565b92505081905550610baf565b5f5f5f8573ffffffffffffffffffffffffffffffffffffffff1673ffffffffffffffffffffffffffffffffffffffff1681526020019081526020015f2054905081811015610b6a578381836040517fe450d38c000000000000000000000000000000000000000000000000000000008152600401610b6193929190610fd6565b60405180910390fd5b8181035f5f8673ffffffffffffffffffffffffffffffffffffffff1673ffffffffffffffffffffffffffffffffffffffff1681526020019081526020015f2081905550505b5f73ffffffffffffffffffffffffffffffffffffffff168273ffffffffffffffffffffffffffffffffffffffff1603610bf6578060025f8282540392505081905550610c40565b805f5f8473ffffffffffffffffffffffffffffffffffffffff1673ffffffffffffffffffffffffffffffffffffffff1681526020019081526020015f205f82825401925050819055505b8173ffffffffffffffffffffffffffffffffffffffff168373ffffffffffffffffffffffffffffffffffffffff167fddf252ad1be2c89b69c2b068fc378daa952ba7f163c4a11628f55a4df523b3ef83604051610c9d9190610e4b565b60405180910390a3505050565b5f81519050919050565b5f82825260208201905092915050565b8281835e5f83830152505050565b5f601f19601f8301169050919050565b5f610cec82610caa565b610cf68185610cb4565b9350610d06818560208601610cc4565b610d0f81610cd2565b840191505092915050565b5f6020820190508181035f830152610d328184610ce2565b905092915050565b5f5ffd5b5f73ffffffffffffffffffffffffffffffffffffffff82169050919050565b5f610d6782610d3e565b9050919050565b610d7781610d5d565b8114610d81575f5ffd5b50565b5f81359050610d9281610d6e565b92915050565b5f819050919050565b610daa81610d98565b8114610db4575f5ffd5b50565b5f81359050610dc581610da1565b92915050565b5f5f60408385031215610de157610de0610d3a565b5b5f610dee85828601610d84565b9250506020610dff85828601610db7565b9150509250929050565b5f8115159050919050565b610e1d81610e09565b82525050565b5f602082019050610e365f830184610e14565b92915050565b610e4581610d98565b82525050565b5f602082019050610e5e5f830184610e3c565b92915050565b5f5f5f60608486031215610e7b57610e7a610d3a565b5b5f610e8886828701610d84565b9350506020610e9986828701610d84565b9250506040610eaa86828701610db7565b9150509250925092565b5f60ff82169050919050565b610ec981610eb4565b82525050565b5f602082019050610ee25f830184610ec0565b92915050565b5f60208284031215610efd57610efc610d3a565b5b5f610f0a84828501610d84565b91505092915050565b610f1c81610d5d565b82525050565b5f602082019050610f355f830184610f13565b92915050565b5f5f60408385031215610f5157610f50610d3a565b5b5f610f5e85828601610d84565b9250506020610f6f85828601610d84565b9150509250929050565b7f4e487b71000000000000000000000000000000000000000000000000000000005f52602260045260245ffd5b5f6002820490506001821680610fbd57607f821691505b602082108103610fd057610fcf610f79565b5b50919050565b5f606082019050610fe95f830186610f13565b610ff66020830185610e3c565b6110036040830184610e3c565b949350505050565b7f4e487b71000000000000000000000000000000000000000000000000000000005f52601160045260245ffd5b5f61104282610d98565b915061104d83610d98565b92508282019050808211156110655761106461100b565b5b9291505056fea26469706673582212202140cd4b66bdcac419e3f5ae1d015980c22d4fb006cf859c688c8d716a13cc6064736f6c63430008210033","linkReferences":{}},"methodIdentifiers":{"FEE()":"c57981b5","FEE_DENOMINATOR()":"d73792a9","addLiquidity(uint256,uint256)":"9cd441da","getReserves()":"0902f1ac","lpToken()":"5fcbd285","removeLiquidity(uint256)":"9c8f9f23","reserve0()":"443cb4bc","reserve1()":"5a76f25e","swap(address,uint256,uint256)":"9f1d0f59","token0()":"0dfe1681","token1()":"d21220a7"},"id":96}