{"abi":[{"type":"constructor","inputs":[{"name":"decimals_","type":"uint8","internalType":"uint8"},{"name":"description_","type":"string","internalType":"string"},{"name":"initialPrice","type":"int256","internalType":"int256"}],"stateMutability":"nonpayable"},{"type":"function","name":"decimals","inputs":[],"outputs":[{"name":"","type":"uint8","internalType":"uint8"}],"stateMutability":"view"},{"type":"function","name":"description","inputs":[],"outputs":[{"name":"","type":"string","internalType":"string"}],"stateMutability":"view"},{"type":"function","name":"getRoundData","inputs":[{"name":"_roundId","type":"uint80","internalType":"uint80"}],"outputs":[{"name":"roundId","type":"uint80","internalType":"uint80"},{"name":"answer","type":"int256","internalType":"int256"},{"name":"startedAt","type":"uint256","internalType":"uint256"},{"name":"updatedAt","type":"uint256","internalType":"uint256"},{"name":"answeredInRound","type":"uint80","internalType":"uint80"}],"stateMutability":"view"},{"type":"function","name":"latestRoundData","inputs":[],"outputs":[{"name":"roundId","type":"uint80","internalType":"uint80"},{"name":"answer","type":"int256","internalType":"int256"},{"name":"startedAt","type":"uint256","internalType":"uint256"},{"name":"updatedAt","type":"uint256","internalType":"uint256"},{"name":"answeredInRound","type":"uint80","internalType":"uint80"}],"stateMutability":"view"},{"type":"function","name":"updatePrice","inputs":[{"name":"newPrice","type":"int256","internalType":"int256"}],"outputs":[],"stateMutability":"nonpayable"},{"type":"function","name":"version","inputs":[],"outputs":[{"name":"","type":"uint256","internalType":"uint256"}],"stateMutability":"view"}],"bytecode":{"object":"0x608060405234801561000f575f5ffd5b50604051610b8f380380610b8f83398181016040528101906100319190610253565b825f5f6101000a81548160ff021916908360ff160217905550816001908161005991906104e0565b508060038190555042600481905550600160055f6101000a81548169ffffffffffffffffffff021916908369ffffffffffffffffffff1602179055505050506105af565b5f604051905090565b5f5ffd5b5f5ffd5b5f60ff82169050919050565b6100c3816100ae565b81146100cd575f5ffd5b50565b5f815190506100de816100ba565b92915050565b5f5ffd5b5f5ffd5b5f601f19601f8301169050919050565b7f4e487b71000000000000000000000000000000000000000000000000000000005f52604160045260245ffd5b610132826100ec565b810181811067ffffffffffffffff82111715610151576101506100fc565b5b80604052505050565b5f61016361009d565b905061016f8282610129565b919050565b5f67ffffffffffffffff82111561018e5761018d6100fc565b5b610197826100ec565b9050602081019050919050565b8281835e5f83830152505050565b5f6101c46101bf84610174565b61015a565b9050828152602081018484840111156101e0576101df6100e8565b5b6101eb8482856101a4565b509392505050565b5f82601f830112610207576102066100e4565b5b81516102178482602086016101b2565b91505092915050565b5f819050919050565b61023281610220565b811461023c575f5ffd5b50565b5f8151905061024d81610229565b92915050565b5f5f5f6060848603121561026a576102696100a6565b5b5f610277868287016100d0565b935050602084015167ffffffffffffffff811115610298576102976100aa565b5b6102a4868287016101f3565b92505060406102b58682870161023f565b9150509250925092565b5f81519050919050565b7f4e487b71000000000000000000000000000000000000000000000000000000005f52602260045260245ffd5b5f600282049050600182168061030d57607f821691505b6020821081036103205761031f6102c9565b5b50919050565b5f819050815f5260205f209050919050565b5f6020601f8301049050919050565b5f82821b905092915050565b5f600883026103827fffffffffffffffffffffffffffffffffffffffffffffffffffffffffffffffff82610347565b61038c8683610347565b95508019841693508086168417925050509392505050565b5f819050919050565b5f819050919050565b5f6103d06103cb6103c6846103a4565b6103ad565b6103a4565b9050919050565b5f819050919050565b6103e9836103b6565b6103fd6103f5826103d7565b848454610353565b825550505050565b5f5f905090565b610414610405565b61041f8184846103e0565b505050565b5f5b828110156104455761043a5f82840161040c565b600181019050610426565b505050565b601f82111561049857828211156104975761046481610326565b61046d83610338565b61047685610338565b6020861015610483575f90505b80830161049282840382610424565b505050505b5b505050565b5f82821c905092915050565b5f6104b85f198460080261049d565b1980831691505092915050565b5f6104d083836104a9565b9150826002028217905092915050565b6104e9826102bf565b67ffffffffffffffff811115610502576105016100fc565b5b61050c82546102f6565b61051782828561044a565b5f60209050601f831160018114610548575f8415610536578287015190505b61054085826104c5565b8655506105a7565b601f19841661055686610326565b5f5b8281101561057d57848901518255600182019150602085019450602081019050610558565b8683101561059a5784890151610596601f8916826104a9565b8355505b6001600288020188555050505b505050505050565b6105d3806105bc5f395ff3fe608060405234801561000f575f5ffd5b5060043610610060575f3560e01c8063313ce5671461006457806354fd4d50146100825780637284e416146100a05780639a6fc8f5146100be578063d4c19bda146100f2578063feaf968c1461010e575b5f5ffd5b61006c610130565b60405161007991906102cd565b60405180910390f35b61008a610144565b60405161009791906102fe565b60405180910390f35b6100a861014d565b6040516100b59190610387565b60405180910390f35b6100d860048036038101906100d391906103ea565b6101dd565b6040516100e995949392919061043c565b60405180910390f35b61010c600480360381019061010791906104b7565b610200565b005b610116610263565b60405161012795949392919061043c565b60405180910390f35b5f5f5f9054906101000a900460ff16905090565b5f600254905090565b60606001805461015c9061050f565b80601f01602080910402602001604051908101604052809291908181526020018280546101889061050f565b80156101d35780601f106101aa576101008083540402835291602001916101d3565b820191905f5260205f20905b8154815290600101906020018083116101b657829003601f168201915b5050505050905090565b5f5f5f5f5f85600354600454600454899450945094509450945091939590929450565b806003819055504260048190555060055f81819054906101000a900469ffffffffffffffffffff16809291906102359061056c565b91906101000a81548169ffffffffffffffffffff021916908369ffffffffffffffffffff1602179055505050565b5f5f5f5f5f60055f9054906101000a900469ffffffffffffffffffff1660035460045460045460055f9054906101000a900469ffffffffffffffffffff16945094509450945094509091929394565b5f60ff82169050919050565b6102c7816102b2565b82525050565b5f6020820190506102e05f8301846102be565b92915050565b5f819050919050565b6102f8816102e6565b82525050565b5f6020820190506103115f8301846102ef565b92915050565b5f81519050919050565b5f82825260208201905092915050565b8281835e5f83830152505050565b5f601f19601f8301169050919050565b5f61035982610317565b6103638185610321565b9350610373818560208601610331565b61037c8161033f565b840191505092915050565b5f6020820190508181035f83015261039f818461034f565b905092915050565b5f5ffd5b5f69ffffffffffffffffffff82169050919050565b6103c9816103ab565b81146103d3575f5ffd5b50565b5f813590506103e4816103c0565b92915050565b5f602082840312156103ff576103fe6103a7565b5b5f61040c848285016103d6565b91505092915050565b61041e816103ab565b82525050565b5f819050919050565b61043681610424565b82525050565b5f60a08201905061044f5f830188610415565b61045c602083018761042d565b61046960408301866102ef565b61047660608301856102ef565b6104836080830184610415565b9695505050505050565b61049681610424565b81146104a0575f5ffd5b50565b5f813590506104b18161048d565b92915050565b5f602082840312156104cc576104cb6103a7565b5b5f6104d9848285016104a3565b91505092915050565b7f4e487b71000000000000000000000000000000000000000000000000000000005f52602260045260245ffd5b5f600282049050600182168061052657607f821691505b602082108103610539576105386104e2565b5b50919050565b7f4e487b71000000000000000000000000000000000000000000000000000000005f52601160045260245ffd5b5f610576826103ab565b915069ffffffffffffffffffff82036105925761059161053f565b5b60018201905091905056fea2646970667358221220cf6a5fe3ee8d8a3a6df487a51227be616d03d75bcef8c8ffee75dc28e83ffa0f64736f6c63430008210033","linkReferences":{}},"methodIdentifiers":{"decimals()":"313ce567","description()":"7284e416","getRoundData(uint80)":"9a6fc8f5","latestRoundData()":"feaf968c","updatePrice(int256)":"d4c19bda","version()":"54fd4d50"},"id":102}