{"abi":[{"type":"constructor","inputs":[{"name":"_implementation","type":"address","internalType":"address"}],"stateMutability":"nonpayable"},{"type":"function","name":"createVault","inputs":[{"name":"asset","type":"address","internalType":"address"},{"name":"owner","type":"address","internalType":"address"}],"outputs":[{"name":"vault","type":"address","internalType":"address"}],"stateMutability":"nonpayable"},{"type":"function","name":"implementation","inputs":[],"outputs":[{"name":"","type":"address","internalType":"address"}],"stateMutability":"view"},{"type":"event","name":"VaultCreated","inputs":[{"name":"asset","type":"address","indexed":true,"internalType":"address"},{"name":"owner","type":"address","indexed":true,"internalType":"address"},{"name":"vault","type":"address","indexed":false,"internalType":"address"}],"anonymous":false}],"bytecode":{"object":"0x60a060405234801561000f575f5ffd5b50604051610c18380380610c1883398181016040528101906100319190610137565b5f73ffffffffffffffffffffffffffffffffffffffff168173ffffffffffffffffffffffffffffffffffffffff160361009f576040517f08c379a0000000000000000000000000000000000000000000000000000000008152600401610096906101bc565b60405180910390fd5b8073ffffffffffffffffffffffffffffffffffffffff1660808173ffffffffffffffffffffffffffffffffffffffff1681525050506101da565b5f5ffd5b5f73ffffffffffffffffffffffffffffffffffffffff82169050919050565b5f610106826100dd565b9050919050565b610116816100fc565b8114610120575f5ffd5b50565b5f815190506101318161010d565b92915050565b5f6020828403121561014c5761014b6100d9565b5b5f61015984828501610123565b91505092915050565b5f82825260208201905092915050565b7f7a65726f20696d706c656d656e746174696f6e000000000000000000000000005f82015250565b5f6101a6601383610162565b91506101b182610172565b602082019050919050565b5f6020820190508181035f8301526101d38161019a565b9050919050565b608051610a206101f85f395f8181608801526101090152610a205ff3fe608060405234801561000f575f5ffd5b5060043610610034575f3560e01c80635c60da1b14610038578063cc92d31c14610056575b5f5ffd5b610040610086565b60405161004d9190610218565b60405180910390f35b610070600480360381019061006b919061025f565b6100aa565b60405161007d9190610218565b60405180910390f35b7f000000000000000000000000000000000000000000000000000000000000000081565b5f5f83836040516024016100bf92919061029d565b60405160208183030381529060405263485cc95560e01b6020820180517bffffffffffffffffffffffffffffffffffffffffffffffffffffffff838183161783525050505090505f7f000000000000000000000000000000000000000000000000000000000000000082604051610135906101cc565b610140929190610334565b604051809103905ff080158015610159573d5f5f3e3d5ffd5b5090508092508373ffffffffffffffffffffffffffffffffffffffff168573ffffffffffffffffffffffffffffffffffffffff167f897c133dfbfe1f6239e98b4ffd7e4f6c86a62350a131a7a37790419f58af02f9856040516101bc9190610218565b60405180910390a3505092915050565b6106888061036383390190565b5f73ffffffffffffffffffffffffffffffffffffffff82169050919050565b5f610202826101d9565b9050919050565b610212816101f8565b82525050565b5f60208201905061022b5f830184610209565b92915050565b5f5ffd5b61023e816101f8565b8114610248575f5ffd5b50565b5f8135905061025981610235565b92915050565b5f5f6040838503121561027557610274610231565b5b5f6102828582860161024b565b92505060206102938582860161024b565b9150509250929050565b5f6040820190506102b05f830185610209565b6102bd6020830184610209565b9392505050565b5f81519050919050565b5f82825260208201905092915050565b8281835e5f83830152505050565b5f601f19601f8301169050919050565b5f610306826102c4565b61031081856102ce565b93506103208185602086016102de565b610329816102ec565b840191505092915050565b5f6040820190506103475f830185610209565b818103602083015261035981846102fc565b9050939250505056fe608060405260405161068838038061068883398181016040528101906100259190610526565b61003361008e60201b60201c565b15801561004057505f8151145b15610077576040517fc28a273c00000000000000000000000000000000000000000000000000000000815260040160405180910390fd5b610087828261009560201b60201c565b50506105a8565b5f5f905090565b6100a48261011960201b60201c565b8173ffffffffffffffffffffffffffffffffffffffff167fbc7cd75a20ee27fd9adebab32041f755214dbc6bffa90cc0225b39da2e5c2d3b60405160405180910390a25f815111156101065761010082826101e860201b60201c565b50610115565b6101146102f760201b60201c565b5b5050565b5f8173ffffffffffffffffffffffffffffffffffffffff163b0361017457806040517f4c9c8ce300000000000000000000000000000000000000000000000000000000815260040161016b919061058f565b60405180910390fd5b806101a67f360894a13ba1a3210667c828492db98dca3e2076cc3735a920a3ca505d382bbc5f1b61033360201b60201c565b5f015f6101000a81548173ffffffffffffffffffffffffffffffffffffffff021916908373ffffffffffffffffffffffffffffffffffffffff16021790555050565b60605f6101fb848461033c60201b60201c565b905080801561023757505f61021461035060201b60201c565b118061023657505f8473ffffffffffffffffffffffffffffffffffffffff163b115b5b156102525761024a61035760201b60201c565b9150506102f1565b801561029557836040517f9996b31500000000000000000000000000000000000000000000000000000000815260040161028c919061058f565b60405180910390fd5b5f6102a461035060201b60201c565b11156102bd576102b861037460201b60201c565b6102ef565b6040517fd6bda27500000000000000000000000000000000000000000000000000000000815260040160405180910390fd5b505b92915050565b5f341115610331576040517fb398979f00000000000000000000000000000000000000000000000000000000815260040160405180910390fd5b565b5f819050919050565b5f5f5f835160208501865af4905092915050565b5f3d905090565b606060405190503d81523d5f602083013e3d602001810160405290565b6040513d5f823e3d81fd5b5f604051905090565b5f5ffd5b5f5ffd5b5f73ffffffffffffffffffffffffffffffffffffffff82169050919050565b5f6103b982610390565b9050919050565b6103c9816103af565b81146103d3575f5ffd5b50565b5f815190506103e4816103c0565b92915050565b5f5ffd5b5f5ffd5b5f601f19601f8301169050919050565b7f4e487b71000000000000000000000000000000000000000000000000000000005f52604160045260245ffd5b610438826103f2565b810181811067ffffffffffffffff8211171561045757610456610402565b5b80604052505050565b5f61046961037f565b9050610475828261042f565b919050565b5f67ffffffffffffffff82111561049457610493610402565b5b61049d826103f2565b9050602081019050919050565b8281835e5f83830152505050565b5f6104ca6104c58461047a565b610460565b9050828152602081018484840111156104e6576104e56103ee565b5b6104f18482856104aa565b509392505050565b5f82601f83011261050d5761050c6103ea565b5b815161051d8482602086016104b8565b91505092915050565b5f5f6040838503121561053c5761053b610388565b5b5f610549858286016103d6565b925050602083015167ffffffffffffffff81111561056a5761056961038c565b5b610576858286016104f9565b9150509250929050565b610589816103af565b82525050565b5f6020820190506105a25f830184610580565b92915050565b60d4806105b45f395ff3fe6080604052600a600c565b005b60186014601a565b6026565b565b5f60216044565b905090565b365f5f375f5f365f845af43d5f5f3e805f81146040573d5ff35b3d5ffd5b5f606e7f360894a13ba1a3210667c828492db98dca3e2076cc3735a920a3ca505d382bbc5f1b6095565b5f015f9054906101000a900473ffffffffffffffffffffffffffffffffffffffff16905090565b5f81905091905056fea2646970667358221220ce29ebe5a29ac97e8bd0c31018fe18fa1c489823df906c77fcfa70533df5e32c64736f6c63430008210033a2646970667358221220958c731c7411479fc387b844056deefee5838f2f4e073076fefbc836fef2a03864736f6c63430008210033","linkReferences":{}},"methodIdentifiers":{"createVault(address,address)":"cc92d31c","implementation()":"5c60da1b"},"id":107}