{"abi":[{"type":"constructor","inputs":[{"name":"initialSupply","type":"uint256","internalType":"uint256"}],"stateMutability":"nonpayable"},{"type":"function","name":"CLOCK_MODE","inputs":[],"outputs":[{"name":"","type":"string","internalType":"string"}],"stateMutability":"view"},{"type":"function","name":"DOMAIN_SEPARATOR","inputs":[],"outputs":[{"name":"","type":"bytes32","internalType":"bytes32"}],"stateMutability":"view"},{"type":"function","name":"allowance","inputs":[{"name":"owner","type":"address","internalType":"address"},{"name":"spender","type":"address","internalType":"address"}],"outputs":[{"name":"","type":"uint256","internalType":"uint256"}],"stateMutability":"view"},{"type":"function","name":"approve","inputs":[{"name":"spender","type":"address","internalType":"address"},{"name":"value","type":"uint256","internalType":"uint256"}],"outputs":[{"name":"","type":"bool","internalType":"bool"}],"stateMutability":"nonpayable"},{"type":"function","name":"balanceOf","inputs":[{"name":"account","type":"address","internalType":"address"}],"outputs":[{"name":"","type":"uint256","internalType":"uint256"}],"stateMutability":"view"},{"type":"function","name":"checkpoints","inputs":[{"name":"account","type":"address","internalType":"address"},{"name":"pos","type":"uint32","internalType":"uint32"}],"outputs":[{"name":"","type":"tuple","internalType":"struct Checkpoints.Checkpoint208","components":[{"name":"_key","type":"uint48","internalType":"uint48"},{"name":"_value","type":"uint208","internalType":"uint208"}]}],"stateMutability":"view"},{"type":"function","name":"clock","inputs":[],"outputs":[{"name":"","type":"uint48","internalType":"uint48"}],"stateMutability":"view"},{"type":"function","name":"decimals","inputs":[],"outputs":[{"name":"","type":"uint8","internalType":"uint8"}],"stateMutability":"view"},{"type":"function","name":"delegate","inputs":[{"name":"delegatee","type":"address","internalType":"address"}],"outputs":[],"stateMutability":"nonpayable"},{"type":"function","name":"delegateBySig","inputs":[{"name":"delegatee","type":"address","internalType":"address"},{"name":"nonce","type":"uint256","internalType":"uint256"},{"name":"expiry","type":"uint256","internalType":"uint256"},{"name":"v","type":"uint8","internalType":"uint8"},{"name":"r","type":"bytes32","internalType":"bytes32"},{"name":"s","type":"bytes32","internalType":"bytes32"}],"outputs":[],"stateMutability":"nonpayable"},{"type":"function","name":"delegates","inputs":[{"name":"account","type":"address","internalType":"address"}],"outputs":[{"name":"","type":"address","internalType":"address"}],"stateMutability":"view"},{"type":"function","name":"eip712Domain","inputs":[],"outputs":[{"name":"fields","type":"bytes1","internalType":"bytes1"},{"name":"name","type":"string","internalType":"string"},{"name":"version","type":"string","internalType":"string"},{"name":"chainId","type":"uint256","internalType":"uint256"},{"name":"verifyingContract","type":"address","internalType":"address"},{"name":"salt","type":"bytes32","internalType":"bytes32"},{"name":"extensions","type":"uint256[]","internalType":"uint256[]"}],"stateMutability":"view"},{"type":"function","name":"getPastTotalSupply","inputs":[{"name":"timepoint","type":"uint256","internalType":"uint256"}],"outputs":[{"name":"","type":"uint256","internalType":"uint256"}],"stateMutability":"view"},{"type":"function","name":"getPastVotes","inputs":[{"name":"account","type":"address","internalType":"address"},{"name":"timepoint","type":"uint256","internalType":"uint256"}],"outputs":[{"name":"","type":"uint256","internalType":"uint256"}],"stateMutability":"view"},{"type":"function","name":"getVotes","inputs":[{"name":"account","type":"address","internalType":"address"}],"outputs":[{"name":"","type":"uint256","internalType":"uint256"}],"stateMutability":"view"},{"type":"function","name":"name","inputs":[],"outputs":[{"name":"","type":"string","internalType":"string"}],"stateMutability":"view"},{"type":"function","name":"nonces","inputs":[{"name":"owner","type":"address","internalType":"address"}],"outputs":[{"name":"","type":"uint256","internalType":"uint256"}],"stateMutability":"view"},{"type":"function","name":"numCheckpoints","inputs":[{"name":"account","type":"address","internalType":"address"}],"outputs":[{"name":"","type":"uint32","internalType":"uint32"}],"stateMutability":"view"},{"type":"function","name":"owner","inputs":[],"outputs":[{"name":"","type":"address","internalType":"address"}],"stateMutability":"view"},{"type":"function","name":"permit","inputs":[{"name":"owner","type":"address","internalType":"address"},{"name":"spender","type":"address","internalType":"address"},{"name":"value","type":"uint256","internalType":"uint256"},{"name":"deadline","type":"uint256","internalType":"uint256"},{"name":"v","type":"uint8","internalType":"uint8"},{"name":"r","type":"bytes32","internalType":"bytes32"},{"name":"s","type":"bytes32","internalType":"bytes32"}],"outputs":[],"stateMutability":"nonpayable"},{"type":"function","name":"renounceOwnership","inputs":[],"outputs":[],"stateMutability":"nonpayable"},{"type":"function","name":"symbol","inputs":[],"outputs":[{"name":"","type":"string","internalType":"string"}],"stateMutability":"view"},{"type":"function","name":"totalSupply","inputs":[],"outputs":[{"name":"","type":"uint256","internalType":"uint256"}],"stateMutability":"view"},{"type":"function","name":"transfer","inputs":[{"name":"to","type":"address","internalType":"address"},{"name":"value","type":"uint256","internalType":"uint256"}],"outputs":[{"name":"","type":"bool","internalType":"bool"}],"stateMutability":"nonpayable"},{"type":"function","name":"transferFrom","inputs":[{"name":"from","type":"address","internalType":"address"},{"name":"to","type":"address","internalType":"address"},{"name":"value","type":"uint256","internalType":"uint256"}],"outputs":[{"name":"","type":"bool","internalType":"bool"}],"stateMutability":"nonpayable"},{"type":"function","name":"transferOwnership","inputs":[{"name":"newOwner","type":"address","internalType":"address"}],"outputs":[],"stateMutability":"nonpayable"},{"type":"event","name":"Approval","inputs":[{"name":"owner","type":"address","indexed":true,"internalType":"address"},{"name":"spender","type":"address","indexed":true,"internalType":"address"},{"name":"value","type":"uint256","indexed":false,"internalType":"uint256"}],"anonymous":false},{"type":"event","name":"DelegateChanged","inputs":[{"name":"delegator","type":"address","indexed":true,"internalType":"address"},{"name":"fromDelegate","type":"address","indexed":true,"internalType":"address"},{"name":"toDelegate","type":"address","indexed":true,"internalType":"address"}],"anonymous":false},{"type":"event","name":"DelegateVotesChanged","inputs":[{"name":"delegate","type":"address","indexed":true,"internalType":"address"},{"name":"previousVotes","type":"uint256","indexed":false,"internalType":"uint256"},{"name":"newVotes","type":"uint256","indexed":false,"internalType":"uint256"}],"anonymous":false},{"type":"event","name":"EIP712DomainChanged","inputs":[],"anonymous":false},{"type":"event","name":"OwnershipTransferred","inputs":[{"name":"previousOwner","type":"address","indexed":true,"internalType":"address"},{"name":"newOwner","type":"address","indexed":true,"internalType":"address"}],"anonymous":false},{"type":"event","name":"Transfer","inputs":[{"name":"from","type":"address","indexed":true,"internalType":"address"},{"name":"to","type":"address","indexed":true,"internalType":"address"},{"name":"value","type":"uint256","indexed":false,"internalType":"uint256"}],"anonymous":false},{"type":"error","name":"CheckpointUnorderedInsertion","inputs":[]},{"type":"error","name":"ECDSAInvalidSignature","inputs":[]},{"type":"error","name":"ECDSAInvalidSignatureLength","inputs":[{"name":"length","type":"uint256","internalType":"uint256"}]},{"type":"error","name":"ECDSAInvalidSignatureS","inputs":[{"name":"s","type":"bytes32","internalType":"bytes32"}]},{"type":"error","name":"ERC20ExceededSafeSupply","inputs":[{"name":"increasedSupply","type":"uint256","internalType":"uint256"},{"name":"cap","type":"uint256","internalType":"uint256"}]},{"type":"error","name":"ERC20InsufficientAllowance","inputs":[{"name":"spender","type":"address","internalType":"address"},{"name":"allowance","type":"uint256","internalType":"uint256"},{"name":"needed","type":"uint256","internalType":"uint256"}]},{"type":"error","name":"ERC20InsufficientBalance","inputs":[{"name":"sender","type":"address","internalType":"address"},{"name":"balance","type":"uint256","internalType":"uint256"},{"name":"needed","type":"uint256","internalType":"uint256"}]},{"type":"error","name":"ERC20InvalidApprover","inputs":[{"name":"approver","type":"address","internalType":"address"}]},{"type":"error","name":"ERC20InvalidReceiver","inputs":[{"name":"receiver","type":"address","internalType":"address"}]},{"type":"error","name":"ERC20InvalidSender","inputs":[{"name":"sender","type":"address","internalType":"address"}]},{"type":"error","name":"ERC20InvalidSpender","inputs":[{"name":"spender","type":"address","internalType":"address"}]},{"type":"error","name":"ERC2612ExpiredSignature","inputs":[{"name":"deadline","type":"uint256","internalType":"uint256"}]},{"type":"error","name":"ERC2612InvalidSigner","inputs":[{"name":"signer","type":"address","internalType":"address"},{"name":"owner","type":"address","internalType":"address"}]},{"type":"error","name":"ERC5805FutureLookup","inputs":[{"name":"timepoint","type":"uint256","internalType":"uint256"},{"name":"clock","type":"uint48","internalType":"uint48"}]},{"type":"error","name":"ERC6372InconsistentClock","inputs":[]},{"type":"error","name":"InvalidAccountNonce","inputs":[{"name":"account","type":"address","internalType":"address"},{"name":"currentNonce","type":"uint256","internalType":"uint256"}]},{"type":"error","name":"InvalidShortString","inputs":[]},{"type":"error","name":"OwnableInvalidOwner","inputs":[{"name":"owner","type":"address","internalType":"address"}]},{"type":"error","name":"OwnableUnauthorizedAccount","inputs":[{"name":"account","type":"address","internalType":"address"}]},{"type":"error","name":"SafeCastOverflowedUintDowncast","inputs":[{"name":"bits","type":"uint8","internalType":"uint8"},{"name":"value","type":"uint256","internalType":"uint256"}]},{"type":"error","name":"StringTooLong","inputs":[{"name":"str","type":"string","internalType":"string"}]},{"type":"error","name":"VotesExpiredSignature","inputs":[{"name":"expiry","type":"uint256","internalType":"uint256"}]}],"bytecode":{"object":"0x610160604052348015610010575f5ffd5b5060405161516638038061516683398181016040528101906100329190611105565b336040518060400160405280601981526020017f537570657241707020476f7665726e616e636520546f6b656e00000000000000815250806040518060400160405280600181526020017f31000000000000000000000000000000000000000000000000000000000000008152506040518060400160405280601981526020017f537570657241707020476f7665726e616e636520546f6b656e000000000000008152506040518060400160405280600381526020017f5347540000000000000000000000000000000000000000000000000000000000815250816003908161011b9190611375565b50806004908161012b9190611375565b50505061014260058361026f60201b90919060201c565b610120818152505061015e60068261026f60201b90919060201c565b6101408181525050818051906020012060e08181525050808051906020012061010081815250504660a0818152505061019b6102bc60201b60201c565b608081815250503073ffffffffffffffffffffffffffffffffffffffff1660c08173ffffffffffffffffffffffffffffffffffffffff16815250505050505f73ffffffffffffffffffffffffffffffffffffffff168173ffffffffffffffffffffffffffffffffffffffff1603610249575f6040517f1e4fbdf70000000000000000000000000000000000000000000000000000000081526004016102409190611483565b60405180910390fd5b6102588161031660201b60201c565b5061026933826103d960201b60201c565b506118c0565b5f602083511015610290576102898361045e60201b60201c565b90506102b6565b826102a0836104c360201b60201c565b5f0190816102ae9190611375565b5060ff5f1b90505b92915050565b5f7f8b73c3c69bb8fe3d512ecc4cf759cc79239f7b179b0ffacaa9a75d522b39400f60e0516101005146306040516020016102fb9594939291906114c3565b60405160208183030381529060405280519060200120905090565b5f600b5f9054906101000a900473ffffffffffffffffffffffffffffffffffffffff16905081600b5f6101000a81548173ffffffffffffffffffffffffffffffffffffffff021916908373ffffffffffffffffffffffffffffffffffffffff1602179055508173ffffffffffffffffffffffffffffffffffffffff168173ffffffffffffffffffffffffffffffffffffffff167f8be0079c531659141344cd1fd0a4f28419497f9722a3daafe3b4186f6b6457e060405160405180910390a35050565b5f73ffffffffffffffffffffffffffffffffffffffff168273ffffffffffffffffffffffffffffffffffffffff1603610449575f6040517fec442f050000000000000000000000000000000000000000000000000000000081526004016104409190611483565b60405180910390fd5b61045a5f83836104cc60201b60201c565b5050565b5f5f829050601f815111156104aa57826040517f305a27a90000000000000000000000000000000000000000000000000000000081526004016104a1919061157a565b60405180910390fd5b8051816104b6906115c7565b5f1c175f1b915050919050565b5f819050919050565b6104dd8383836104e260201b60201c565b505050565b6104f38383836105a860201b60201c565b5f73ffffffffffffffffffffffffffffffffffffffff168373ffffffffffffffffffffffffffffffffffffffff1603610592575f6105356107c160201b60201c565b90505f6105466107ca60201b60201c565b90508082111561058f5781816040517f1cb15d2600000000000000000000000000000000000000000000000000000000815260040161058692919061162d565b60405180910390fd5b50505b6105a38383836107ed60201b60201c565b505050565b5f73ffffffffffffffffffffffffffffffffffffffff168373ffffffffffffffffffffffffffffffffffffffff16036105f8578060025f8282546105ec9190611681565b925050819055506106c6565b5f5f5f8573ffffffffffffffffffffffffffffffffffffffff1673ffffffffffffffffffffffffffffffffffffffff1681526020019081526020015f2054905081811015610681578381836040517fe450d38c000000000000000000000000000000000000000000000000000000008152600401610678939291906116b4565b60405180910390fd5b8181035f5f8673ffffffffffffffffffffffffffffffffffffffff1673ffffffffffffffffffffffffffffffffffffffff1681526020019081526020015f2081905550505b5f73ffffffffffffffffffffffffffffffffffffffff168273ffffffffffffffffffffffffffffffffffffffff160361070d578060025f8282540392505081905550610757565b805f5f8473ffffffffffffffffffffffffffffffffffffffff1673ffffffffffffffffffffffffffffffffffffffff1681526020019081526020015f205f82825401925050819055505b8173ffffffffffffffffffffffffffffffffffffffff168373ffffffffffffffffffffffffffffffffffffffff167fddf252ad1be2c89b69c2b068fc378daa952ba7f163c4a11628f55a4df523b3ef836040516107b491906116e9565b60405180910390a3505050565b5f600254905090565b5f79ffffffffffffffffffffffffffffffffffffffffffffffffffff8016905090565b5f73ffffffffffffffffffffffffffffffffffffffff168373ffffffffffffffffffffffffffffffffffffffff160361084c57610849600a6108dd60201b610dc51761083e846108f260201b60201c565b61095f60201b60201c565b50505b5f73ffffffffffffffffffffffffffffffffffffffff168273ffffffffffffffffffffffffffffffffffffffff16036108ab576108a8600a6109a760201b610dda1761089d846108f260201b60201c565b61095f60201b60201c565b50505b6108d86108bd846109bc60201b60201c565b6108cc846109bc60201b60201c565b83610a2160201b60201c565b505050565b5f81836108ea9190611727565b905092915050565b5f79ffffffffffffffffffffffffffffffffffffffffffffffffffff80168211156109575760d0826040517f6dfcc65000000000000000000000000000000000000000000000000000000000815260040161094e9291906117b9565b60405180910390fd5b819050919050565b5f5f61099b610972610cb760201b60201c565b61098b61098488610ccb60201b60201c565b868860201c565b87610d3360201b9092919060201c565b91509150935093915050565b5f81836109b491906117e0565b905092915050565b5f60085f8373ffffffffffffffffffffffffffffffffffffffff1673ffffffffffffffffffffffffffffffffffffffff1681526020019081526020015f205f9054906101000a900473ffffffffffffffffffffffffffffffffffffffff169050919050565b8173ffffffffffffffffffffffffffffffffffffffff168373ffffffffffffffffffffffffffffffffffffffff1614158015610a5c57505f81115b15610cb2575f73ffffffffffffffffffffffffffffffffffffffff168373ffffffffffffffffffffffffffffffffffffffff1614610b89575f5f610afa60095f8773ffffffffffffffffffffffffffffffffffffffff1673ffffffffffffffffffffffffffffffffffffffff1681526020019081526020015f206109a760201b610dda17610aef866108f260201b60201c565b61095f60201b60201c565b79ffffffffffffffffffffffffffffffffffffffffffffffffffff16915079ffffffffffffffffffffffffffffffffffffffffffffffffffff1691508473ffffffffffffffffffffffffffffffffffffffff167fdec2bacdd2f05b59de34da9b523dff8be42e5e38e818c82fdb0bae774387a7248383604051610b7e92919061162d565b60405180910390a250505b5f73ffffffffffffffffffffffffffffffffffffffff168273ffffffffffffffffffffffffffffffffffffffff1614610cb1575f5f610c2260095f8673ffffffffffffffffffffffffffffffffffffffff1673ffffffffffffffffffffffffffffffffffffffff1681526020019081526020015f206108dd60201b610dc517610c17866108f260201b60201c565b61095f60201b60201c565b79ffffffffffffffffffffffffffffffffffffffffffffffffffff16915079ffffffffffffffffffffffffffffffffffffffffffffffffffff1691508373ffffffffffffffffffffffffffffffffffffffff167fdec2bacdd2f05b59de34da9b523dff8be42e5e38e818c82fdb0bae774387a7248383604051610ca692919061162d565b60405180910390a250505b5b505050565b5f610cc6610d5460201b60201c565b905090565b5f5f825f018054905090505f8114610d2957610cfb835f01600183610cf0919061182d565b610d6960201b60201c565b5f0160069054906101000a900479ffffffffffffffffffffffffffffffffffffffffffffffffffff16610d2b565b5f5b915050919050565b5f5f610d48855f018585610d7b60201b60201c565b91509150935093915050565b5f610d644361107560201b60201c565b905090565b5f825f528160205f2001905092915050565b5f5f5f858054905090505f811115610f8d575f610daa87600184610d9f919061182d565b610d6960201b60201c565b90505f815f015f9054906101000a900465ffffffffffff1690505f825f0160069054906101000a900479ffffffffffffffffffffffffffffffffffffffffffffffffffff1690508765ffffffffffff168265ffffffffffff161115610e3b576040517f2520601d00000000000000000000000000000000000000000000000000000000815260040160405180910390fd5b8765ffffffffffff168265ffffffffffff1603610ea55786835f0160066101000a81548179ffffffffffffffffffffffffffffffffffffffffffffffffffff021916908379ffffffffffffffffffffffffffffffffffffffffffffffffffff160217905550610f7e565b8860405180604001604052808a65ffffffffffff1681526020018979ffffffffffffffffffffffffffffffffffffffffffffffffffff16815250908060018154018082558091505060019003905f5260205f20015f909190919091505f820151815f015f6101000a81548165ffffffffffff021916908365ffffffffffff1602179055506020820151815f0160066101000a81548179ffffffffffffffffffffffffffffffffffffffffffffffffffff021916908379ffffffffffffffffffffffffffffffffffffffffffffffffffff16021790555050505b8087955095505050505061106d565b8560405180604001604052808765ffffffffffff1681526020018679ffffffffffffffffffffffffffffffffffffffffffffffffffff16815250908060018154018082558091505060019003905f5260205f20015f909190919091505f820151815f015f6101000a81548165ffffffffffff021916908365ffffffffffff1602179055506020820151815f0160066101000a81548179ffffffffffffffffffffffffffffffffffffffffffffffffffff021916908379ffffffffffffffffffffffffffffffffffffffffffffffffffff16021790555050505f8492509250505b935093915050565b5f65ffffffffffff80168211156110c6576030826040517f6dfcc6500000000000000000000000000000000000000000000000000000000081526004016110bd929190611899565b60405180910390fd5b819050919050565b5f5ffd5b5f819050919050565b6110e4816110d2565b81146110ee575f5ffd5b50565b5f815190506110ff816110db565b92915050565b5f6020828403121561111a576111196110ce565b5b5f611127848285016110f1565b91505092915050565b5f81519050919050565b7f4e487b71000000000000000000000000000000000000000000000000000000005f52604160045260245ffd5b7f4e487b71000000000000000000000000000000000000000000000000000000005f52602260045260245ffd5b5f60028204905060018216806111ab57607f821691505b6020821081036111be576111bd611167565b5b50919050565b5f819050815f5260205f209050919050565b5f6020601f8301049050919050565b5f82821b905092915050565b5f600883026112207fffffffffffffffffffffffffffffffffffffffffffffffffffffffffffffffff826111e5565b61122a86836111e5565b95508019841693508086168417925050509392505050565b5f819050919050565b5f61126561126061125b846110d2565b611242565b6110d2565b9050919050565b5f819050919050565b61127e8361124b565b61129261128a8261126c565b8484546111f1565b825550505050565b5f5f905090565b6112a961129a565b6112b4818484611275565b505050565b5f5b828110156112da576112cf5f8284016112a1565b6001810190506112bb565b505050565b601f82111561132d578282111561132c576112f9816111c4565b611302836111d6565b61130b856111d6565b6020861015611318575f90505b808301611327828403826112b9565b505050505b5b505050565b5f82821c905092915050565b5f61134d5f1984600802611332565b1980831691505092915050565b5f611365838361133e565b9150826002028217905092915050565b61137e82611130565b67ffffffffffffffff8111156113975761139661113a565b5b6113a18254611194565b6113ac8282856112df565b5f60209050601f8311600181146113dd575f84156113cb578287015190505b6113d5858261135a565b86555061143c565b601f1984166113eb866111c4565b5f5b82811015611412578489015182556001820191506020850194506020810190506113ed565b8683101561142f578489015161142b601f89168261133e565b8355505b6001600288020188555050505b505050505050565b5f73ffffffffffffffffffffffffffffffffffffffff82169050919050565b5f61146d82611444565b9050919050565b61147d81611463565b82525050565b5f6020820190506114965f830184611474565b92915050565b5f819050919050565b6114ae8161149c565b82525050565b6114bd816110d2565b82525050565b5f60a0820190506114d65f8301886114a5565b6114e360208301876114a5565b6114f060408301866114a5565b6114fd60608301856114b4565b61150a6080830184611474565b9695505050505050565b5f82825260208201905092915050565b8281835e5f83830152505050565b5f601f19601f8301169050919050565b5f61154c82611130565b6115568185611514565b9350611566818560208601611524565b61156f81611532565b840191505092915050565b5f6020820190508181035f8301526115928184611542565b905092915050565b5f81519050919050565b5f819050602082019050919050565b5f6115be825161149c565b80915050919050565b5f6115d18261159a565b826115db846115a4565b90506115e6816115b3565b92506020821015611626576116217fffffffffffffffffffffffffffffffffffffffffffffffffffffffffffffffff836020036008026111e5565b831692505b5050919050565b5f6040820190506116405f8301856114b4565b61164d60208301846114b4565b9392505050565b7f4e487b71000000000000000000000000000000000000000000000000000000005f52601160045260245ffd5b5f61168b826110d2565b9150611696836110d2565b92508282019050808211156116ae576116ad611654565b5b92915050565b5f6060820190506116c75f830186611474565b6116d460208301856114b4565b6116e160408301846114b4565b949350505050565b5f6020820190506116fc5f8301846114b4565b92915050565b5f79ffffffffffffffffffffffffffffffffffffffffffffffffffff82169050919050565b5f61173182611702565b915061173c83611702565b9250828201905079ffffffffffffffffffffffffffffffffffffffffffffffffffff81111561176e5761176d611654565b5b92915050565b5f819050919050565b5f60ff82169050919050565b5f6117a361179e61179984611774565b611242565b61177d565b9050919050565b6117b381611789565b82525050565b5f6040820190506117cc5f8301856117aa565b6117d960208301846114b4565b9392505050565b5f6117ea82611702565b91506117f583611702565b9250828203905079ffffffffffffffffffffffffffffffffffffffffffffffffffff81111561182757611826611654565b5b92915050565b5f611837826110d2565b9150611842836110d2565b925082820390508181111561185a57611859611654565b5b92915050565b5f819050919050565b5f61188361187e61187984611860565b611242565b61177d565b9050919050565b61189381611869565b82525050565b5f6040820190506118ac5f83018561188a565b6118b960208301846114b4565b9392505050565b60805160a05160c05160e0516101005161012051610140516138556119115f395f6114af01525f61147401525f6118b701525f61189601525f610f8e01525f610fe401525f61100d01526138555ff3fe608060405234801561000f575f5ffd5b506004361061018c575f3560e01c80637ecebe00116100dc5780639ab24eb011610095578063d505accf1161006f578063d505accf146104c6578063dd62ed3e146104e2578063f1127ed814610512578063f2fde38b146105425761018c565b80639ab24eb01461044a578063a9059cbb1461047a578063c3cda520146104aa5761018c565b80637ecebe001461036c57806384b0196e1461039c5780638da5cb5b146103c05780638e539e8c146103de57806391ddadf41461040e57806395d89b411461042c5761018c565b80633a46b1a8116101495780635c19a95c116101235780635c19a95c146102e65780636fcfff451461030257806370a0823114610332578063715018a6146103625761018c565b80633a46b1a8146102685780634bf5d7e914610298578063587cde1e146102b65761018c565b806306fdde0314610190578063095ea7b3146101ae57806318160ddd146101de57806323b872dd146101fc578063313ce5671461022c5780633644e5151461024a575b5f5ffd5b61019861055e565b6040516101a59190612ba8565b60405180910390f35b6101c860048036038101906101c39190612c59565b6105ee565b6040516101d59190612cb1565b60405180910390f35b6101e6610610565b6040516101f39190612cd9565b60405180910390f35b61021660048036038101906102119190612cf2565b610619565b6040516102239190612cb1565b60405180910390f35b610234610647565b6040516102419190612d5d565b60405180910390f35b61025261064f565b60405161025f9190612d8e565b60405180910390f35b610282600480360381019061027d9190612c59565b61065d565b60405161028f9190612cd9565b60405180910390f35b6102a06106d9565b6040516102ad9190612ba8565b60405180910390f35b6102d060048036038101906102cb9190612da7565b61076d565b6040516102dd9190612de1565b60405180910390f35b61030060048036038101906102fb9190612da7565b6107d2565b005b61031c60048036038101906103179190612da7565b6107eb565b6040516103299190612e18565b60405180910390f35b61034c60048036038101906103479190612da7565b6107fc565b6040516103599190612cd9565b60405180910390f35b61036a610841565b005b61038660048036038101906103819190612da7565b610854565b6040516103939190612cd9565b60405180910390f35b6103a4610865565b6040516103b79796959493929190612f22565b60405180910390f35b6103c861090a565b6040516103d59190612de1565b60405180910390f35b6103f860048036038101906103f39190612fa4565b610932565b6040516104059190612cd9565b60405180910390f35b610416610972565b6040516104239190612fef565b60405180910390f35b610434610980565b6040516104419190612ba8565b60405180910390f35b610464600480360381019061045f9190612da7565b610a10565b6040516104719190612cd9565b60405180910390f35b610494600480360381019061048f9190612c59565b610a79565b6040516104a19190612cb1565b60405180910390f35b6104c460048036038101906104bf919061305c565b610a9b565b005b6104e060048036038101906104db91906130e5565b610b60565b005b6104fc60048036038101906104f79190613182565b610ca5565b6040516105099190612cd9565b60405180910390f35b61052c600480360381019061052791906131ea565b610d27565b6040516105399190613298565b60405180910390f35b61055c60048036038101906105579190612da7565b610d41565b005b60606003805461056d906132de565b80601f0160208091040260200160405190810160405280929190818152602001828054610599906132de565b80156105e45780601f106105bb576101008083540402835291602001916105e4565b820191905f5260205f20905b8154815290600101906020018083116105c757829003601f168201915b5050505050905090565b5f5f6105f8610def565b9050610605818585610df6565b600191505092915050565b5f600254905090565b5f5f610623610def565b9050610630858285610e08565b61063b858585610e9b565b60019150509392505050565b5f6012905090565b5f610658610f8b565b905090565b5f6106b561066a83611041565b60095f8673ffffffffffffffffffffffffffffffffffffffff1673ffffffffffffffffffffffffffffffffffffffff1681526020019081526020015f206110ac90919063ffffffff16565b79ffffffffffffffffffffffffffffffffffffffffffffffffffff16905092915050565b60606106e361119c565b65ffffffffffff166106f3610972565b65ffffffffffff1614610732576040517f6ff0714000000000000000000000000000000000000000000000000000000000815260040160405180910390fd5b6040518060400160405280601d81526020017f6d6f64653d626c6f636b6e756d6265722666726f6d3d64656661756c74000000815250905090565b5f60085f8373ffffffffffffffffffffffffffffffffffffffff1673ffffffffffffffffffffffffffffffffffffffff1681526020019081526020015f205f9054906101000a900473ffffffffffffffffffffffffffffffffffffffff169050919050565b5f6107db610def565b90506107e781836111ab565b5050565b5f6107f5826112bb565b9050919050565b5f5f5f8373ffffffffffffffffffffffffffffffffffffffff1673ffffffffffffffffffffffffffffffffffffffff1681526020019081526020015f20549050919050565b610849611310565b6108525f611397565b565b5f61085e8261145a565b9050919050565b5f6060805f5f5f606061087661146b565b61087e6114a6565b46305f5f1b5f67ffffffffffffffff81111561089d5761089c61330e565b5b6040519080825280602002602001820160405280156108cb5781602001602082028036833780820191505090505b507f0f00000000000000000000000000000000000000000000000000000000000000959493929190965096509650965096509650965090919293949596565b5f600b5f9054906101000a900473ffffffffffffffffffffffffffffffffffffffff16905090565b5f61094f61093f83611041565b600a6110ac90919063ffffffff16565b79ffffffffffffffffffffffffffffffffffffffffffffffffffff169050919050565b5f61097b61119c565b905090565b60606004805461098f906132de565b80601f01602080910402602001604051908101604052809291908181526020018280546109bb906132de565b8015610a065780601f106109dd57610100808354040283529160200191610a06565b820191905f5260205f20905b8154815290600101906020018083116109e957829003601f168201915b5050505050905090565b5f610a5660095f8473ffffffffffffffffffffffffffffffffffffffff1673ffffffffffffffffffffffffffffffffffffffff1681526020019081526020015f206114e1565b79ffffffffffffffffffffffffffffffffffffffffffffffffffff169050919050565b5f5f610a83610def565b9050610a90818585610e9b565b600191505092915050565b83421115610ae057836040517f4683af0e000000000000000000000000000000000000000000000000000000008152600401610ad79190612cd9565b60405180910390fd5b5f610b41610b397fe48329057bfd03d55e49b547132e39cffd9c1820ad7b9d4c5307691425d15adf898989604051602001610b1e949392919061333b565b60405160208183030381529060405280519060200120611543565b85858561155c565b9050610b4d818761158a565b610b5781886111ab565b50505050505050565b83421115610ba557836040517f62791302000000000000000000000000000000000000000000000000000000008152600401610b9c9190612cd9565b60405180910390fd5b5f7f6e71edae12b1b97f4d1f60370fef10105fa2faae0126114a169c64845d6126c9888888610bd38c6115e1565b89604051602001610be99695949392919061337e565b6040516020818303038152906040528051906020012090505f610c0b82611543565b90505f610c1a8287878761155c565b90508973ffffffffffffffffffffffffffffffffffffffff168173ffffffffffffffffffffffffffffffffffffffff1614610c8e57808a6040517f4b800e46000000000000000000000000000000000000000000000000000000008152600401610c859291906133dd565b60405180910390fd5b610c998a8a8a610df6565b50505050505050505050565b5f60015f8473ffffffffffffffffffffffffffffffffffffffff1673ffffffffffffffffffffffffffffffffffffffff1681526020019081526020015f205f8373ffffffffffffffffffffffffffffffffffffffff1673ffffffffffffffffffffffffffffffffffffffff1681526020019081526020015f2054905092915050565b610d2f612afc565b610d398383611634565b905092915050565b610d49611310565b5f73ffffffffffffffffffffffffffffffffffffffff168173ffffffffffffffffffffffffffffffffffffffff1603610db9575f6040517f1e4fbdf7000000000000000000000000000000000000000000000000000000008152600401610db09190612de1565b60405180910390fd5b610dc281611397565b50565b5f8183610dd29190613431565b905092915050565b5f8183610de7919061347e565b905092915050565b5f33905090565b610e038383836001611693565b505050565b5f610e138484610ca5565b90507fffffffffffffffffffffffffffffffffffffffffffffffffffffffffffffffff811015610e955781811015610e86578281836040517ffb8f41b2000000000000000000000000000000000000000000000000000000008152600401610e7d939291906134cb565b60405180910390fd5b610e9484848484035f611693565b5b50505050565b5f73ffffffffffffffffffffffffffffffffffffffff168373ffffffffffffffffffffffffffffffffffffffff1603610f0b575f6040517f96c6fd1e000000000000000000000000000000000000000000000000000000008152600401610f029190612de1565b60405180910390fd5b5f73ffffffffffffffffffffffffffffffffffffffff168273ffffffffffffffffffffffffffffffffffffffff1603610f7b575f6040517fec442f05000000000000000000000000000000000000000000000000000000008152600401610f729190612de1565b60405180910390fd5b610f86838383611862565b505050565b5f7f000000000000000000000000000000000000000000000000000000000000000073ffffffffffffffffffffffffffffffffffffffff163073ffffffffffffffffffffffffffffffffffffffff1614801561100657507f000000000000000000000000000000000000000000000000000000000000000046145b15611033577f0000000000000000000000000000000000000000000000000000000000000000905061103e565b61103b611872565b90505b90565b5f5f61104b610972565b90508065ffffffffffff16831061109b5782816040517fecd3f81e000000000000000000000000000000000000000000000000000000008152600401611092929190613500565b60405180910390fd5b6110a483611907565b915050919050565b5f5f835f018054905090505f5f90505f8290506005831115611130575f6110d284611960565b846110dd9190613527565b90506110eb875f0182611afa565b5f015f9054906101000a900465ffffffffffff1665ffffffffffff168665ffffffffffff16101561111e5780915061112e565b60018161112b919061355a565b92505b505b5f61113f875f01878585611b0c565b90505f811461118e57611160875f0160018361115b9190613527565b611afa565b5f0160069054906101000a900479ffffffffffffffffffffffffffffffffffffffffffffffffffff16611190565b5f5b94505050505092915050565b5f6111a643611907565b905090565b5f6111b58361076d565b90508160085f8573ffffffffffffffffffffffffffffffffffffffff1673ffffffffffffffffffffffffffffffffffffffff1681526020019081526020015f205f6101000a81548173ffffffffffffffffffffffffffffffffffffffff021916908373ffffffffffffffffffffffffffffffffffffffff1602179055508173ffffffffffffffffffffffffffffffffffffffff168173ffffffffffffffffffffffffffffffffffffffff168473ffffffffffffffffffffffffffffffffffffffff167f3134e8a2e6d97e929a7e54011ea5485d7d196dd5f0ba4d4ef95803e8e3fc257f60405160405180910390a46112b681836112b186611b81565b611b92565b505050565b5f61130961130460095f8573ffffffffffffffffffffffffffffffffffffffff1673ffffffffffffffffffffffffffffffffffffffff1681526020019081526020015f20611e02565b611e11565b9050919050565b611318610def565b73ffffffffffffffffffffffffffffffffffffffff1661133661090a565b73ffffffffffffffffffffffffffffffffffffffff161461139557611359610def565b6040517f118cdaa700000000000000000000000000000000000000000000000000000000815260040161138c9190612de1565b60405180910390fd5b565b5f600b5f9054906101000a900473ffffffffffffffffffffffffffffffffffffffff16905081600b5f6101000a81548173ffffffffffffffffffffffffffffffffffffffff021916908373ffffffffffffffffffffffffffffffffffffffff1602179055508173ffffffffffffffffffffffffffffffffffffffff168173ffffffffffffffffffffffffffffffffffffffff167f8be0079c531659141344cd1fd0a4f28419497f9722a3daafe3b4186f6b6457e060405160405180910390a35050565b5f61146482611e68565b9050919050565b60606114a160057f0000000000000000000000000000000000000000000000000000000000000000611eae90919063ffffffff16565b905090565b60606114dc60067f0000000000000000000000000000000000000000000000000000000000000000611eae90919063ffffffff16565b905090565b5f5f825f018054905090505f81146115395761150b835f016001836115069190613527565b611afa565b5f0160069054906101000a900479ffffffffffffffffffffffffffffffffffffffffffffffffffff1661153b565b5f5b915050919050565b5f61155561154f610f8b565b83611f5b565b9050919050565b5f5f5f5f61156c88888888611f9b565b92509250925061157c8282612082565b829350505050949350505050565b5f611594836115e1565b90508082146115dc5782816040517f752d88c00000000000000000000000000000000000000000000000000000000081526004016115d392919061358d565b60405180910390fd5b505050565b5f60075f8373ffffffffffffffffffffffffffffffffffffffff1673ffffffffffffffffffffffffffffffffffffffff1681526020019081526020015f205f815480929190600101919050559050919050565b61163c612afc565b61168b8260095f8673ffffffffffffffffffffffffffffffffffffffff1673ffffffffffffffffffffffffffffffffffffffff1681526020019081526020015f206121e490919063ffffffff16565b905092915050565b5f73ffffffffffffffffffffffffffffffffffffffff168473ffffffffffffffffffffffffffffffffffffffff1603611703575f6040517fe602df050000000000000000000000000000000000000000000000000000000081526004016116fa9190612de1565b60405180910390fd5b5f73ffffffffffffffffffffffffffffffffffffffff168373ffffffffffffffffffffffffffffffffffffffff1603611773575f6040517f94280d6200000000000000000000000000000000000000000000000000000000815260040161176a9190612de1565b60405180910390fd5b8160015f8673ffffffffffffffffffffffffffffffffffffffff1673ffffffffffffffffffffffffffffffffffffffff1681526020019081526020015f205f8573ffffffffffffffffffffffffffffffffffffffff1673ffffffffffffffffffffffffffffffffffffffff1681526020019081526020015f2081905550801561185c578273ffffffffffffffffffffffffffffffffffffffff168473ffffffffffffffffffffffffffffffffffffffff167f8c5be1e5ebec7d5bd14f71427d1e84f3dd0314c0f7b2291e5b200ac8c7c3b925846040516118539190612cd9565b60405180910390a35b50505050565b61186d8383836122b3565b505050565b5f7f8b73c3c69bb8fe3d512ecc4cf759cc79239f7b179b0ffacaa9a75d522b39400f7f00000000000000000000000000000000000000000000000000000000000000007f000000000000000000000000000000000000000000000000000000000000000046306040516020016118ec9594939291906135b4565b60405160208183030381529060405280519060200120905090565b5f65ffffffffffff8016821115611958576030826040517f6dfcc65000000000000000000000000000000000000000000000000000000000815260040161194f929190613647565b60405180910390fd5b819050919050565b5f6001821161197157819050611af5565b5f8290505f6001905070010000000000000000000000000000000082106119a157608082901c9150604081901b90505b6801000000000000000082106119c057604082901c9150602081901b90505b64010000000082106119db57602082901c9150601081901b90505b6201000082106119f457601082901c9150600881901b90505b6101008210611a0c57600882901c9150600481901b90505b60108210611a2357600482901c9150600281901b90505b60048210611a3357600181901b90505b600181600302901c90506001818581611a4f57611a4e61366e565b5b048201901c90506001818581611a6857611a6761366e565b5b048201901c90506001818581611a8157611a8061366e565b5b048201901c90506001818581611a9a57611a9961366e565b5b048201901c90506001818581611ab357611ab261366e565b5b048201901c90506001818581611acc57611acb61366e565b5b048201901c9050611aee818581611ae657611ae561366e565b5b048211612361565b8103925050505b919050565b5f825f528160205f2001905092915050565b5f5b81831015611b76575f611b21848461236c565b90508465ffffffffffff16611b368783611afa565b5f015f9054906101000a900465ffffffffffff1665ffffffffffff161115611b6057809250611b70565b600181611b6d919061355a565b93505b50611b0e565b819050949350505050565b5f611b8b826107fc565b9050919050565b8173ffffffffffffffffffffffffffffffffffffffff168373ffffffffffffffffffffffffffffffffffffffff1614158015611bcd57505f81115b15611dfd575f73ffffffffffffffffffffffffffffffffffffffff168373ffffffffffffffffffffffffffffffffffffffff1614611ce7575f5f611c5860095f8773ffffffffffffffffffffffffffffffffffffffff1673ffffffffffffffffffffffffffffffffffffffff1681526020019081526020015f20610dda611c538661238d565b6123fa565b79ffffffffffffffffffffffffffffffffffffffffffffffffffff16915079ffffffffffffffffffffffffffffffffffffffffffffffffffff1691508473ffffffffffffffffffffffffffffffffffffffff167fdec2bacdd2f05b59de34da9b523dff8be42e5e38e818c82fdb0bae774387a7248383604051611cdc92919061369b565b60405180910390a250505b5f73ffffffffffffffffffffffffffffffffffffffff168273ffffffffffffffffffffffffffffffffffffffff1614611dfc575f5f611d6d60095f8673ffffffffffffffffffffffffffffffffffffffff1673ffffffffffffffffffffffffffffffffffffffff1681526020019081526020015f20610dc5611d688661238d565b6123fa565b79ffffffffffffffffffffffffffffffffffffffffffffffffffff16915079ffffffffffffffffffffffffffffffffffffffffffffffffffff1691508373ffffffffffffffffffffffffffffffffffffffff167fdec2bacdd2f05b59de34da9b523dff8be42e5e38e818c82fdb0bae774387a7248383604051611df192919061369b565b60405180910390a250505b5b505050565b5f815f01805490509050919050565b5f63ffffffff8016821115611e60576020826040517f6dfcc650000000000000000000000000000000000000000000000000000000008152600401611e579291906136fb565b60405180910390fd5b819050919050565b5f60075f8373ffffffffffffffffffffffffffffffffffffffff1673ffffffffffffffffffffffffffffffffffffffff1681526020019081526020015f20549050919050565b606060ff5f1b8314611eca57611ec383612439565b9050611f55565b818054611ed6906132de565b80601f0160208091040260200160405190810160405280929190818152602001828054611f02906132de565b8015611f4d5780601f10611f2457610100808354040283529160200191611f4d565b820191905f5260205f20905b815481529060010190602001808311611f3057829003601f168201915b505050505090505b92915050565b5f6040517f190100000000000000000000000000000000000000000000000000000000000081528360028201528260228201526042812091505092915050565b5f5f5f7f7fffffffffffffffffffffffffffffff5d576e7357a4501ddfe92f46681b20a0845f1c1115611fd7575f600385925092509250612078565b5f6001888888886040515f8152602001604052604051611ffa9493929190613722565b6020604051602081039080840390855afa15801561201a573d5f5f3e3d5ffd5b5050506020604051035190505f73ffffffffffffffffffffffffffffffffffffffff168173ffffffffffffffffffffffffffffffffffffffff160361206b575f60015f5f1b93509350935050612078565b805f5f5f1b935093509350505b9450945094915050565b5f600381111561209557612094613765565b5b8260038111156120a8576120a7613765565b5b03156121e057600160038111156120c2576120c1613765565b5b8260038111156120d5576120d4613765565b5b0361210c576040517ff645eedf00000000000000000000000000000000000000000000000000000000815260040160405180910390fd5b600260038111156121205761211f613765565b5b82600381111561213357612132613765565b5b0361217757805f1c6040517ffce698f700000000000000000000000000000000000000000000000000000000815260040161216e9190612cd9565b60405180910390fd5b60038081111561218a57612189613765565b5b82600381111561219d5761219c613765565b5b036121df57806040517fd78bce0c0000000000000000000000000000000000000000000000000000000081526004016121d69190612d8e565b60405180910390fd5b5b5050565b6121ec612afc565b825f018263ffffffff168154811061220757612206613792565b5b905f5260205f20016040518060400160405290815f82015f9054906101000a900465ffffffffffff1665ffffffffffff1665ffffffffffff1681526020015f820160069054906101000a900479ffffffffffffffffffffffffffffffffffffffffffffffffffff1679ffffffffffffffffffffffffffffffffffffffffffffffffffff1679ffffffffffffffffffffffffffffffffffffffffffffffffffff1681525050905092915050565b6122be8383836124ab565b5f73ffffffffffffffffffffffffffffffffffffffff168373ffffffffffffffffffffffffffffffffffffffff1603612351575f6122fa610610565b90505f6123056126c4565b90508082111561234e5781816040517f1cb15d2600000000000000000000000000000000000000000000000000000000815260040161234592919061369b565b60405180910390fd5b50505b61235c8383836126e7565b505050565b5f8115159050919050565b5f6002828418816123805761237f61366e565b5b0482841601905092915050565b5f79ffffffffffffffffffffffffffffffffffffffffffffffffffff80168211156123f25760d0826040517f6dfcc6500000000000000000000000000000000000000000000000000000000081526004016123e99291906137f8565b60405180910390fd5b819050919050565b5f5f61242d612407610972565b61241d612413886114e1565b868863ffffffff16565b8761279f9092919063ffffffff16565b91509150935093915050565b60605f612445836127ba565b90505f602067ffffffffffffffff8111156124635761246261330e565b5b6040519080825280601f01601f1916602001820160405280156124955781602001600182028036833780820191505090505b5090508181528360208201528092505050919050565b5f73ffffffffffffffffffffffffffffffffffffffff168373ffffffffffffffffffffffffffffffffffffffff16036124fb578060025f8282546124ef919061355a565b925050819055506125c9565b5f5f5f8573ffffffffffffffffffffffffffffffffffffffff1673ffffffffffffffffffffffffffffffffffffffff1681526020019081526020015f2054905081811015612584578381836040517fe450d38c00000000000000000000000000000000000000000000000000000000815260040161257b939291906134cb565b60405180910390fd5b8181035f5f8673ffffffffffffffffffffffffffffffffffffffff1673ffffffffffffffffffffffffffffffffffffffff1681526020019081526020015f2081905550505b5f73ffffffffffffffffffffffffffffffffffffffff168273ffffffffffffffffffffffffffffffffffffffff1603612610578060025f828254039250508190555061265a565b805f5f8473ffffffffffffffffffffffffffffffffffffffff1673ffffffffffffffffffffffffffffffffffffffff1681526020019081526020015f205f82825401925050819055505b8173ffffffffffffffffffffffffffffffffffffffff168373ffffffffffffffffffffffffffffffffffffffff167fddf252ad1be2c89b69c2b068fc378daa952ba7f163c4a11628f55a4df523b3ef836040516126b79190612cd9565b60405180910390a3505050565b5f79ffffffffffffffffffffffffffffffffffffffffffffffffffff8016905090565b5f73ffffffffffffffffffffffffffffffffffffffff168373ffffffffffffffffffffffffffffffffffffffff160361273357612730600a610dc561272b8461238d565b6123fa565b50505b5f73ffffffffffffffffffffffffffffffffffffffff168273ffffffffffffffffffffffffffffffffffffffff160361277f5761277c600a610dda6127778461238d565b6123fa565b50505b61279a61278b8461076d565b6127948461076d565b83611b92565b505050565b5f5f6127ae855f018585612808565b91509150935093915050565b5f5f60ff835f1c169050601f8111156127ff576040517fb3512b0c00000000000000000000000000000000000000000000000000000000815260040160405180910390fd5b80915050919050565b5f5f5f858054905090505f811115612a14575f6128318760018461282c9190613527565b611afa565b90505f815f015f9054906101000a900465ffffffffffff1690505f825f0160069054906101000a900479ffffffffffffffffffffffffffffffffffffffffffffffffffff1690508765ffffffffffff168265ffffffffffff1611156128c2576040517f2520601d00000000000000000000000000000000000000000000000000000000815260040160405180910390fd5b8765ffffffffffff168265ffffffffffff160361292c5786835f0160066101000a81548179ffffffffffffffffffffffffffffffffffffffffffffffffffff021916908379ffffffffffffffffffffffffffffffffffffffffffffffffffff160217905550612a05565b8860405180604001604052808a65ffffffffffff1681526020018979ffffffffffffffffffffffffffffffffffffffffffffffffffff16815250908060018154018082558091505060019003905f5260205f20015f909190919091505f820151815f015f6101000a81548165ffffffffffff021916908365ffffffffffff1602179055506020820151815f0160066101000a81548179ffffffffffffffffffffffffffffffffffffffffffffffffffff021916908379ffffffffffffffffffffffffffffffffffffffffffffffffffff16021790555050505b80879550955050505050612af4565b8560405180604001604052808765ffffffffffff1681526020018679ffffffffffffffffffffffffffffffffffffffffffffffffffff16815250908060018154018082558091505060019003905f5260205f20015f909190919091505f820151815f015f6101000a81548165ffffffffffff021916908365ffffffffffff1602179055506020820151815f0160066101000a81548179ffffffffffffffffffffffffffffffffffffffffffffffffffff021916908379ffffffffffffffffffffffffffffffffffffffffffffffffffff16021790555050505f8492509250505b935093915050565b60405180604001604052805f65ffffffffffff1681526020015f79ffffffffffffffffffffffffffffffffffffffffffffffffffff1681525090565b5f81519050919050565b5f82825260208201905092915050565b8281835e5f83830152505050565b5f601f19601f8301169050919050565b5f612b7a82612b38565b612b848185612b42565b9350612b94818560208601612b52565b612b9d81612b60565b840191505092915050565b5f6020820190508181035f830152612bc08184612b70565b905092915050565b5f5ffd5b5f73ffffffffffffffffffffffffffffffffffffffff82169050919050565b5f612bf582612bcc565b9050919050565b612c0581612beb565b8114612c0f575f5ffd5b50565b5f81359050612c2081612bfc565b92915050565b5f819050919050565b612c3881612c26565b8114612c42575f5ffd5b50565b5f81359050612c5381612c2f565b92915050565b5f5f60408385031215612c6f57612c6e612bc8565b5b5f612c7c85828601612c12565b9250506020612c8d85828601612c45565b9150509250929050565b5f8115159050919050565b612cab81612c97565b82525050565b5f602082019050612cc45f830184612ca2565b92915050565b612cd381612c26565b82525050565b5f602082019050612cec5f830184612cca565b92915050565b5f5f5f60608486031215612d0957612d08612bc8565b5b5f612d1686828701612c12565b9350506020612d2786828701612c12565b9250506040612d3886828701612c45565b9150509250925092565b5f60ff82169050919050565b612d5781612d42565b82525050565b5f602082019050612d705f830184612d4e565b92915050565b5f819050919050565b612d8881612d76565b82525050565b5f602082019050612da15f830184612d7f565b92915050565b5f60208284031215612dbc57612dbb612bc8565b5b5f612dc984828501612c12565b91505092915050565b612ddb81612beb565b82525050565b5f602082019050612df45f830184612dd2565b92915050565b5f63ffffffff82169050919050565b612e1281612dfa565b82525050565b5f602082019050612e2b5f830184612e09565b92915050565b5f7fff0000000000000000000000000000000000000000000000000000000000000082169050919050565b612e6581612e31565b82525050565b5f81519050919050565b5f82825260208201905092915050565b5f819050602082019050919050565b612e9d81612c26565b82525050565b5f612eae8383612e94565b60208301905092915050565b5f602082019050919050565b5f612ed082612e6b565b612eda8185612e75565b9350612ee583612e85565b805f5b83811015612f15578151612efc8882612ea3565b9750612f0783612eba565b925050600181019050612ee8565b5085935050505092915050565b5f60e082019050612f355f83018a612e5c565b8181036020830152612f478189612b70565b90508181036040830152612f5b8188612b70565b9050612f6a6060830187612cca565b612f776080830186612dd2565b612f8460a0830185612d7f565b81810360c0830152612f968184612ec6565b905098975050505050505050565b5f60208284031215612fb957612fb8612bc8565b5b5f612fc684828501612c45565b91505092915050565b5f65ffffffffffff82169050919050565b612fe981612fcf565b82525050565b5f6020820190506130025f830184612fe0565b92915050565b61301181612d42565b811461301b575f5ffd5b50565b5f8135905061302c81613008565b92915050565b61303b81612d76565b8114613045575f5ffd5b50565b5f8135905061305681613032565b92915050565b5f5f5f5f5f5f60c0878903121561307657613075612bc8565b5b5f61308389828a01612c12565b965050602061309489828a01612c45565b95505060406130a589828a01612c45565b94505060606130b689828a0161301e565b93505060806130c789828a01613048565b92505060a06130d889828a01613048565b9150509295509295509295565b5f5f5f5f5f5f5f60e0888a031215613100576130ff612bc8565b5b5f61310d8a828b01612c12565b975050602061311e8a828b01612c12565b965050604061312f8a828b01612c45565b95505060606131408a828b01612c45565b94505060806131518a828b0161301e565b93505060a06131628a828b01613048565b92505060c06131738a828b01613048565b91505092959891949750929550565b5f5f6040838503121561319857613197612bc8565b5b5f6131a585828601612c12565b92505060206131b685828601612c12565b9150509250929050565b6131c981612dfa565b81146131d3575f5ffd5b50565b5f813590506131e4816131c0565b92915050565b5f5f60408385031215613200576131ff612bc8565b5b5f61320d85828601612c12565b925050602061321e858286016131d6565b9150509250929050565b61323181612fcf565b82525050565b5f79ffffffffffffffffffffffffffffffffffffffffffffffffffff82169050919050565b61326581613237565b82525050565b604082015f82015161327f5f850182613228565b506020820151613292602085018261325c565b50505050565b5f6040820190506132ab5f83018461326b565b92915050565b7f4e487b71000000000000000000000000000000000000000000000000000000005f52602260045260245ffd5b5f60028204905060018216806132f557607f821691505b602082108103613308576133076132b1565b5b50919050565b7f4e487b71000000000000000000000000000000000000000000000000000000005f52604160045260245ffd5b5f60808201905061334e5f830187612d7f565b61335b6020830186612dd2565b6133686040830185612cca565b6133756060830184612cca565b95945050505050565b5f60c0820190506133915f830189612d7f565b61339e6020830188612dd2565b6133ab6040830187612dd2565b6133b86060830186612cca565b6133c56080830185612cca565b6133d260a0830184612cca565b979650505050505050565b5f6040820190506133f05f830185612dd2565b6133fd6020830184612dd2565b9392505050565b7f4e487b71000000000000000000000000000000000000000000000000000000005f52601160045260245ffd5b5f61343b82613237565b915061344683613237565b9250828201905079ffffffffffffffffffffffffffffffffffffffffffffffffffff81111561347857613477613404565b5b92915050565b5f61348882613237565b915061349383613237565b9250828203905079ffffffffffffffffffffffffffffffffffffffffffffffffffff8111156134c5576134c4613404565b5b92915050565b5f6060820190506134de5f830186612dd2565b6134eb6020830185612cca565b6134f86040830184612cca565b949350505050565b5f6040820190506135135f830185612cca565b6135206020830184612fe0565b9392505050565b5f61353182612c26565b915061353c83612c26565b925082820390508181111561355457613553613404565b5b92915050565b5f61356482612c26565b915061356f83612c26565b925082820190508082111561358757613586613404565b5b92915050565b5f6040820190506135a05f830185612dd2565b6135ad6020830184612cca565b9392505050565b5f60a0820190506135c75f830188612d7f565b6135d46020830187612d7f565b6135e16040830186612d7f565b6135ee6060830185612cca565b6135fb6080830184612dd2565b9695505050505050565b5f819050919050565b5f819050919050565b5f61363161362c61362784613605565b61360e565b612d42565b9050919050565b61364181613617565b82525050565b5f60408201905061365a5f830185613638565b6136676020830184612cca565b9392505050565b7f4e487b71000000000000000000000000000000000000000000000000000000005f52601260045260245ffd5b5f6040820190506136ae5f830185612cca565b6136bb6020830184612cca565b9392505050565b5f819050919050565b5f6136e56136e06136db846136c2565b61360e565b612d42565b9050919050565b6136f5816136cb565b82525050565b5f60408201905061370e5f8301856136ec565b61371b6020830184612cca565b9392505050565b5f6080820190506137355f830187612d7f565b6137426020830186612d4e565b61374f6040830185612d7f565b61375c6060830184612d7f565b95945050505050565b7f4e487b71000000000000000000000000000000000000000000000000000000005f52602160045260245ffd5b7f4e487b71000000000000000000000000000000000000000000000000000000005f52603260045260245ffd5b5f819050919050565b5f6137e26137dd6137d8846137bf565b61360e565b612d42565b9050919050565b6137f2816137c8565b82525050565b5f60408201905061380b5f8301856137e9565b6138186020830184612cca565b939250505056fea2646970667358221220f5b0d6550104be1ccddf2c3ffc15b835fae5cf82fec5ee672357aa4e878f520464736f6c63430008210033","linkReferences":{}},"methodIdentifiers":{"CLOCK_MODE()":"4bf5d7e9","DOMAIN_SEPARATOR()":"3644e515","allowance(address,address)":"dd62ed3e","approve(address,uint256)":"095ea7b3","balanceOf(address)":"70a08231","checkpoints(address,uint32)":"f1127ed8","clock()":"91ddadf4","decimals()":"313ce567","delegate(address)":"5c19a95c","delegateBySig(address,uint256,uint256,uint8,bytes32,bytes32)":"c3cda520","delegates(address)":"587cde1e","eip712Domain()":"84b0196e","getPastTotalSupply(uint256)":"8e539e8c","getPastVotes(address,uint256)":"3a46b1a8","getVotes(address)":"9ab24eb0","name()":"06fdde03","nonces(address)":"7ecebe00","numCheckpoints(address)":"6fcfff45","owner()":"8da5cb5b","permit(address,address,uint256,uint256,uint8,bytes32,bytes32)":"d505accf","renounceOwnership()":"715018a6","symbol()":"95d89b41","totalSupply()":"18160ddd","transfer(address,uint256)":"a9059cbb","transferFrom(address,address,uint256)":"23b872dd","transferOwnership(address)":"f2fde38b"},"id":97}