{"abi":[{"type":"function","name":"allPairs","inputs":[{"name":"","type":"uint256","internalType":"uint256"}],"outputs":[{"name":"","type":"address","internalType":"address"}],"stateMutability":"view"},{"type":"function","name":"allPairsLength","inputs":[],"outputs":[{"name":"","type":"uint256","internalType":"uint256"}],"stateMutability":"view"},{"type":"function","name":"createPair","inputs":[{"name":"tokenA","type":"address","internalType":"address"},{"name":"tokenB","type":"address","internalType":"address"}],"outputs":[{"name":"pair","type":"address","internalType":"address"}],"stateMutability":"nonpayable"},{"type":"function","name":"createPairDeterministic","inputs":[{"name":"tokenA","type":"address","internalType":"address"},{"name":"tokenB","type":"address","internalType":"address"},{"name":"salt","type":"bytes32","internalType":"bytes32"}],"outputs":[{"name":"pair","type":"address","internalType":"address"}],"stateMutability":"nonpayable"},{"type":"function","name":"getPair","inputs":[{"name":"","type":"address","internalType":"address"},{"name":"","type":"address","internalType":"address"}],"outputs":[{"name":"","type":"address","internalType":"address"}],"stateMutability":"view"},{"type":"function","name":"predictPairAddress","inputs":[{"name":"tokenA","type":"address","internalType":"address"},{"name":"tokenB","type":"address","internalType":"address"},{"name":"salt","type":"bytes32","internalType":"bytes32"}],"outputs":[{"name":"predicted","type":"address","internalType":"address"}],"stateMutability":"view"},{"type":"event","name":"PairCreated","inputs":[{"name":"token0","type":"address","indexed":true,"internalType":"address"},{"name":"token1","type":"address","indexed":true,"internalType":"address"},{"name":"pair","type":"address","indexed":false,"internalType":"address"},{"name":"deterministic","type":"bool","indexed":false,"internalType":"bool"}],"anonymous":false},{"type":"error","name":"Create2EmptyBytecode","inputs":[]},{"type":"error","name":"FailedDeployment","inputs":[]},{"type":"error","name":"InsufficientBalance","inputs":[{"name":"balance","type":"uint256","internalType":"uint256"},{"name":"needed","type":"uint256","internalType":"uint256"}]},{"type":"error","name":"PairExists","inputs":[]},{"type":"error","name":"SameToken","inputs":[]},{"type":"error","name":"ZeroAddress","inputs":[]}],"bytecode":{"object":"0x6080604052348015600e575f5ffd5b50614c198061001c5f395ff3fe608060405234801561000f575f5ffd5b5060043610610060575f3560e01c80631e3dd18b14610064578063463a34d8146100945780634da80c5d146100c4578063574f2ba3146100f4578063c9c6539614610112578063e6a4390514610142575b5f5ffd5b61007e60048036038101906100799190610aac565b610172565b60405161008b9190610b16565b60405180910390f35b6100ae60048036038101906100a99190610b8c565b6101ad565b6040516100bb9190610b16565b60405180910390f35b6100de60048036038101906100d99190610b8c565b61024a565b6040516100eb9190610b16565b60405180910390f35b6100fc6103e3565b6040516101099190610beb565b60405180910390f35b61012c60048036038101906101279190610c04565b6103ef565b6040516101399190610b16565b60405180910390f35b61015c60048036038101906101579190610c04565b610544565b6040516101699190610b16565b60405180910390f35b60018181548110610181575f80fd5b905f5260205f20015f915054906101000a900473ffffffffffffffffffffffffffffffffffffffff1681565b5f5f5f6101ba8686610580565b915091505f604051806020016101cf90610a68565b6020820181038252601f19601f8201166040525083836040516020016101f6929190610c42565b604051602081830303815290604052604051602001610216929190610cbb565b60405160208183030381529060405290505f8180519060200120905061023d8682306106cf565b9450505050509392505050565b5f5f5f6102578686610580565b915091505f73ffffffffffffffffffffffffffffffffffffffff165f5f8473ffffffffffffffffffffffffffffffffffffffff1673ffffffffffffffffffffffffffffffffffffffff1681526020019081526020015f205f8373ffffffffffffffffffffffffffffffffffffffff1673ffffffffffffffffffffffffffffffffffffffff1681526020019081526020015f205f9054906101000a900473ffffffffffffffffffffffffffffffffffffffff1673ffffffffffffffffffffffffffffffffffffffff1614610356576040517f3d77e89100000000000000000000000000000000000000000000000000000000815260040160405180910390fd5b5f6040518060200161036790610a68565b6020820181038252601f19601f82011660405250838360405160200161038e929190610c42565b6040516020818303038152906040526040516020016103ae929190610cbb565b60405160208183030381529060405290506103ca5f868361070f565b93506103d9838386600161081f565b5050509392505050565b5f600180549050905090565b5f5f5f6103fc8585610580565b915091505f73ffffffffffffffffffffffffffffffffffffffff165f5f8473ffffffffffffffffffffffffffffffffffffffff1673ffffffffffffffffffffffffffffffffffffffff1681526020019081526020015f205f8373ffffffffffffffffffffffffffffffffffffffff1673ffffffffffffffffffffffffffffffffffffffff1681526020019081526020015f205f9054906101000a900473ffffffffffffffffffffffffffffffffffffffff1673ffffffffffffffffffffffffffffffffffffffff16146104fb576040517f3d77e89100000000000000000000000000000000000000000000000000000000815260040160405180910390fd5b818160405161050990610a68565b610514929190610c42565b604051809103905ff08015801561052d573d5f5f3e3d5ffd5b50925061053c8282855f61081f565b505092915050565b5f602052815f5260405f20602052805f5260405f205f915091509054906101000a900473ffffffffffffffffffffffffffffffffffffffff1681565b5f5f5f73ffffffffffffffffffffffffffffffffffffffff168473ffffffffffffffffffffffffffffffffffffffff1614806105e757505f73ffffffffffffffffffffffffffffffffffffffff168373ffffffffffffffffffffffffffffffffffffffff16145b1561061e576040517fd92e233d00000000000000000000000000000000000000000000000000000000815260040160405180910390fd5b8273ffffffffffffffffffffffffffffffffffffffff168473ffffffffffffffffffffffffffffffffffffffff1603610683576040517f201b580a00000000000000000000000000000000000000000000000000000000815260040160405180910390fd5b8273ffffffffffffffffffffffffffffffffffffffff168473ffffffffffffffffffffffffffffffffffffffff16106106bd5782846106c0565b83835b80925081935050509250929050565b5f604051836040820152846020820152828152600b810160ff815373ffffffffffffffffffffffffffffffffffffffff6055822016925050509392505050565b5f834710156107575747846040517fcf47918100000000000000000000000000000000000000000000000000000000815260040161074e929190610cde565b60405180910390fd5b5f825103610791576040517f4ca249dc00000000000000000000000000000000000000000000000000000000815260040160405180910390fd5b8282516020840186f590505f73ffffffffffffffffffffffffffffffffffffffff168173ffffffffffffffffffffffffffffffffffffffff1603610818575f6107d8610a56565b0361080f576040517fb06ebf3d00000000000000000000000000000000000000000000000000000000815260040160405180910390fd5b610817610a5d565b5b9392505050565b815f5f8673ffffffffffffffffffffffffffffffffffffffff1673ffffffffffffffffffffffffffffffffffffffff1681526020019081526020015f205f8573ffffffffffffffffffffffffffffffffffffffff1673ffffffffffffffffffffffffffffffffffffffff1681526020019081526020015f205f6101000a81548173ffffffffffffffffffffffffffffffffffffffff021916908373ffffffffffffffffffffffffffffffffffffffff160217905550815f5f8573ffffffffffffffffffffffffffffffffffffffff1673ffffffffffffffffffffffffffffffffffffffff1681526020019081526020015f205f8673ffffffffffffffffffffffffffffffffffffffff1673ffffffffffffffffffffffffffffffffffffffff1681526020019081526020015f205f6101000a81548173ffffffffffffffffffffffffffffffffffffffff021916908373ffffffffffffffffffffffffffffffffffffffff160217905550600182908060018154018082558091505060019003905f5260205f20015f9091909190916101000a81548173ffffffffffffffffffffffffffffffffffffffff021916908373ffffffffffffffffffffffffffffffffffffffff1602179055508273ffffffffffffffffffffffffffffffffffffffff168473ffffffffffffffffffffffffffffffffffffffff167fd6b196957cdc774a3f446a0dcd127f49e6352507784aa7fd6137c1d13326b6eb8484604051610a48929190610d1f565b60405180910390a350505050565b5f3d905090565b6040513d5f823e3d81fd5b613e9d80610d4783390190565b5f5ffd5b5f819050919050565b610a8b81610a79565b8114610a95575f5ffd5b50565b5f81359050610aa681610a82565b92915050565b5f60208284031215610ac157610ac0610a75565b5b5f610ace84828501610a98565b91505092915050565b5f73ffffffffffffffffffffffffffffffffffffffff82169050919050565b5f610b0082610ad7565b9050919050565b610b1081610af6565b82525050565b5f602082019050610b295f830184610b07565b92915050565b610b3881610af6565b8114610b42575f5ffd5b50565b5f81359050610b5381610b2f565b92915050565b5f819050919050565b610b6b81610b59565b8114610b75575f5ffd5b50565b5f81359050610b8681610b62565b92915050565b5f5f5f60608486031215610ba357610ba2610a75565b5b5f610bb086828701610b45565b9350506020610bc186828701610b45565b9250506040610bd286828701610b78565b9150509250925092565b610be581610a79565b82525050565b5f602082019050610bfe5f830184610bdc565b92915050565b5f5f60408385031215610c1a57610c19610a75565b5b5f610c2785828601610b45565b9250506020610c3885828601610b45565b9150509250929050565b5f604082019050610c555f830185610b07565b610c626020830184610b07565b9392505050565b5f81519050919050565b5f81905092915050565b8281835e5f83830152505050565b5f610c9582610c69565b610c9f8185610c73565b9350610caf818560208601610c7d565b80840191505092915050565b5f610cc68285610c8b565b9150610cd28284610c8b565b91508190509392505050565b5f604082019050610cf15f830185610bdc565b610cfe6020830184610bdc565b9392505050565b5f8115159050919050565b610d1981610d05565b82525050565b5f604082019050610d325f830185610b07565b610d3f6020830184610d10565b939250505056fe60e060405234801561000f575f5ffd5b50604051613e9d380380613e9d833981810160405281019061003191906102da565b600161004f61004461023d60201b60201c565b61026660201b60201c565b5f01819055505f73ffffffffffffffffffffffffffffffffffffffff168273ffffffffffffffffffffffffffffffffffffffff16141580156100bd57505f73ffffffffffffffffffffffffffffffffffffffff168173ffffffffffffffffffffffffffffffffffffffff1614155b6100fc576040517f08c379a00000000000000000000000000000000000000000000000000000000081526004016100f390610372565b60405180910390fd5b8073ffffffffffffffffffffffffffffffffffffffff168273ffffffffffffffffffffffffffffffffffffffff160361016a576040517f08c379a0000000000000000000000000000000000000000000000000000000008152600401610161906103da565b60405180910390fd5b8173ffffffffffffffffffffffffffffffffffffffff1660808173ffffffffffffffffffffffffffffffffffffffff16815250508073ffffffffffffffffffffffffffffffffffffffff1660a08173ffffffffffffffffffffffffffffffffffffffff1681525050306040516101df9061026f565b6101e9919061049b565b604051809103905ff080158015610202573d5f5f3e3d5ffd5b5073ffffffffffffffffffffffffffffffffffffffff1660c08173ffffffffffffffffffffffffffffffffffffffff168152505050506104da565b5f7f9b779b17422d0df92223018b32b4d1fa46e071723d6817e2486d003becc55f005f1b905090565b5f819050919050565b6116778061282683390190565b5f5ffd5b5f73ffffffffffffffffffffffffffffffffffffffff82169050919050565b5f6102a982610280565b9050919050565b6102b98161029f565b81146102c3575f5ffd5b50565b5f815190506102d4816102b0565b92915050565b5f5f604083850312156102f0576102ef61027c565b5b5f6102fd858286016102c6565b925050602061030e858286016102c6565b9150509250929050565b5f82825260208201905092915050565b7f7a65726f206164647265737300000000000000000000000000000000000000005f82015250565b5f61035c600c83610318565b915061036782610328565b602082019050919050565b5f6020820190508181035f83015261038981610350565b9050919050565b7f73616d6520746f6b656e000000000000000000000000000000000000000000005f82015250565b5f6103c4600a83610318565b91506103cf82610390565b602082019050919050565b5f6020820190508181035f8301526103f1816103b8565b9050919050565b7f44654669205375706572204c50000000000000000000000000000000000000005f82015250565b5f61042c600d83610318565b9150610437826103f8565b602082019050919050565b7f44534c50000000000000000000000000000000000000000000000000000000005f82015250565b5f610476600483610318565b915061048182610442565b602082019050919050565b6104958161029f565b82525050565b5f6060820190508181035f8301526104b281610420565b905081810360208301526104c58161046a565b90506104d4604083018461048c565b92915050565b60805160a05160c0516122b26105745f395f81816105e90152818161081c01528181610911015281816109cc0152610b0301525f81816107a601528181610bdb01528181610dbf01528181610e4d01528181610ec30152818161118b015261128501525f81816105240152818161075901528181610b9001528181610d6501528181610e7301528181610e9d015261113101526122b25ff3fe608060405234801561000f575f5ffd5b5060043610610135575f3560e01c80635a76f25e116100b65780639f1d0f591161007a5780639f1d0f5914610357578063a9059cbb14610387578063ca706bcf146103b7578063d21220a7146103e7578063d73792a914610405578063dd62ed3e1461042357610135565b80635a76f25e1461029c5780635fcbd285146102ba57806370a08231146102d8578063857620e11461030857806395d89b411461033957610135565b806323b872dd116100fd57806323b872dd146101e2578063313ce5671461021257806341cd47bf14610230578063422f10431461024e578063443cb4bc1461027e57610135565b806306fdde03146101395780630902f1ac14610157578063095ea7b3146101765780630dfe1681146101a657806318160ddd146101c4575b5f5ffd5b610141610453565b60405161014e9190611c4b565b60405180910390f35b61015f6104f1565b60405161016d929190611c83565b60405180910390f35b610190600480360381019061018b9190611d32565b610500565b60405161019d9190611d8a565b60405180910390f35b6101ae610522565b6040516101bb9190611dfe565b60405180910390f35b6101cc610546565b6040516101d99190611e17565b60405180910390f35b6101fc60048036038101906101f79190611e30565b61055d565b6040516102099190611d8a565b60405180910390f35b61021a61058b565b6040516102279190611e9b565b60405180910390f35b610238610593565b6040516102459190611e17565b60405180910390f35b61026860048036038101906102639190611eb4565b610599565b6040516102759190611e17565b60405180910390f35b610286610904565b6040516102939190611e17565b60405180910390f35b6102a4610909565b6040516102b19190611e17565b60405180910390f35b6102c261090f565b6040516102cf9190611f24565b60405180910390f35b6102f260048036038101906102ed9190611f3d565b610933565b6040516102ff9190611e17565b60405180910390f35b610322600480360381019061031d9190611eb4565b610986565b604051610330929190611c83565b60405180910390f35b610341610c82565b60405161034e9190611c4b565b60405180910390f35b610371600480360381019061036c9190611f68565b610d20565b60405161037e9190611e17565b60405180910390f35b6103a1600480360381019061039c9190611d32565b61110b565b6040516103ae9190611d8a565b60405180910390f35b6103d160048036038101906103cc9190611d32565b61112d565b6040516103de9190611e17565b60405180910390f35b6103ef611283565b6040516103fc9190611dfe565b60405180910390f35b61040d6112a7565b60405161041a9190611e17565b60405180910390f35b61043d60048036038101906104389190611fb8565b6112ad565b60405161044a9190611e17565b60405180910390f35b60605f61045e61133d565b905080600301805461046f90612023565b80601f016020809104026020016040519081016040528092919081815260200182805461049b90612023565b80156104e65780601f106104bd576101008083540402835291602001916104e6565b820191905f5260205f20905b8154815290600101906020018083116104c957829003601f168201915b505050505091505090565b5f5f5f54600154915091509091565b5f5f61050a611364565b905061051781858561136b565b600191505092915050565b7f000000000000000000000000000000000000000000000000000000000000000081565b5f5f61055061133d565b9050806002015491505090565b5f5f610567611364565b905061057485828561137d565b61057f858585611410565b60019150509392505050565b5f6012905090565b6103e581565b5f6105a2611500565b5f8414806105af57505f83145b156105e6576040517f1f2a200500000000000000000000000000000000000000000000000000000000815260040160405180910390fd5b5f7f000000000000000000000000000000000000000000000000000000000000000073ffffffffffffffffffffffffffffffffffffffff166318160ddd6040518163ffffffff1660e01b8152600401602060405180830381865afa158015610650573d5f5f3e3d5ffd5b505050506040513d601f19601f820116820180604052508101906106749190612067565b90505f810361069857610691848661068c91906120bf565b611522565b91506106de565b5f5f5482876106a791906120bf565b6106b1919061212d565b90505f60015483876106c391906120bf565b6106cd919061212d565b90506106d98282611599565b935050505b5f8203610717576040517fbb55fd2700000000000000000000000000000000000000000000000000000000815260040160405180910390fd5b82821015610751576040517f8199f5f300000000000000000000000000000000000000000000000000000000815260040160405180910390fd5b61079e3330877f000000000000000000000000000000000000000000000000000000000000000073ffffffffffffffffffffffffffffffffffffffff166115ab909392919063ffffffff16565b6107eb3330867f000000000000000000000000000000000000000000000000000000000000000073ffffffffffffffffffffffffffffffffffffffff166115ab909392919063ffffffff16565b845f5f8282546107fb919061215d565b925050819055508360015f828254610813919061215d565b925050819055507f000000000000000000000000000000000000000000000000000000000000000073ffffffffffffffffffffffffffffffffffffffff166340c10f1933846040518363ffffffff1660e01b815260040161087592919061219f565b5f604051808303815f87803b15801561088c575f5ffd5b505af115801561089e573d5f5f3e3d5ffd5b505050503373ffffffffffffffffffffffffffffffffffffffff167f64b83944e79c3ce8d4c297411de637c3e102d064677aac0c163976ebdcd6f50e8686856040516108ec939291906121c6565b60405180910390a2506108fd611600565b9392505050565b5f5481565b60015481565b7f000000000000000000000000000000000000000000000000000000000000000081565b5f5f61093d61133d565b9050805f015f8473ffffffffffffffffffffffffffffffffffffffff1673ffffffffffffffffffffffffffffffffffffffff1681526020019081526020015f2054915050919050565b5f5f610990611500565b5f85036109c9576040517f1f2a200500000000000000000000000000000000000000000000000000000000815260040160405180910390fd5b5f7f000000000000000000000000000000000000000000000000000000000000000073ffffffffffffffffffffffffffffffffffffffff166318160ddd6040518163ffffffff1660e01b8152600401602060405180830381865afa158015610a33573d5f5f3e3d5ffd5b505050506040513d601f19601f82011682018060405250810190610a579190612067565b9050805f5487610a6791906120bf565b610a71919061212d565b92508060015487610a8291906120bf565b610a8c919061212d565b915084831080610a9b57508382105b15610ad2576040517f8199f5f300000000000000000000000000000000000000000000000000000000815260040160405180910390fd5b825f5f828254610ae291906121fb565b925050819055508160015f828254610afa91906121fb565b925050819055507f000000000000000000000000000000000000000000000000000000000000000073ffffffffffffffffffffffffffffffffffffffff16639dc29fac33886040518363ffffffff1660e01b8152600401610b5c92919061219f565b5f604051808303815f87803b158015610b73575f5ffd5b505af1158015610b85573d5f5f3e3d5ffd5b50505050610bd433847f000000000000000000000000000000000000000000000000000000000000000073ffffffffffffffffffffffffffffffffffffffff1661161a9092919063ffffffff16565b610c1f33837f000000000000000000000000000000000000000000000000000000000000000073ffffffffffffffffffffffffffffffffffffffff1661161a9092919063ffffffff16565b3373ffffffffffffffffffffffffffffffffffffffff167f1dc8bb69df2b8e91fbdcbfcf93d951b3f0000f085a95fe3f7946d6161439245d848489604051610c69939291906121c6565b60405180910390a250610c7a611600565b935093915050565b60605f610c8d61133d565b9050806004018054610c9e90612023565b80601f0160208091040260200160405190810160405280929190818152602001828054610cca90612023565b8015610d155780601f10610cec57610100808354040283529160200191610d15565b820191905f5260205f20905b815481529060010190602001808311610cf857829003601f168201915b505050505091505090565b5f610d29611500565b5f8303610d62576040517f1f2a200500000000000000000000000000000000000000000000000000000000815260040160405180910390fd5b5f7f000000000000000000000000000000000000000000000000000000000000000073ffffffffffffffffffffffffffffffffffffffff168573ffffffffffffffffffffffffffffffffffffffff1614905080158015610e0e57507f000000000000000000000000000000000000000000000000000000000000000073ffffffffffffffffffffffffffffffffffffffff168573ffffffffffffffffffffffffffffffffffffffff1614155b15610e45576040517fc1ab6dc100000000000000000000000000000000000000000000000000000000815260040160405180910390fd5b5f81610e71577f0000000000000000000000000000000000000000000000000000000000000000610e93565b7f00000000000000000000000000000000000000000000000000000000000000005b90505f82610ec1577f0000000000000000000000000000000000000000000000000000000000000000610ee3565b7f00000000000000000000000000000000000000000000000000000000000000005b90505f83610ef357600154610ef6565b5f545b90505f84610f05575f54610f09565b6001545b90505f821480610f1857505f81145b15610f4f576040517fbb55fd2700000000000000000000000000000000000000000000000000000000815260040160405180910390fd5b610f59898961112d565b955086861015610f95576040517f8199f5f300000000000000000000000000000000000000000000000000000000815260040160405180910390fd5b5f8603610fce576040517fbb2875c300000000000000000000000000000000000000000000000000000000815260040160405180910390fd5b610ffb33308a8773ffffffffffffffffffffffffffffffffffffffff166115ab909392919063ffffffff16565b841561103557875f5f828254611011919061215d565b925050819055508560015f82825461102991906121fb565b92505081905550611065565b8760015f828254611046919061215d565b92505081905550855f5f82825461105d91906121fb565b925050819055505b61109033878573ffffffffffffffffffffffffffffffffffffffff1661161a9092919063ffffffff16565b8873ffffffffffffffffffffffffffffffffffffffff163373ffffffffffffffffffffffffffffffffffffffff167ffa2dda1cc1b86e41239702756b13effbc1a092b5c57e3ad320fbe4f3b13fe2358a896040516110ef929190611c83565b60405180910390a35050505050611104611600565b9392505050565b5f5f611115611364565b9050611122818585611410565b600191505092915050565b5f5f7f000000000000000000000000000000000000000000000000000000000000000073ffffffffffffffffffffffffffffffffffffffff168473ffffffffffffffffffffffffffffffffffffffff16149050801580156111da57507f000000000000000000000000000000000000000000000000000000000000000073ffffffffffffffffffffffffffffffffffffffff168473ffffffffffffffffffffffffffffffffffffffff1614155b15611211576040517fc1ab6dc100000000000000000000000000000000000000000000000000000000815260040160405180910390fd5b5f8161121f57600154611222565b5f545b90505f82611231575f54611235565b6001545b90505f6103e58661124691906120bf565b9050806103e88461125791906120bf565b611261919061215d565b818361126d91906120bf565b611277919061212d565b94505050505092915050565b7f000000000000000000000000000000000000000000000000000000000000000081565b6103e881565b5f5f6112b761133d565b9050806001015f8573ffffffffffffffffffffffffffffffffffffffff1673ffffffffffffffffffffffffffffffffffffffff1681526020019081526020015f205f8473ffffffffffffffffffffffffffffffffffffffff1673ffffffffffffffffffffffffffffffffffffffff1681526020019081526020015f205491505092915050565b5f7f52c63247e1f47db19d5ce0460030c497f067ca4cebf71ba98eeadabe20bace00905090565b5f33905090565b611378838383600161166d565b505050565b5f61138884846112ad565b90507fffffffffffffffffffffffffffffffffffffffffffffffffffffffffffffffff81101561140a57818110156113fb578281836040517ffb8f41b20000000000000000000000000000000000000000000000000000000081526004016113f29392919061222e565b60405180910390fd5b61140984848484035f61166d565b5b50505050565b5f73ffffffffffffffffffffffffffffffffffffffff168373ffffffffffffffffffffffffffffffffffffffff1603611480575f6040517f96c6fd1e0000000000000000000000000000000000000000000000000000000081526004016114779190612263565b60405180910390fd5b5f73ffffffffffffffffffffffffffffffffffffffff168273ffffffffffffffffffffffffffffffffffffffff16036114f0575f6040517fec442f050000000000000000000000000000000000000000000000000000000081526004016114e79190612263565b60405180910390fd5b6114fb83838361184a565b505050565b611508611a79565b600261151a611515611aba565b611ae3565b5f0181905550565b5f6003821115611587578190505f600160028461153f919061212d565b611549919061215d565b90505b81811015611581578091506002818285611566919061212d565b611570919061215d565b61157a919061212d565b905061154c565b50611594565b5f821461159357600190505b5b919050565b5f818310828418028218905092915050565b6115b9848484846001611aec565b6115fa57836040517f5274afe70000000000000000000000000000000000000000000000000000000081526004016115f19190612263565b60405180910390fd5b50505050565b600161161261160d611aba565b611ae3565b5f0181905550565b6116278383836001611b5d565b61166857826040517f5274afe700000000000000000000000000000000000000000000000000000000815260040161165f9190612263565b60405180910390fd5b505050565b5f61167661133d565b90505f73ffffffffffffffffffffffffffffffffffffffff168573ffffffffffffffffffffffffffffffffffffffff16036116e8575f6040517fe602df050000000000000000000000000000000000000000000000000000000081526004016116df9190612263565b60405180910390fd5b5f73ffffffffffffffffffffffffffffffffffffffff168473ffffffffffffffffffffffffffffffffffffffff1603611758575f6040517f94280d6200000000000000000000000000000000000000000000000000000000815260040161174f9190612263565b60405180910390fd5b82816001015f8773ffffffffffffffffffffffffffffffffffffffff1673ffffffffffffffffffffffffffffffffffffffff1681526020019081526020015f205f8673ffffffffffffffffffffffffffffffffffffffff1673ffffffffffffffffffffffffffffffffffffffff1681526020019081526020015f20819055508115611843578373ffffffffffffffffffffffffffffffffffffffff168573ffffffffffffffffffffffffffffffffffffffff167f8c5be1e5ebec7d5bd14f71427d1e84f3dd0314c0f7b2291e5b200ac8c7c3b9258560405161183a9190611e17565b60405180910390a35b5050505050565b5f61185361133d565b90505f73ffffffffffffffffffffffffffffffffffffffff168473ffffffffffffffffffffffffffffffffffffffff16036118a75781816002015f82825461189b919061215d565b92505081905550611979565b5f815f015f8673ffffffffffffffffffffffffffffffffffffffff1673ffffffffffffffffffffffffffffffffffffffff1681526020019081526020015f2054905082811015611932578481846040517fe450d38c0000000000000000000000000000000000000000000000000000000081526004016119299392919061222e565b60405180910390fd5b828103825f015f8773ffffffffffffffffffffffffffffffffffffffff1673ffffffffffffffffffffffffffffffffffffffff1681526020019081526020015f2081905550505b5f73ffffffffffffffffffffffffffffffffffffffff168373ffffffffffffffffffffffffffffffffffffffff16036119c25781816002015f8282540392505081905550611a0e565b81815f015f8573ffffffffffffffffffffffffffffffffffffffff1673ffffffffffffffffffffffffffffffffffffffff1681526020019081526020015f205f82825401925050819055505b8273ffffffffffffffffffffffffffffffffffffffff168473ffffffffffffffffffffffffffffffffffffffff167fddf252ad1be2c89b69c2b068fc378daa952ba7f163c4a11628f55a4df523b3ef84604051611a6b9190611e17565b60405180910390a350505050565b611a81611bbf565b15611ab8576040517f3ee5aeb500000000000000000000000000000000000000000000000000000000815260040160405180910390fd5b565b5f7f9b779b17422d0df92223018b32b4d1fa46e071723d6817e2486d003becc55f005f1b905090565b5f819050919050565b5f5f6323b872dd60e01b9050604051815f525f1960601c87166004525f1960601c86166024528460445260205f60645f5f8c5af1925060015f51148316611b4a578383151615611b3e573d5f823e3d81fd5b5f883b113d1516831692505b806040525f606052505095945050505050565b5f5f63a9059cbb60e01b9050604051815f525f1960601c86166004528460245260205f60445f5f8b5af1925060015f51148316611bb1578383151615611ba5573d5f823e3d81fd5b5f873b113d1516831692505b806040525050949350505050565b5f6002611bd2611bcd611aba565b611ae3565b5f015414905090565b5f81519050919050565b5f82825260208201905092915050565b8281835e5f83830152505050565b5f601f19601f8301169050919050565b5f611c1d82611bdb565b611c278185611be5565b9350611c37818560208601611bf5565b611c4081611c03565b840191505092915050565b5f6020820190508181035f830152611c638184611c13565b905092915050565b5f819050919050565b611c7d81611c6b565b82525050565b5f604082019050611c965f830185611c74565b611ca36020830184611c74565b9392505050565b5f5ffd5b5f73ffffffffffffffffffffffffffffffffffffffff82169050919050565b5f611cd782611cae565b9050919050565b611ce781611ccd565b8114611cf1575f5ffd5b50565b5f81359050611d0281611cde565b92915050565b611d1181611c6b565b8114611d1b575f5ffd5b50565b5f81359050611d2c81611d08565b92915050565b5f5f60408385031215611d4857611d47611caa565b5b5f611d5585828601611cf4565b9250506020611d6685828601611d1e565b9150509250929050565b5f8115159050919050565b611d8481611d70565b82525050565b5f602082019050611d9d5f830184611d7b565b92915050565b5f819050919050565b5f611dc6611dc1611dbc84611cae565b611da3565b611cae565b9050919050565b5f611dd782611dac565b9050919050565b5f611de882611dcd565b9050919050565b611df881611dde565b82525050565b5f602082019050611e115f830184611def565b92915050565b5f602082019050611e2a5f830184611c74565b92915050565b5f5f5f60608486031215611e4757611e46611caa565b5b5f611e5486828701611cf4565b9350506020611e6586828701611cf4565b9250506040611e7686828701611d1e565b9150509250925092565b5f60ff82169050919050565b611e9581611e80565b82525050565b5f602082019050611eae5f830184611e8c565b92915050565b5f5f5f60608486031215611ecb57611eca611caa565b5b5f611ed886828701611d1e565b9350506020611ee986828701611d1e565b9250506040611efa86828701611d1e565b9150509250925092565b5f611f0e82611dcd565b9050919050565b611f1e81611f04565b82525050565b5f602082019050611f375f830184611f15565b92915050565b5f60208284031215611f5257611f51611caa565b5b5f611f5f84828501611cf4565b91505092915050565b5f5f5f60608486031215611f7f57611f7e611caa565b5b5f611f8c86828701611cf4565b9350506020611f9d86828701611d1e565b9250506040611fae86828701611d1e565b9150509250925092565b5f5f60408385031215611fce57611fcd611caa565b5b5f611fdb85828601611cf4565b9250506020611fec85828601611cf4565b9150509250929050565b7f4e487b71000000000000000000000000000000000000000000000000000000005f52602260045260245ffd5b5f600282049050600182168061203a57607f821691505b60208210810361204d5761204c611ff6565b5b50919050565b5f8151905061206181611d08565b92915050565b5f6020828403121561207c5761207b611caa565b5b5f61208984828501612053565b91505092915050565b7f4e487b71000000000000000000000000000000000000000000000000000000005f52601160045260245ffd5b5f6120c982611c6b565b91506120d483611c6b565b92508282026120e281611c6b565b915082820484148315176120f9576120f8612092565b5b5092915050565b7f4e487b71000000000000000000000000000000000000000000000000000000005f52601260045260245ffd5b5f61213782611c6b565b915061214283611c6b565b92508261215257612151612100565b5b828204905092915050565b5f61216782611c6b565b915061217283611c6b565b925082820190508082111561218a57612189612092565b5b92915050565b61219981611ccd565b82525050565b5f6040820190506121b25f830185612190565b6121bf6020830184611c74565b9392505050565b5f6060820190506121d95f830186611c74565b6121e66020830185611c74565b6121f36040830184611c74565b949350505050565b5f61220582611c6b565b915061221083611c6b565b925082820390508181111561222857612227612092565b5b92915050565b5f6060820190506122415f830186612190565b61224e6020830185611c74565b61225b6040830184611c74565b949350505050565b5f6020820190506122765f830184612190565b9291505056fea2646970667358221220e1998669ce6dad7c865e719f6d4db13aef118427a991e019c19c8f070d4c009e64736f6c6343000821003360a060405234801561000f575f5ffd5b5060405161167738038061167783398181016040528101906100319190610238565b8282816003908161004291906104e1565b50806004908161005291906104e1565b5050508073ffffffffffffffffffffffffffffffffffffffff1660808173ffffffffffffffffffffffffffffffffffffffff16815250505050506105b0565b5f604051905090565b5f5ffd5b5f5ffd5b5f5ffd5b5f5ffd5b5f601f19601f8301169050919050565b7f4e487b71000000000000000000000000000000000000000000000000000000005f52604160045260245ffd5b6100f0826100aa565b810181811067ffffffffffffffff8211171561010f5761010e6100ba565b5b80604052505050565b5f610121610091565b905061012d82826100e7565b919050565b5f67ffffffffffffffff82111561014c5761014b6100ba565b5b610155826100aa565b9050602081019050919050565b8281835e5f83830152505050565b5f61018261017d84610132565b610118565b90508281526020810184848401111561019e5761019d6100a6565b5b6101a9848285610162565b509392505050565b5f82601f8301126101c5576101c46100a2565b5b81516101d5848260208601610170565b91505092915050565b5f73ffffffffffffffffffffffffffffffffffffffff82169050919050565b5f610207826101de565b9050919050565b610217816101fd565b8114610221575f5ffd5b50565b5f815190506102328161020e565b92915050565b5f5f5f6060848603121561024f5761024e61009a565b5b5f84015167ffffffffffffffff81111561026c5761026b61009e565b5b610278868287016101b1565b935050602084015167ffffffffffffffff8111156102995761029861009e565b5b6102a5868287016101b1565b92505060406102b686828701610224565b9150509250925092565b5f81519050919050565b7f4e487b71000000000000000000000000000000000000000000000000000000005f52602260045260245ffd5b5f600282049050600182168061030e57607f821691505b602082108103610321576103206102ca565b5b50919050565b5f819050815f5260205f209050919050565b5f6020601f8301049050919050565b5f82821b905092915050565b5f600883026103837fffffffffffffffffffffffffffffffffffffffffffffffffffffffffffffffff82610348565b61038d8683610348565b95508019841693508086168417925050509392505050565b5f819050919050565b5f819050919050565b5f6103d16103cc6103c7846103a5565b6103ae565b6103a5565b9050919050565b5f819050919050565b6103ea836103b7565b6103fe6103f6826103d8565b848454610354565b825550505050565b5f5f905090565b610415610406565b6104208184846103e1565b505050565b5f5b828110156104465761043b5f82840161040d565b600181019050610427565b505050565b601f82111561049957828211156104985761046581610327565b61046e83610339565b61047785610339565b6020861015610484575f90505b80830161049382840382610425565b505050505b5b505050565b5f82821c905092915050565b5f6104b95f198460080261049e565b1980831691505092915050565b5f6104d183836104aa565b9150826002028217905092915050565b6104ea826102c0565b67ffffffffffffffff811115610503576105026100ba565b5b61050d82546102f7565b61051882828561044b565b5f60209050601f831160018114610549575f8415610537578287015190505b61054185826104c6565b8655506105a8565b601f19841661055786610327565b5f5b8281101561057e57848901518255600182019150602085019450602081019050610559565b8683101561059b5784890151610597601f8916826104aa565b8355505b6001600288020188555050505b505050505050565b6080516110a16105d65f395f8181610367015281816104cf015261056201526110a15ff3fe608060405234801561000f575f5ffd5b50600436106100b2575f3560e01c806370a082311161006f57806370a082311461018c57806395d89b41146101bc5780639dc29fac146101da578063a8aa1b31146101f6578063a9059cbb14610214578063dd62ed3e14610244576100b2565b806306fdde03146100b6578063095ea7b3146100d457806318160ddd1461010457806323b872dd14610122578063313ce5671461015257806340c10f1914610170575b5f5ffd5b6100be610274565b6040516100cb9190610d1a565b60405180910390f35b6100ee60048036038101906100e99190610dcb565b610304565b6040516100fb9190610e23565b60405180910390f35b61010c610326565b6040516101199190610e4b565b60405180910390f35b61013c60048036038101906101379190610e64565b61032f565b6040516101499190610e23565b60405180910390f35b61015a61035d565b6040516101679190610ecf565b60405180910390f35b61018a60048036038101906101859190610dcb565b610365565b005b6101a660048036038101906101a19190610ee8565b6103f8565b6040516101b39190610e4b565b60405180910390f35b6101c461043d565b6040516101d19190610d1a565b60405180910390f35b6101f460048036038101906101ef9190610dcb565b6104cd565b005b6101fe610560565b60405161020b9190610f22565b60405180910390f35b61022e60048036038101906102299190610dcb565b610584565b60405161023b9190610e23565b60405180910390f35b61025e60048036038101906102599190610f3b565b6105a6565b60405161026b9190610e4b565b60405180910390f35b60606003805461028390610fa6565b80601f01602080910402602001604051908101604052809291908181526020018280546102af90610fa6565b80156102fa5780601f106102d1576101008083540402835291602001916102fa565b820191905f5260205f20905b8154815290600101906020018083116102dd57829003601f168201915b5050505050905090565b5f5f61030e610628565b905061031b81858561062f565b600191505092915050565b5f600254905090565b5f5f610339610628565b9050610346858285610641565b6103518585856106d4565b60019150509392505050565b5f6012905090565b7f000000000000000000000000000000000000000000000000000000000000000073ffffffffffffffffffffffffffffffffffffffff163373ffffffffffffffffffffffffffffffffffffffff16146103ea576040517fa12db5cc00000000000000000000000000000000000000000000000000000000815260040160405180910390fd5b6103f482826107c4565b5050565b5f5f5f8373ffffffffffffffffffffffffffffffffffffffff1673ffffffffffffffffffffffffffffffffffffffff1681526020019081526020015f20549050919050565b60606004805461044c90610fa6565b80601f016020809104026020016040519081016040528092919081815260200182805461047890610fa6565b80156104c35780601f1061049a576101008083540402835291602001916104c3565b820191905f5260205f20905b8154815290600101906020018083116104a657829003601f168201915b5050505050905090565b7f000000000000000000000000000000000000000000000000000000000000000073ffffffffffffffffffffffffffffffffffffffff163373ffffffffffffffffffffffffffffffffffffffff1614610552576040517fa12db5cc00000000000000000000000000000000000000000000000000000000815260040160405180910390fd5b61055c8282610843565b5050565b7f000000000000000000000000000000000000000000000000000000000000000081565b5f5f61058e610628565b905061059b8185856106d4565b600191505092915050565b5f60015f8473ffffffffffffffffffffffffffffffffffffffff1673ffffffffffffffffffffffffffffffffffffffff1681526020019081526020015f205f8373ffffffffffffffffffffffffffffffffffffffff1673ffffffffffffffffffffffffffffffffffffffff1681526020019081526020015f2054905092915050565b5f33905090565b61063c83838360016108c2565b505050565b5f61064c84846105a6565b90507fffffffffffffffffffffffffffffffffffffffffffffffffffffffffffffffff8110156106ce57818110156106bf578281836040517ffb8f41b20000000000000000000000000000000000000000000000000000000081526004016106b693929190610fd6565b60405180910390fd5b6106cd84848484035f6108c2565b5b50505050565b5f73ffffffffffffffffffffffffffffffffffffffff168373ffffffffffffffffffffffffffffffffffffffff1603610744575f6040517f96c6fd1e00000000000000000000000000000000000000000000000000000000815260040161073b9190610f22565b60405180910390fd5b5f73ffffffffffffffffffffffffffffffffffffffff168273ffffffffffffffffffffffffffffffffffffffff16036107b4575f6040517fec442f050000000000000000000000000000000000000000000000000000000081526004016107ab9190610f22565b60405180910390fd5b6107bf838383610a91565b505050565b5f73ffffffffffffffffffffffffffffffffffffffff168273ffffffffffffffffffffffffffffffffffffffff1603610834575f6040517fec442f0500000000000000000000000000000000000000000000000000000000815260040161082b9190610f22565b60405180910390fd5b61083f5f8383610a91565b5050565b5f73ffffffffffffffffffffffffffffffffffffffff168273ffffffffffffffffffffffffffffffffffffffff16036108b3575f6040517f96c6fd1e0000000000000000000000000000000000000000000000000000000081526004016108aa9190610f22565b60405180910390fd5b6108be825f83610a91565b5050565b5f73ffffffffffffffffffffffffffffffffffffffff168473ffffffffffffffffffffffffffffffffffffffff1603610932575f6040517fe602df050000000000000000000000000000000000000000000000000000000081526004016109299190610f22565b60405180910390fd5b5f73ffffffffffffffffffffffffffffffffffffffff168373ffffffffffffffffffffffffffffffffffffffff16036109a2575f6040517f94280d620000000000000000000000000000000000000000000000000000000081526004016109999190610f22565b60405180910390fd5b8160015f8673ffffffffffffffffffffffffffffffffffffffff1673ffffffffffffffffffffffffffffffffffffffff1681526020019081526020015f205f8573ffffffffffffffffffffffffffffffffffffffff1673ffffffffffffffffffffffffffffffffffffffff1681526020019081526020015f20819055508015610a8b578273ffffffffffffffffffffffffffffffffffffffff168473ffffffffffffffffffffffffffffffffffffffff167f8c5be1e5ebec7d5bd14f71427d1e84f3dd0314c0f7b2291e5b200ac8c7c3b92584604051610a829190610e4b565b60405180910390a35b50505050565b5f73ffffffffffffffffffffffffffffffffffffffff168373ffffffffffffffffffffffffffffffffffffffff1603610ae1578060025f828254610ad59190611038565b92505081905550610baf565b5f5f5f8573ffffffffffffffffffffffffffffffffffffffff1673ffffffffffffffffffffffffffffffffffffffff1681526020019081526020015f2054905081811015610b6a578381836040517fe450d38c000000000000000000000000000000000000000000000000000000008152600401610b6193929190610fd6565b60405180910390fd5b8181035f5f8673ffffffffffffffffffffffffffffffffffffffff1673ffffffffffffffffffffffffffffffffffffffff1681526020019081526020015f2081905550505b5f73ffffffffffffffffffffffffffffffffffffffff168273ffffffffffffffffffffffffffffffffffffffff1603610bf6578060025f8282540392505081905550610c40565b805f5f8473ffffffffffffffffffffffffffffffffffffffff1673ffffffffffffffffffffffffffffffffffffffff1681526020019081526020015f205f82825401925050819055505b8173ffffffffffffffffffffffffffffffffffffffff168373ffffffffffffffffffffffffffffffffffffffff167fddf252ad1be2c89b69c2b068fc378daa952ba7f163c4a11628f55a4df523b3ef83604051610c9d9190610e4b565b60405180910390a3505050565b5f81519050919050565b5f82825260208201905092915050565b8281835e5f83830152505050565b5f601f19601f8301169050919050565b5f610cec82610caa565b610cf68185610cb4565b9350610d06818560208601610cc4565b610d0f81610cd2565b840191505092915050565b5f6020820190508181035f830152610d328184610ce2565b905092915050565b5f5ffd5b5f73ffffffffffffffffffffffffffffffffffffffff82169050919050565b5f610d6782610d3e565b9050919050565b610d7781610d5d565b8114610d81575f5ffd5b50565b5f81359050610d9281610d6e565b92915050565b5f819050919050565b610daa81610d98565b8114610db4575f5ffd5b50565b5f81359050610dc581610da1565b92915050565b5f5f60408385031215610de157610de0610d3a565b5b5f610dee85828601610d84565b9250506020610dff85828601610db7565b9150509250929050565b5f8115159050919050565b610e1d81610e09565b82525050565b5f602082019050610e365f830184610e14565b92915050565b610e4581610d98565b82525050565b5f602082019050610e5e5f830184610e3c565b92915050565b5f5f5f60608486031215610e7b57610e7a610d3a565b5b5f610e8886828701610d84565b9350506020610e9986828701610d84565b9250506040610eaa86828701610db7565b9150509250925092565b5f60ff82169050919050565b610ec981610eb4565b82525050565b5f602082019050610ee25f830184610ec0565b92915050565b5f60208284031215610efd57610efc610d3a565b5b5f610f0a84828501610d84565b91505092915050565b610f1c81610d5d565b82525050565b5f602082019050610f355f830184610f13565b92915050565b5f5f60408385031215610f5157610f50610d3a565b5b5f610f5e85828601610d84565b9250506020610f6f85828601610d84565b9150509250929050565b7f4e487b71000000000000000000000000000000000000000000000000000000005f52602260045260245ffd5b5f6002820490506001821680610fbd57607f821691505b602082108103610fd057610fcf610f79565b5b50919050565b5f606082019050610fe95f830186610f13565b610ff66020830185610e3c565b6110036040830184610e3c565b949350505050565b7f4e487b71000000000000000000000000000000000000000000000000000000005f52601160045260245ffd5b5f61104282610d98565b915061104d83610d98565b92508282019050808211156110655761106461100b565b5b9291505056fea26469706673582212202140cd4b66bdcac419e3f5ae1d015980c22d4fb006cf859c688c8d716a13cc6064736f6c63430008210033a2646970667358221220bfe19fc296c7fe9ddc0343e14a18b479832ca0d7b19cd753faf5cbe995f56f9964736f6c63430008210033","linkReferences":{}},"methodIdentifiers":{"allPairs(uint256)":"1e3dd18b","allPairsLength()":"574f2ba3","createPair(address,address)":"c9c65396","createPairDeterministic(address,address,bytes32)":"4da80c5d","getPair(address,address)":"e6a43905","predictPairAddress(address,address,bytes32)":"463a34d8"},"id":89}